{"abi":[{"type":"constructor","inputs":[],"stateMutability":"nonpayable"},{"type":"function","name":"owner","inputs":[],"outputs":[{"name":"","type":"address","internalType":"address"}],"stateMutability":"view"},{"type":"function","name":"renounceOwnership","inputs":[],"outputs":[],"stateMutability":"nonpayable"},{"type":"function","name":"transferOwnership","inputs":[{"name":"newOwner","type":"address","internalType":"address"}],"outputs":[],"stateMutability":"nonpayable"},{"type":"function","name":"withdraw","inputs":[{"name":"token","type":"address","internalType":"address"},{"name":"amount","type":"uint256","internalType":"uint256"}],"outputs":[],"stateMutability":"nonpayable"},{"type":"event","name":"OwnershipTransferred","inputs":[{"name":"previousOwner","type":"address","indexed":true,"internalType":"address"},{"name":"newOwner","type":"address","indexed":true,"internalType":"address"}],"anonymous":false},{"type":"error","name":"InsufficientBalance","inputs":[{"name":"token","type":"address","internalType":"address"},{"name":"amount","type":"uint256","internalType":"uint256"}]},{"type":"error","name":"OwnableInvalidOwner","inputs":[{"name":"owner","type":"address","internalType":"address"}]},{"type":"error","name":"OwnableUnauthorizedAccount","inputs":[{"name":"account","type":"address","internalType":"address"}]},{"type":"error","name":"ReentrancyGuardReentrantCall","inputs":[]},{"type":"error","name":"SafeERC20FailedOperation","inputs":[{"name":"token","type":"address","internalType":"address"}]}],"bytecode":{"object":"0x6080806040523460735760015f55331560605760018054336001600160a01b0319821681179092556001600160a01b03167f8be0079c531659141344cd1fd0a4f28419497f9722a3daafe3b4186f6b6457e05f80a361033f90816100788239f35b631e4fbdf760e01b5f525f60045260245ffd5b5f80fdfe60806040526004361015610011575f80fd5b5f3560e01c8063715018a61461023b5780638da5cb5b14610213578063f2fde38b1461018d5763f3fef3a314610045575f80fd5b346101725760403660031901126101725761005e610296565b6024359060025f541461017e5760025f556100776102e2565b6040516370a0823160e01b81523060048201526001600160a01b03919091169190602081602481865afa80156101245782915f91610145575b501061012f5760405163a9059cbb60e01b60208281019182523360248401526044808401949094529282525f916100e86064826102ac565b519082855af115610124575f513d61011b5750803b155b6101095760015f55005b635274afe760e01b5f5260045260245ffd5b600114156100ff565b6040513d5f823e3d90fd5b90633db7aa8160e21b5f5260045260245260445ffd5b9150506020813d602011610176575b81610161602093836102ac565b81010312610172578190515f6100b0565b5f80fd5b3d9150610154565b633ee5aeb560e01b5f5260045ffd5b34610172576020366003190112610172576101a6610296565b6101ae6102e2565b6001600160a01b0316801561020057600180546001600160a01b0319811683179091556001600160a01b03167f8be0079c531659141344cd1fd0a4f28419497f9722a3daafe3b4186f6b6457e05f80a3005b631e4fbdf760e01b5f525f60045260245ffd5b34610172575f366003190112610172576001546040516001600160a01b039091168152602090f35b34610172575f366003190112610172576102536102e2565b600180546001600160a01b031981169091555f906001600160a01b03167f8be0079c531659141344cd1fd0a4f28419497f9722a3daafe3b4186f6b6457e08280a3005b600435906001600160a01b038216820361017257565b90601f8019910116810190811067ffffffffffffffff8211176102ce57604052565b634e487b7160e01b5f52604160045260245ffd5b6001546001600160a01b031633036102f657565b63118cdaa760e01b5f523360045260245ffdfea26469706673582212203917310e35f1015ac09fcc9e2f9a56cd088f3bebcc61f188f611970d773d9c5764736f6c634300081c0033","linkReferences":{}},"methodIdentifiers":{"owner()":"8da5cb5b","renounceOwnership()":"715018a6","transferOwnership(address)":"f2fde38b","withdraw(address,uint256)":"f3fef3a3"},"id":66}