{"abi":[{"type":"function","name":"_isHealthy","inputs":[{"name":"borrowToken","type":"address","internalType":"address"},{"name":"factory","type":"address","internalType":"address"},{"name":"addressPositions","type":"address","internalType":"address"},{"name":"ltv","type":"uint256","internalType":"uint256"},{"name":"totalBorrowAssets","type":"uint256","internalType":"uint256"},{"name":"totalBorrowShares","type":"uint256","internalType":"uint256"},{"name":"userBorrowShares","type":"uint256","internalType":"uint256"}],"outputs":[],"stateMutability":"view"},{"type":"error","name":"InsufficientCollateral","inputs":[]}],"bytecode":{"object":"0x608080604052346015576104ee908161001a8239f35b5f80fdfe6080806040526004361015610012575f80fd5b5f3560e01c632e68f18e14610025575f80fd5b346102b45760e03660031901126102b4576004356001600160a01b038116908190036102b4576024356001600160a01b03811692908390036102b4576044356001600160a01b03811693908490036102b45781602481602093630ea199ad60e11b82528660048301525afa9081156102c0575f916103d2575b50604051633fabe5a360e21b81526001600160a01b03919091169160a082600481865afa9182156102c0575f92610380575b506020600492936040519384809263313ce56760e01b82525afa9081156102c0576004925f9261035e575b506020906040519384809263313ce56760e01b82525afa9182156102c0575f9261032d575b506040516330de110d60e11b81525f94602082600481845afa9182156102c0575f926102f9575b5060015b828111156102015750505061016f60a43561016a60843560c435610476565b610489565b92670de0b6b3a7640000810290808204670de0b6b3a764000014901517156101ed576101ba936101ae6101b4926101a86101a8956104a7565b90610489565b90610476565b916104a7565b670de0b6b3a76400006101cf60643584610476565b049181116101de57116101de57005b633a23d82560e01b5f5260045ffd5b634e487b7160e01b5f52601160045260245ffd5b604051631cb928a960e01b815260048101829052602081602481865afa9081156102c0575f916102cb575b506001600160a01b03168061024d575b505f1981146101ed5760010161014b565b6040979197519063289fbe8f60e11b82526004820152602081602481865afa9081156102c0575f9161028b575b5081018091116101ed57955f61023c565b90506020813d82116102b8575b816102a5602093836103f1565b810103126102b457515f61027a565b5f80fd5b3d9150610298565b6040513d5f823e3d90fd5b6102ec915060203d81116102f2575b6102e481836103f1565b810190610427565b5f61022c565b503d6102da565b9091506020813d602011610325575b81610315602093836103f1565b810103126102b45751905f610147565b3d9150610308565b61035091925060203d602011610357575b61034881836103f1565b81019061045d565b905f610120565b503d61033e565b602091925061037990823d84116103575761034881836103f1565b91906100fb565b915060a0823d60a0116103ca575b8161039b60a093836103f1565b810103126102b4576020826103b1600494610446565b506103c26080838301519201610446565b5092506100d0565b3d915061038e565b6103eb915060203d6020116102f2576102e481836103f1565b5f61009e565b90601f8019910116810190811067ffffffffffffffff82111761041357604052565b634e487b7160e01b5f52604160045260245ffd5b908160209103126102b457516001600160a01b03811681036102b45790565b519069ffffffffffffffffffff821682036102b457565b908160209103126102b4575160ff811681036102b45790565b818102929181159184041417156101ed57565b8115610493570490565b634e487b7160e01b5f52601260045260245ffd5b60ff16604d81116101ed57600a0a9056fea26469706673582212207e5d5c1ed1276526844765bcb118054c072d2d80c96bab3cf437fda05d73222264736f6c634300081c0033","linkReferences":{}},"methodIdentifiers":{"_isHealthy(address,address,address,uint256,uint256,uint256,uint256)":"2e68f18e"},"id":57}