{"abi":[{"type":"constructor","inputs":[],"stateMutability":"nonpayable"},{"type":"function","name":"networks","inputs":[{"name":"enumValue","type":"uint8","internalType":"enum Helper.SupportedNetworks"}],"outputs":[{"name":"humanReadableName","type":"string","internalType":"string"}],"stateMutability":"view"}],"bytecode":{"object":"0x6080604052346101cd575f80525f60205260405f2061002761002182546101d1565b82610209565b7f457468657265756d205365706f6c696100000000000000000000000000000020905560015f9081526020527fada5013122d395ba3c54772283fb069b10426056ef8ca54750cb9bb552a59e7d805461007f906101d1565b601f81116101a3575b507f4176616c616e6368652046756a6900000000000000000000000000000000001c905560025f9081526020527fabbb5caa7dda850e60932de0934eb1f9d0f59695050f761dc64e443e5030a56980546100e590610021906101d1565b7f417262697472756d205365706f6c696100000000000000000000000000000020905560035f9081526020527f101e368776582e57ab3d116ffe2517c0a585cd5b23174b01e275c2d8329c3d83805461013d906101d1565b601f8111610179575b507f42617365205365706f6c69610000000000000000000000000000000000000018905560405161018e908161023d8239f35b815f52601f60205f20910160051c8101905b8181106101985750610146565b5f815560010161018b565b815f52601f60205f20910160051c8101905b8181106101c25750610088565b5f81556001016101b5565b5f80fd5b90600182811c921680156101ff575b60208310146101eb57565b634e487b7160e01b5f52602260045260245ffd5b91607f16916101e0565b601f8211610215575050565b5f52601f60205f20910160051c8101905b818110610231575050565b5f815560010161022656fe6080600436101561000e575f80fd5b5f3560e01c638a21e63914610021575f80fd5b34610154576020366003190112610154576004356004811015610154575f525f60205260405f205f8154918260011c906001841693841561014a575b60208310851461013657828652602086019490811561011b57506001146100e3575b5050829003601f01601f191682019167ffffffffffffffff8311818410176100cf576040918391828452602083525180918160208501528484015e5f828201840152601f01601f19168101030190f35b634e487b7160e01b5f52604160045260245ffd5b9091505f5260205f205f905b8282106101055750602091508301015f8061007f565b60018160209254838589010152019101906100ef565b60ff191685525050151560051b830160200190505f8061007f565b634e487b7160e01b5f52602260045260245ffd5b91607f169161005d565b5f80fdfea264697066735822122088d8d1cb8e399054750697dc75987f74920daa0b469116610c3aeb3d3e11511c64736f6c634300081c0033","linkReferences":{}},"methodIdentifiers":{"networks(uint8)":"8a21e639"},"id":69}