{"abi":[{"type":"constructor","inputs":[{"name":"_helperTestnet","type":"address","internalType":"address"},{"name":"_token","type":"address","internalType":"address"},{"name":"_receiverBridge","type":"address","internalType":"address"},{"name":"_chainId","type":"uint256","internalType":"uint256"}],"stateMutability":"nonpayable"},{"type":"function","name":"bridge","inputs":[{"name":"_amount","type":"uint256","internalType":"uint256"},{"name":"_recipient","type":"address","internalType":"address"},{"name":"_token","type":"address","internalType":"address"}],"outputs":[{"name":"","type":"bytes32","internalType":"bytes32"}],"stateMutability":"payable"},{"type":"function","name":"chainId","inputs":[],"outputs":[{"name":"","type":"uint256","internalType":"uint256"}],"stateMutability":"view"},{"type":"function","name":"helperTestnet","inputs":[],"outputs":[{"name":"","type":"address","internalType":"address"}],"stateMutability":"view"},{"type":"function","name":"interchainGasPaymaster","inputs":[],"outputs":[{"name":"","type":"address","internalType":"address"}],"stateMutability":"view"},{"type":"function","name":"mailbox","inputs":[],"outputs":[{"name":"","type":"address","internalType":"address"}],"stateMutability":"view"},{"type":"function","name":"receiverBridge","inputs":[],"outputs":[{"name":"","type":"address","internalType":"address"}],"stateMutability":"view"},{"type":"function","name":"token","inputs":[],"outputs":[{"name":"","type":"address","internalType":"address"}],"stateMutability":"view"},{"type":"error","name":"InterchainGasPaymasterNotSet","inputs":[]},{"type":"error","name":"MailboxNotSet","inputs":[]},{"type":"error","name":"ReceiverBridgeNotSet","inputs":[]},{"type":"error","name":"SameChain","inputs":[]},{"type":"error","name":"TransferFailed","inputs":[]}],"bytecode":{"object":"0x608080604052346101a257608081610717803803809161001f82856101b9565b8339810103126101a257610032816101f0565b9061003f602082016101f0565b906024606080610051604085016101f0565b9301515f80546001600160a01b0319166001600160a01b03909716968717905560405163550325b560e01b815246600482015290959092839182905afa9081156101ae575f905f92610152575b50600180546001600160a01b039283166001600160a01b0319918216811790925560028054948416948216851790556004805495841695821686179055600587905560038054969093169516949094179055909115610143571561013457156101255746146101165760405161051290816102058239f35b6306a0ae9360e11b5f5260045ffd5b63068b03a360e31b5f5260045ffd5b634fdc5b9760e01b5f5260045ffd5b63300f1fb360e11b5f5260045ffd5b9150506060813d6060116101a6575b8161016e606093836101b9565b810103126101a25761017f816101f0565b604061018d602084016101f0565b92015163ffffffff8116036101a2575f61009e565b5f80fd5b3d9150610161565b6040513d5f823e3d90fd5b601f909101601f19168101906001600160401b038211908210176101dc57604052565b634e487b7160e01b5f52604160045260245ffd5b51906001600160a01b03821682036101a25756fe6080806040526004361015610012575f80fd5b5f905f3560e01c90816339bb4ad91461046f5750806354aff439146104485780635abf0d39146104205780639a8a059214610403578063a334defb146100bf578063d5438eae146100965763fc0c546a1461006b575f80fd5b346100935780600319360112610093576003546040516001600160a01b039091168152602090f35b80fd5b50346100935780600319360112610093576001546040516001600160a01b039091168152602090f35b50606036600319011261034a576024356001600160a01b038116906004359082900361034a576044356001600160a01b038116919082900361034a5760018060a01b035f541691606060055460246040518096819363550325b560e01b835260048301525afa92831561033f575f936103a7575b506004546001600160a01b0316156103985760205f916064604051809481936323b872dd60e01b83523360048401523060248401528760448401525af190811561033f575f9161035d575b501561034e576003546001600160a01b0316803b1561034a575f8091602460405180948193630852cd8d60e31b83528760048401525af1801561033f5761032a575b506040519060208201938452806040830152604082526101e1606083610492565b602063ffffffff604460018060a01b036002541695604051968793849263a692979360e01b8452169586600484015260248301525afa801561031f5785906102e8575b6020935060018060a01b036004541690608460018060a01b0360015416936040519788968795869363fa31de0160e01b855260048501526024840152606060448401525180918160648501528484015e81810183018a9052601f01601f191681010301925af19081156102dd5782916102a3575b602082604051908152f35b90506020813d6020116102d5575b816102be60209383610492565b810103126102d15760209150515f610298565b5080fd5b3d91506102b1565b6040513d84823e3d90fd5b506020833d602011610317575b8161030260209383610492565b810103126103135760209251610224565b8480fd5b3d91506102f5565b6040513d87823e3d90fd5b6103379194505f90610492565b5f925f6101c0565b6040513d5f823e3d90fd5b5f80fd5b6312171d8360e31b5f5260045ffd5b90506020813d602011610390575b8161037860209383610492565b8101031261034a5751801515810361034a575f61017e565b3d915061036b565b63068b03a360e31b5f5260045ffd5b9092506060813d6060116103fb575b816103c360609383610492565b8101031261034a57806103d76040926104c8565b506103e4602082016104c8565b50015163ffffffff8116810361034a57915f610133565b3d91506103b6565b3461034a575f36600319011261034a576020600554604051908152f35b3461034a575f36600319011261034a576004546040516001600160a01b039091168152602090f35b3461034a575f36600319011261034a575f546040516001600160a01b039091168152602090f35b3461034a575f36600319011261034a576002546001600160a01b03168152602090f35b90601f8019910116810190811067ffffffffffffffff8211176104b457604052565b634e487b7160e01b5f52604160045260245ffd5b51906001600160a01b038216820361034a5756fea2646970667358221220fecc33467f43684e831d2c7633d0eaa4e8dd748844e8db020202c94a5b65b72864736f6c634300081c0033","linkReferences":{}},"methodIdentifiers":{"bridge(uint256,address,address)":"a334defb","chainId()":"9a8a0592","helperTestnet()":"54aff439","interchainGasPaymaster()":"39bb4ad9","mailbox()":"d5438eae","receiverBridge()":"5abf0d39","token()":"fc0c546a"},"id":63}