{"abi":[{"type":"constructor","inputs":[{"name":"_collateralToken","type":"address","internalType":"address"},{"name":"_borrowToken","type":"address","internalType":"address"},{"name":"_factory","type":"address","internalType":"address"},{"name":"_ltv","type":"uint256","internalType":"uint256"}],"stateMutability":"nonpayable"},{"type":"function","name":"accrueInterest","inputs":[],"outputs":[],"stateMutability":"nonpayable"},{"type":"function","name":"addressPositions","inputs":[{"name":"","type":"address","internalType":"address"}],"outputs":[{"name":"","type":"address","internalType":"address"}],"stateMutability":"view"},{"type":"function","name":"borrowDebt","inputs":[{"name":"amount","type":"uint256","internalType":"uint256"},{"name":"_chainId","type":"uint256","internalType":"uint256"},{"name":"_bridgeTokenSender","type":"uint256","internalType":"uint256"}],"outputs":[],"stateMutability":"payable"},{"type":"function","name":"borrowToken","inputs":[],"outputs":[{"name":"","type":"address","internalType":"address"}],"stateMutability":"view"},{"type":"function","name":"collateralToken","inputs":[],"outputs":[{"name":"","type":"address","internalType":"address"}],"stateMutability":"view"},{"type":"function","name":"createPosition","inputs":[],"outputs":[],"stateMutability":"nonpayable"},{"type":"function","name":"factory","inputs":[],"outputs":[{"name":"","type":"address","internalType":"address"}],"stateMutability":"view"},{"type":"function","name":"lastAccrued","inputs":[],"outputs":[{"name":"","type":"uint256","internalType":"uint256"}],"stateMutability":"view"},{"type":"function","name":"ltv","inputs":[],"outputs":[{"name":"","type":"uint256","internalType":"uint256"}],"stateMutability":"view"},{"type":"function","name":"repayWithSelectedToken","inputs":[{"name":"shares","type":"uint256","internalType":"uint256"},{"name":"_token","type":"address","internalType":"address"},{"name":"_fromPosition","type":"bool","internalType":"bool"}],"outputs":[],"stateMutability":"nonpayable"},{"type":"function","name":"supplyCollateral","inputs":[{"name":"amount","type":"uint256","internalType":"uint256"}],"outputs":[],"stateMutability":"nonpayable"},{"type":"function","name":"supplyLiquidity","inputs":[{"name":"amount","type":"uint256","internalType":"uint256"}],"outputs":[],"stateMutability":"nonpayable"},{"type":"function","name":"swapTokenByPosition","inputs":[{"name":"_tokenFrom","type":"address","internalType":"address"},{"name":"_tokenTo","type":"address","internalType":"address"},{"name":"amountIn","type":"uint256","internalType":"uint256"}],"outputs":[{"name":"amountOut","type":"uint256","internalType":"uint256"}],"stateMutability":"nonpayable"},{"type":"function","name":"totalBorrowAssets","inputs":[],"outputs":[{"name":"","type":"uint256","internalType":"uint256"}],"stateMutability":"view"},{"type":"function","name":"totalBorrowShares","inputs":[],"outputs":[{"name":"","type":"uint256","internalType":"uint256"}],"stateMutability":"view"},{"type":"function","name":"totalSupplyAssets","inputs":[],"outputs":[{"name":"","type":"uint256","internalType":"uint256"}],"stateMutability":"view"},{"type":"function","name":"totalSupplyShares","inputs":[],"outputs":[{"name":"","type":"uint256","internalType":"uint256"}],"stateMutability":"view"},{"type":"function","name":"userBorrowShares","inputs":[{"name":"","type":"address","internalType":"address"}],"outputs":[{"name":"","type":"uint256","internalType":"uint256"}],"stateMutability":"view"},{"type":"function","name":"userSupplyShares","inputs":[{"name":"","type":"address","internalType":"address"}],"outputs":[{"name":"","type":"uint256","internalType":"uint256"}],"stateMutability":"view"},{"type":"function","name":"withdrawCollateral","inputs":[{"name":"amount","type":"uint256","internalType":"uint256"}],"outputs":[],"stateMutability":"nonpayable"},{"type":"function","name":"withdrawLiquidity","inputs":[{"name":"_shares","type":"uint256","internalType":"uint256"}],"outputs":[],"stateMutability":"nonpayable"},{"type":"event","name":"BorrowDebtCrosschain","inputs":[{"name":"user","type":"address","indexed":true,"internalType":"address"},{"name":"amount","type":"uint256","indexed":false,"internalType":"uint256"},{"name":"shares","type":"uint256","indexed":false,"internalType":"uint256"},{"name":"chainId","type":"uint256","indexed":true,"internalType":"uint256"},{"name":"bridgeTokenSender","type":"address","indexed":true,"internalType":"address"}],"anonymous":false},{"type":"event","name":"CreatePosition","inputs":[{"name":"user","type":"address","indexed":true,"internalType":"address"},{"name":"positionAddress","type":"address","indexed":true,"internalType":"address"}],"anonymous":false},{"type":"event","name":"RepayWithCollateralByPosition","inputs":[{"name":"user","type":"address","indexed":true,"internalType":"address"},{"name":"amount","type":"uint256","indexed":false,"internalType":"uint256"},{"name":"shares","type":"uint256","indexed":false,"internalType":"uint256"}],"anonymous":false},{"type":"event","name":"SupplyCollateral","inputs":[{"name":"user","type":"address","indexed":true,"internalType":"address"},{"name":"amount","type":"uint256","indexed":false,"internalType":"uint256"}],"anonymous":false},{"type":"event","name":"SupplyLiquidity","inputs":[{"name":"user","type":"address","indexed":true,"internalType":"address"},{"name":"amount","type":"uint256","indexed":false,"internalType":"uint256"},{"name":"shares","type":"uint256","indexed":false,"internalType":"uint256"}],"anonymous":false},{"type":"event","name":"WithdrawLiquidity","inputs":[{"name":"user","type":"address","indexed":true,"internalType":"address"},{"name":"amount","type":"uint256","indexed":false,"internalType":"uint256"},{"name":"shares","type":"uint256","indexed":false,"internalType":"uint256"}],"anonymous":false},{"type":"error","name":"InsufficientBorrowShares","inputs":[]},{"type":"error","name":"InsufficientCollateral","inputs":[]},{"type":"error","name":"InsufficientLiquidity","inputs":[]},{"type":"error","name":"InsufficientShares","inputs":[]},{"type":"error","name":"LTVExceedMaxAmount","inputs":[]},{"type":"error","name":"PositionAlreadyCreated","inputs":[]},{"type":"error","name":"ReentrancyGuardReentrantCall","inputs":[]},{"type":"error","name":"SafeERC20FailedOperation","inputs":[{"name":"token","type":"address","internalType":"address"}]},{"type":"error","name":"TokenNotAvailable","inputs":[]},{"type":"error","name":"ZeroAmount","inputs":[]},{"type":"error","name":"amountSharesInvalid","inputs":[]}],"bytecode":{"object":"0x60803460b357601f6124c038819003918201601f19168301916001600160401b0383118484101760b75780849260809460405283398101031260b35760428160cb565b90604d6020820160cb565b606060596040840160cb565b92015160015f55600880546001600160a01b03199081166001600160a01b039687161790915560098054821693861693909317909255600a80549092169390921692909217909155600c556040516123e190816100df8239f35b5f80fd5b634e487b7160e01b5f52604160045260245ffd5b51906001600160a01b038216820360b35756fe60806040526004361015610011575f80fd5b5f5f3560e01c80630a861f2a146110a4578063136cf1f7146110875780631aad44c21461106a57806323aaf0bd14611032578063367febea14610fa25780633ea1025f14610ebb578063456dc17a14610e93578063482e17c31461087b5780634fd422df146108425780636112fe2e146105ca5780636fb49d73146105ac57806394877fc41461058e5780639ab89f4814610575578063a2f6ce75146103a4578063a6afed9514610388578063b2016bd41461035f578063ba7bde5514610341578063c45a015514610318578063c8eb935114610162578063f79c3800146101215763f9ec9f2814610101575f80fd5b3461011e578060031936011261011e576020600b54604051908152f35b80fd5b503461011e57602036600319011261011e576020906001600160a01b03610146611199565b16815260078252604060018060a01b0391205416604051908152f35b503461011e57606036600319011261011e5761017c611199565b906101856111af565b916044359261019261146d565b8315610309576008546001600160a01b0383811691168114159081610282575b506102735792602091610214946101c76113af565b33855260078452604080862054905163c8eb935160e01b81526001600160a01b03938416600482015291831660248301526044820193909352948592909116908290859082906064820190565b03925af19081156102675790610230575b602090604051908152f35b506020813d60201161025f575b8161024a60209383611210565b8101031261025b5760209051610225565b5f80fd5b3d915061023d565b604051903d90823e3d90fd5b636f4c40dd60e01b8352600483fd5b90503384526007602052602060018060a01b0360408620541691602460405180948193631e8323cd60e31b835260048301525afa9081156102fe5784916102cc575b50155f6101b2565b90506020813d6020116102f6575b816102e760209383611210565b8101031261025b57515f6102c4565b3d91506102da565b6040513d86823e3d90fd5b631f2a200560e01b8352600483fd5b503461011e578060031936011261011e57600a546040516001600160a01b039091168152602090f35b503461011e578060031936011261011e576020600254604051908152f35b503461011e578060031936011261011e576008546040516001600160a01b039091168152602090f35b503461011e578060031936011261011e576103a16113af565b80f35b503461011e57606036600319011261011e576004356103c16111af565b9060443591821592831503610571576103d861146d565b6103e0611405565b8115610562573384526006602052604084205482116105535783906104036113af565b61041b610412600354856111c5565b600454906111d8565b933383526006602052604083206104338582546111f6565b9055610441846004546111f6565b600455610450856003546111f6565b6003556009546001600160a01b03838116911614908161054b575b50156104c657505060095461048e908390309033906001600160a01b0316611494565b60405191825260208201527f0e9c67d40f53b774c8aabf55769548d5afb11c3712274cd1a5de2a872db94e7f60403392a26001815580f35b338252600760205260408220546001600160a01b0316803b1561053c57604051639d058e6760e01b8152600481018690526001600160a01b0392909216602483015282908290604490829084905af1801561054057610527575b505061048e565b8161053191611210565b61053c57825f610520565b8280fd5b6040513d84823e3d90fd5b90505f61046b565b634d13059360e11b8452600484fd5b631f2a200560e01b8452600484fd5b8380fd5b503461011e578060031936011261011e576103a16112d3565b503461011e578060031936011261011e576020600154604051908152f35b503461011e578060031936011261011e576020600c54604051908152f35b503461011e57602036600319011261011e576004356105e761146d565b6105ef611405565b8015610833576008543383526007602090815260408085205490516370a0823160e01b81526001600160a01b0391821660048201529283916024918391165afa9081156107a2578391610801575b5081116107f257600482916106506113af565b600a54604051633900820160e21b81529260209184919082906001600160a01b03165afa9182156107a25783926107b2575b50338352600760205260408320546001600160a01b0316803b156107ad576040516302bd413360e21b8152600481019290925233602483015283908290604490829084905af19081156107a257839161078a575b5050338252600660205260408220546106f2575b506001905580f35b600954600a543380855260076020908152604080872054600c54600354600454958a52600690945291882054919693956001600160a01b039182169594821694821693911691843b1561078657889661076292604051998a988997889763173478c760e11b89526004890161125a565b03915afa801561054057156106ea578161077b91611210565b61011e57805f6106ea565b8880fd5b8161079491611210565b61079f57815f6106d6565b50fd5b6040513d85823e3d90fd5b505050fd5b9091506020813d6020116107ea575b816107ce60209383611210565b810103126107e6576107df90611246565b905f610682565b5050fd5b3d91506107c1565b633a23d82560e01b8252600482fd5b90506020813d60201161082b575b8161081c60209383611210565b8101031261025b57515f61063d565b3d915061080f565b631f2a200560e01b8252600482fd5b503461011e57602036600319011261011e576020906040906001600160a01b0361086a611199565b168152600683522054604051908152f35b50606036600319011261025b57600435602435610896611405565b61089e6113af565b60045480610e785750815b335f52600660205260405f206108c0828254611203565b90556108ce81600454611203565b90816004556108df84600354611203565b908160035566038d7ea4c68000850285810466038d7ea4c680001486151715610e6457670de0b6b3a7640000900461091781876111f6565b600a54604051634673a21360e11b81529591946001600160a01b0390911691602087600481865afa968715610dd4575f97610e28575b506001548211610e1957604051633900820160e21b8152602081600481875afa908115610dd4575f91610ddf575b50600954335f90815260076020908152604080832054600c5460069093529220546001600160a01b0393841697909591948416939092169190833b1561025b575f956109df916040519889978896879663173478c760e11b88528d6004890161125a565b03915afa8015610dd457610dbf575b50468614610d975750600a546040516331d8733560e11b815290602090829060049082906001600160a01b03165afa908115610c31578891610d5d575b5060405163550325b560e01b8152600481018790526001600160a01b0391909116949093606085602481895afa948515610d2a578995610d35575b50606060249495966040519586809263550325b560e01b82524660048301525afa938415610d2a578994610cf6575b50600954604051632b0f76f560e11b8152600481018990526044803560248301529095916001600160a01b031690602090879081845afa958615610c7b578b96610cba575b50602063ffffffff6044889a604051958693849263a692979360e01b845216600483015287602483015260018060a01b03165afa918215610c7b578b92610c86575b5060405163095ea7b360e01b81526001600160a01b03871660048201526024810184905290602090829060449082908f905af18015610c7b57610c3c575b5060095460405163a334defb60e01b815260048101939093523360248401526001600160a01b039081166044840152919460209286926064928492165af18015610c3157610bfa575b600954610bb993506001600160a01b0316611423565b604051938452602084015260018060a01b0316917f1d7dcfa0c17fa67d71453b8200ba115fb055c16ed1986d966ddbb70745937f8860403392a46001815580f35b6020833d602011610c29575b81610c1360209383611210565b81010312610c2557610bb99250610ba3565b8780fd5b3d9150610c06565b6040513d8a823e3d90fd5b6020813d602011610c73575b81610c5560209383611210565b81010312610c6f57518015158103610c6f57506064610b5a565b8a80fd5b3d9150610c48565b6040513d8d823e3d90fd5b9091506020813d602011610cb2575b81610ca260209383611210565b8101031261025b5751905f610b1c565b3d9150610c95565b9095506020813d602011610cee575b81610cd660209383611210565b81010312610c6f57610ce790611246565b945f610ada565b3d9150610cc9565b610d1991945060603d606011610d23575b610d118183611210565b81019061129d565b509050925f610a95565b503d610d07565b6040513d8b823e3d90fd5b6024949550610d52606091823d8411610d2357610d118183611210565b915050959450610a66565b90506020813d602011610d8f575b81610d7860209383611210565b81010312610c2557610d8990611246565b5f610a2b565b3d9150610d6b565b93610da9610dba939489963390611423565b6009546001600160a01b0316611423565b610bb9565b610dcc9198505f90611210565b5f965f6109ee565b6040513d5f823e3d90fd5b90506020813d602011610e11575b81610dfa60209383611210565b8101031261025b57610e0b90611246565b5f61097b565b3d9150610ded565b63bb55fd2760e01b5f5260045ffd5b9096506020813d602011610e5c575b81610e4460209383611210565b8101031261025b57610e5590611246565b955f61094d565b3d9150610e37565b634e487b7160e01b5f52601160045260245ffd5b610e85610e8e91846111c5565b600354906111d8565b6108a9565b3461025b575f36600319011261025b576009546040516001600160a01b039091168152602090f35b3461025b57602036600319011261025b57600435610ed7611405565b8015610f9357610ee56113af565b60015480610f795750805b335f52600560205260405f20610f07828254611203565b9055610f1581600254611203565b600255610f2482600154611203565b600155600954610f42908390309033906001600160a01b0316611494565b60405191825260208201527fb84c7ef8bee9fe7d403a64ab2705017891a18609ce1910007c1e674b7685815e60403392a260015f55005b610f8e90610f89600254846111c5565b6111d8565b610ef0565b631f2a200560e01b5f5260045ffd5b3461025b57602036600319011261025b57600435610fbe61146d565b610fc6611405565b8015610f9357610fd46113af565b600854335f818152600760205260409020546110009284926001600160a01b0392831692909116611494565b6040519081527ffef800959f37aa70fe9073f24093b307ae5952f0e34d164a48f279f6e4bc447c60203392a260015f55005b3461025b57602036600319011261025b576001600160a01b03611053611199565b165f526005602052602060405f2054604051908152f35b3461025b575f36600319011261025b576020600354604051908152f35b3461025b575f36600319011261025b576020600454604051908152f35b3461025b57602036600319011261025b576004356110c0611405565b8015610f9357335f52600560205260405f2054811161118a576110e16113af565b6110f96110f0600154836111c5565b600254906111d8565b90335f52600560205260405f206111118282546111f6565b905561111f816002546111f6565b60025561112e826001546111f6565b8060015560035411610e195760095461115390839033906001600160a01b0316611423565b60405191825260208201527fac927268ea9ae2e55027e6ab727fc2db8e3ea48c56c658223a1074567e4298c060403392a260015f55005b633999656760e01b5f5260045ffd5b600435906001600160a01b038216820361025b57565b602435906001600160a01b038216820361025b57565b81810292918115918404141715610e6457565b81156111e2570490565b634e487b7160e01b5f52601260045260245ffd5b91908203918211610e6457565b91908201809211610e6457565b90601f8019910116810190811067ffffffffffffffff82111761123257604052565b634e487b7160e01b5f52604160045260245ffd5b51906001600160a01b038216820361025b57565b6001600160a01b039182168152918116602083015290911660408201526060810191909152608081019190915260a081019190915260c081019190915260e00190565b9081606091031261025b576112b181611246565b9160406112c060208401611246565b92015163ffffffff8116810361025b5790565b335f908152600760205260409020546001600160a01b03166113a057600854600954600a54604051926001600160a01b0390811692610e7d9283860192908116911667ffffffffffffffff83118684101761123257608094869461152f86398352602083015230604083015260608201520301905ff08015610dd457335f81815260076020526040812080546001600160a01b0319166001600160a01b039490941693841790557fcc3763c1c0784da97ef19dc776e12897dc1cfba3c2cab71b208490e993ba56949080a3565b6303c11e6760e21b5f5260045ffd5b600354600a810290808204600a1481151715610e64576301e133806113e66113fc9360646113df600b54426111f6565b91046111c5565b04906113f482600154611203565b600155611203565b60035542600b55565b60025f54146114145760025f55565b633ee5aeb560e01b5f5260045ffd5b60405163a9059cbb60e01b60208201526001600160a01b039092166024830152604482019290925261146b9161146682606481015b03601f198101845283611210565b6114d6565b565b335f908152600760205260409020546001600160a01b03161561148c57565b61146b6112d3565b6040516323b872dd60e01b60208201526001600160a01b039283166024820152929091166044830152606482019290925261146b916114668260848101611458565b905f602091828151910182855af115610dd4575f513d61152557506001600160a01b0381163b155b6115055750565b635274afe760e01b5f9081526001600160a01b0391909116600452602490fd5b600114156114fe56fe60803461012d57601f610e7d38819003918201601f19168301916001600160401b038311848410176101315780849260809460405283398101031261012d5761004781610145565b61005360208301610145565b9161006c606061006560408401610145565b9201610145565b60015f81905580546001600160a01b03199081166001600160a01b03958616908117909255600280548216968616969096179095556004805486169385169390931790925560058054851693909116929092179091556003805490921633179091556006545f19811461011957600101806006555f52600760205260405f208160018060a01b0319825416179055600654905f52600860205260405f2055604051610d23908161015a8239f35b634e487b7160e01b5f52601160045260245ffd5b5f80fd5b634e487b7160e01b5f52604160045260245ffd5b51906001600160a01b038216820361012d5756fe60806040526004361015610011575f80fd5b5f3560e01c80630af504cc146106565780631cb928a914610624578063513f7d1e1461042257806361bc221a146104055780636525f1ac146103dd5780638da5cb5b146103b55780639b4dc8cc1461038d5780639d058e67146101c3578063c45a01551461019b578063c8eb93511461016c578063cc0d55bf14610144578063dd9103cb146100e45763f4191e68146100a8575f80fd5b346100e05760203660031901126100e0576001600160a01b036100c96106e6565b165f526008602052602060405f2054604051908152f35b5f80fd5b346100e05760a03660031901126100e0576100fd6106e6565b6101056106d0565b6064356001600160a01b03811681036100e057608435906001600160a01b03821682036100e05760209361013c9360443591610a62565b604051908152f35b346100e0575f3660031901126100e0576001546040516001600160a01b039091168152602090f35b346100e05760603660031901126100e057602061013c61018a6106e6565b6101926106d0565b60443591610802565b346100e0575f3660031901126100e0576005546040516001600160a01b039091168152602090f35b346100e05760403660031901126100e0576004356101df6106d0565b6004546001600160a01b0316903382900361037e576040516370a0823160e01b81523060048201526001600160a01b03821692602082602481875afa918215610330575f9261034a575b506002546001600160a01b031684811461033b57505060025461029c91602091869161025e916001600160a01b031686610802565b6004805460405163095ea7b360e01b81526001600160a01b0390911691810191909152602481019290925294909283919082905f9082906044820190565b03925af18015610330576102f9575b506002546004546102ca9185916001600160a01b039081169116610bf9565b6102d483836107f5565b6102db575b005b6102f36102d99360018060a01b0360025416936107f5565b91610802565b6020813d602011610328575b81610312602093836106fc565b810103126100e0575180151581146102ab575f80fd5b3d9150610305565b6040513d5f823e3d90fd5b915091506102d9939250610bf9565b9091506020813d602011610376575b81610366602093836106fc565b810103126100e057519085610229565b3d9150610359565b633e615ac360e11b5f5260045ffd5b346100e0575f3660031901126100e0576004546040516001600160a01b039091168152602090f35b346100e0575f3660031901126100e0576003546040516001600160a01b039091168152602090f35b346100e0575f3660031901126100e0576002546040516001600160a01b039091168152602090f35b346100e0575f3660031901126100e0576020600654604051908152f35b346100e05760203660031901126100e0576001600160a01b036104436106e6565b166040516370a0823160e01b8152306004820152602081602481855afa908115610330575f916105f2575b5060405163313ce56760e01b8152602081600481865afa908115610330575f916105c3575b50600554604051630ea199ad60e11b81526004810194909452602090849060249082906001600160a01b03165afa9283156103305760049360a0915f91610594575b50604051633fabe5a360e21b815294859182905f196001861b01165afa928315610330575f9361055e575b50670de0b6b3a7640000830292808404670de0b6b3a7640000149015171561054a5761054460ff61053d61013c946305f5e10060209704906107b6565b92166107e7565b906107c9565b634e487b7160e01b5f52601160045260245ffd5b61058191935060a03d60a01161058d575b61057981836106fc565b810190610781565b50505090509183610500565b503d61056f565b6105b6915060203d6020116105bc575b6105ae81836106fc565b81019061074b565b856104d5565b503d6105a4565b6105e5915060203d6020116105eb575b6105dd81836106fc565b810190610732565b83610493565b503d6105d3565b90506020813d60201161061c575b8161060d602093836106fc565b810103126100e057518261046e565b3d9150610600565b346100e05760203660031901126100e0576004355f526007602052602060018060a01b0360405f205416604051908152f35b346100e05760403660031901126100e0576004356106726106d0565b6004546001600160a01b0316330361037e576020816106bd847fa8e76b822fc682be77f3b1c822ea81f6bda5aed92ba82e6873bfd889f328d1d29460018060a01b0360015416610bf9565b6040519384526001600160a01b031692a2005b602435906001600160a01b03821682036100e057565b600435906001600160a01b03821682036100e057565b90601f8019910116810190811067ffffffffffffffff82111761071e57604052565b634e487b7160e01b5f52604160045260245ffd5b908160209103126100e0575160ff811681036100e05790565b908160209103126100e057516001600160a01b03811681036100e05790565b519069ffffffffffffffffffff821682036100e057565b908160a09103126100e0576107958161076a565b916020820151916040810151916107b360806060840151930161076a565b90565b8181029291811591840414171561054a57565b81156107d3570490565b634e487b7160e01b5f52601260045260245ffd5b604d811161054a57600a0a90565b9190820391821161054a57565b90915f9261080f83610c88565b61081881610c88565b6040516370a0823160e01b81523060048201526001600160a01b0384169390602081602481885afa908115610330575f91610a30575b506004546001600160a01b0316330361037e578315610a21578311610a1257600554604051630ea199ad60e11b8152600481018690526001600160a01b039091169290602081602481875afa908115610330575f916109f3575b50604051630ea199ad60e11b81526001600160a01b0383166004820181905294602090829060249082905afa928315610330576108ee9487925f956109d2575b50610a62565b93833b156100e057604051635071a0d760e11b8152600481018490525f8160248183895af18015610330576109bf575b50813b156109b157604051632919515160e01b815230600482015260248101869052818160448183875af180156109b45761099c575b50509160a0917fc665f2f5768a61c064dd66125ac01f65d2f20d35ebb13a292211bf50619d753e9360405192338452602084015260408301526060820152836080820152a190565b6109a78280926106fc565b6109b15780610954565b80fd5b6040513d84823e3d90fd5b6109cb91505f906106fc565b5f5f61091e565b6109ec91955060203d6020116105bc576105ae81836106fc565b935f6108e8565b610a0c915060203d6020116105bc576105ae81836106fc565b5f6108a8565b631e9acf1760e31b5f5260045ffd5b631f2a200560e01b5f5260045ffd5b90506020813d602011610a5a575b81610a4b602093836106fc565b810103126100e057515f61084e565b3d9150610a3e565b60405163313ce56760e01b8152949193929190602090869060049082906001600160a01b03165afa938415610330576004955f95610bd7575b5060405163313ce56760e01b81529560209187919082906001600160a01b03165afa928315610330576004955f94610bb3575b50604051633fabe5a360e21b81529560a09187919082906001600160a01b03165afa908115610330576004955f92610b8c575b50604051633fabe5a360e21b81529560a09187919082906001600160a01b03165afa91821561033057610b536105449460ff9461053d946107b3995f92610b5e575b50610b5387610b599394166107e7565b906107b6565b6107c9565b610b59925087610b7f610b539260a03d60a01161058d5761057981836106fc565b5050509050935050610b43565b60a0919250610ba790823d841161058d5761057981836106fc565b50505090509190610b01565b60a0919450610bd09060203d6020116105eb576105dd81836106fc565b9390610ace565b6020919550610bf290823d84116105eb576105dd81836106fc565b9490610a9b565b60405163a9059cbb60e01b60208083019182526001600160a01b0394909416602483015260448083019590955293815290925f91610c386064826106fc565b519082855af115610330575f513d610c7f57506001600160a01b0381163b155b610c5f5750565b635274afe760e01b5f9081526001600160a01b0391909116600452602490fd5b60011415610c58565b6001600160a01b03165f8181526008602052604090205415610ca75750565b6006545f19811461054a57600101806006555f52600760205260405f20816bffffffffffffffffffffffff60a01b825416179055600654905f52600860205260405f205556fea26469706673582212201e38e136244e7d93cc9e14cfba20b94f365e304f6f7c9c26fa6758288ace717f64736f6c634300081c0033a26469706673582212208c5755cfa930121b57f1db605dc0125d30f60195c748b91c53f31bd39802cea664736f6c634300081c0033","linkReferences":{}},"methodIdentifiers":{"accrueInterest()":"a6afed95","addressPositions(address)":"f79c3800","borrowDebt(uint256,uint256,uint256)":"482e17c3","borrowToken()":"456dc17a","collateralToken()":"b2016bd4","createPosition()":"9ab89f48","factory()":"c45a0155","lastAccrued()":"f9ec9f28","ltv()":"6fb49d73","repayWithSelectedToken(uint256,address,bool)":"a2f6ce75","supplyCollateral(uint256)":"367febea","supplyLiquidity(uint256)":"3ea1025f","swapTokenByPosition(address,address,uint256)":"c8eb9351","totalBorrowAssets()":"1aad44c2","totalBorrowShares()":"136cf1f7","totalSupplyAssets()":"94877fc4","totalSupplyShares()":"ba7bde55","userBorrowShares(address)":"4fd422df","userSupplyShares(address)":"23aaf0bd","withdrawCollateral(uint256)":"6112fe2e","withdrawLiquidity(uint256)":"0a861f2a"},"id":60}