{"abi":[{"type":"constructor","inputs":[{"name":"_isHealthy","type":"address","internalType":"address"},{"name":"_lendingPoolDeployer","type":"address","internalType":"address"},{"name":"_protocol","type":"address","internalType":"address"},{"name":"_helper","type":"address","internalType":"address"}],"stateMutability":"nonpayable"},{"type":"function","name":"addTokenDataStream","inputs":[{"name":"_token","type":"address","internalType":"address"},{"name":"_dataStream","type":"address","internalType":"address"}],"outputs":[],"stateMutability":"nonpayable"},{"type":"function","name":"basicTokenSender","inputs":[{"name":"","type":"uint256","internalType":"uint256"}],"outputs":[{"name":"","type":"address","internalType":"address"}],"stateMutability":"view"},{"type":"function","name":"createLendingPool","inputs":[{"name":"collateralToken","type":"address","internalType":"address"},{"name":"borrowToken","type":"address","internalType":"address"},{"name":"ltv","type":"uint256","internalType":"uint256"}],"outputs":[{"name":"","type":"address","internalType":"address"}],"stateMutability":"nonpayable"},{"type":"function","name":"helper","inputs":[],"outputs":[{"name":"","type":"address","internalType":"address"}],"stateMutability":"view"},{"type":"function","name":"isHealthy","inputs":[],"outputs":[{"name":"","type":"address","internalType":"address"}],"stateMutability":"view"},{"type":"function","name":"lendingPoolDeployer","inputs":[],"outputs":[{"name":"","type":"address","internalType":"address"}],"stateMutability":"view"},{"type":"function","name":"owner","inputs":[],"outputs":[{"name":"","type":"address","internalType":"address"}],"stateMutability":"view"},{"type":"function","name":"poolCount","inputs":[],"outputs":[{"name":"","type":"uint256","internalType":"uint256"}],"stateMutability":"view"},{"type":"function","name":"pools","inputs":[{"name":"","type":"uint256","internalType":"uint256"}],"outputs":[{"name":"collateralToken","type":"address","internalType":"address"},{"name":"borrowToken","type":"address","internalType":"address"},{"name":"lendingPoolAddress","type":"address","internalType":"address"}],"stateMutability":"view"},{"type":"function","name":"protocol","inputs":[],"outputs":[{"name":"","type":"address","internalType":"address"}],"stateMutability":"view"},{"type":"function","name":"tokenDataStream","inputs":[{"name":"","type":"address","internalType":"address"}],"outputs":[{"name":"","type":"address","internalType":"address"}],"stateMutability":"view"},{"type":"event","name":"BasicTokenSenderAdded","inputs":[{"name":"chainId","type":"uint256","indexed":true,"internalType":"uint256"},{"name":"basicTokenSender","type":"address","indexed":true,"internalType":"address"}],"anonymous":false},{"type":"event","name":"LendingPoolCreated","inputs":[{"name":"collateralToken","type":"address","indexed":true,"internalType":"address"},{"name":"borrowToken","type":"address","indexed":true,"internalType":"address"},{"name":"lendingPool","type":"address","indexed":false,"internalType":"address"},{"name":"ltv","type":"uint256","indexed":false,"internalType":"uint256"}],"anonymous":false},{"type":"event","name":"TokenDataStreamAdded","inputs":[{"name":"token","type":"address","indexed":true,"internalType":"address"},{"name":"dataStream","type":"address","indexed":true,"internalType":"address"}],"anonymous":false}],"bytecode":{"object":"0x6080346100d157601f6106bf38819003918201601f19168301916001600160401b038311848410176100d5578084926080946040528339810103126100d157610047816100e9565b90610054602082016100e9565b61006c6060610065604085016100e9565b93016100e9565b5f80546001600160a01b031990811633179091556001805482166001600160a01b03968716179055600280548216938616939093179092556003805483169385169390931790925560048054909116919092161790556040516105c190816100fe8239f35b5f80fd5b634e487b7160e01b5f52604160045260245ffd5b51906001600160a01b03821682036100d15756fe6080806040526004361015610012575f80fd5b5f3560e01c9081631d43335a146104f0575080634083f248146104be57806342e681d81461049657806363b0e66a1461046e578063802de8441461025e5780638ce74426146102365780638da5cb5b1461020f578063ac4afa38146101b7578063e18487ca146100de578063e4020804146100b65763f525cb6814610095575f80fd5b346100b2575f3660031901126100b2576020600854604051908152f35b5f80fd5b346100b2575f3660031901126100b2576001546040516001600160a01b039091168152602090f35b346100b25760403660031901126100b2576100f761052f565b6100ff610545565b5f549091906001600160a01b03163303610168576001600160a01b039081165f81815260066020526040812080546001600160a01b03191694909316938417909255907fc5f200bc64f9d16d888ec9eaec566ef2155fab997cb7210a15722b06e32a3c709080a3005b60405162461bcd60e51b815260206004820152602160248201527f4f6e6c79206f776e65722063616e2063616c6c20746869732066756e6374696f6044820152603760f91b6064820152608490fd5b346100b25760203660031901126100b2576004356007548110156100b2576101e060609161055b565b5080546001820154600290920154604080516001600160a01b0393841681529383166020850152911690820152f35b346100b2575f3660031901126100b2575f546040516001600160a01b039091168152602090f35b346100b2575f3660031901126100b2576003546040516001600160a01b039091168152602090f35b346100b25760603660031901126100b25761027761052f565b5f610280610545565b60025460405163d2e24b8760e01b81526001600160a01b0394851660048201819052928516602482018190526044803590830181905295919490939260209286926064928492165af1928315610463575f93610409575b506040516060810181811067ffffffffffffffff8211176103f5576040528181526020810190838252604081019460018060a01b031694858152600754680100000000000000008110156103f557806001610335920160075561055b565b9390936103e257915183546001600160a01b03199081166001600160a01b0392831617855592516001850180548516918316919091179055905160029390930180549092169216919091179055600854935f1985146103ce5760407f96002a27cd438afd06fa237c8247c8c03b0c94c7d214d44fc735abd710bcc8c09160016020970160085581519086825287820152a3604051908152f35b634e487b7160e01b5f52601160045260245ffd5b634e487b7160e01b5f525f60045260245ffd5b634e487b7160e01b5f52604160045260245ffd5b90925060203d60201161045c575b601f8101601f1916820167ffffffffffffffff8111838210176103f5576020918391604052810103126100b257516001600160a01b03811681036100b25791846102d7565b503d610417565b6040513d5f823e3d90fd5b346100b2575f3660031901126100b2576004546040516001600160a01b039091168152602090f35b346100b2575f3660031901126100b2576002546040516001600160a01b039091168152602090f35b346100b25760203660031901126100b2576004355f526005602052602060018060a01b0360405f205416604051908152f35b346100b25760203660031901126100b2576020906001600160a01b0361051461052f565b165f9081526006835260409020546001600160a01b03168152f35b600435906001600160a01b03821682036100b257565b602435906001600160a01b03821682036100b257565b6007548110156105775760075f52600360205f20910201905f90565b634e487b7160e01b5f52603260045260245ffdfea2646970667358221220d04d91e55c45a1b81489987d78bdb8b29a04d08872399d0fe4cdbdb7bc838b7a64736f6c634300081c0033","linkReferences":{}},"methodIdentifiers":{"addTokenDataStream(address,address)":"e18487ca","basicTokenSender(uint256)":"4083f248","createLendingPool(address,address,uint256)":"802de844","helper()":"63b0e66a","isHealthy()":"e4020804","lendingPoolDeployer()":"42e681d8","owner()":"8da5cb5b","poolCount()":"f525cb68","pools(uint256)":"ac4afa38","protocol()":"8ce74426","tokenDataStream(address)":"1d43335a"},"id":60}