{"abi":[{"type":"constructor","inputs":[{"name":"_isHealthy","type":"address","internalType":"address"},{"name":"_lendingPoolDeployer","type":"address","internalType":"address"},{"name":"_protocol","type":"address","internalType":"address"},{"name":"_helper","type":"address","internalType":"address"}],"stateMutability":"nonpayable"},{"type":"function","name":"addTokenDataStream","inputs":[{"name":"_token","type":"address","internalType":"address"},{"name":"_dataStream","type":"address","internalType":"address"}],"outputs":[],"stateMutability":"nonpayable"},{"type":"function","name":"basicTokenSender","inputs":[{"name":"","type":"uint256","internalType":"uint256"}],"outputs":[{"name":"","type":"address","internalType":"address"}],"stateMutability":"view"},{"type":"function","name":"createLendingPool","inputs":[{"name":"collateralToken","type":"address","internalType":"address"},{"name":"borrowToken","type":"address","internalType":"address"},{"name":"ltv","type":"uint256","internalType":"uint256"}],"outputs":[{"name":"","type":"address","internalType":"address"}],"stateMutability":"nonpayable"},{"type":"function","name":"helper","inputs":[],"outputs":[{"name":"","type":"address","internalType":"address"}],"stateMutability":"view"},{"type":"function","name":"isHealthy","inputs":[],"outputs":[{"name":"","type":"address","internalType":"address"}],"stateMutability":"view"},{"type":"function","name":"lendingPoolDeployer","inputs":[],"outputs":[{"name":"","type":"address","internalType":"address"}],"stateMutability":"view"},{"type":"function","name":"owner","inputs":[],"outputs":[{"name":"","type":"address","internalType":"address"}],"stateMutability":"view"},{"type":"function","name":"poolCount","inputs":[],"outputs":[{"name":"","type":"uint256","internalType":"uint256"}],"stateMutability":"view"},{"type":"function","name":"pools","inputs":[{"name":"","type":"uint256","internalType":"uint256"}],"outputs":[{"name":"collateralToken","type":"address","internalType":"address"},{"name":"borrowToken","type":"address","internalType":"address"},{"name":"lendingPoolAddress","type":"address","internalType":"address"}],"stateMutability":"view"},{"type":"function","name":"protocol","inputs":[],"outputs":[{"name":"","type":"address","internalType":"address"}],"stateMutability":"view"},{"type":"function","name":"tokenDataStream","inputs":[{"name":"","type":"address","internalType":"address"}],"outputs":[{"name":"","type":"address","internalType":"address"}],"stateMutability":"view"},{"type":"function","name":"updateHelper","inputs":[{"name":"_helper","type":"address","internalType":"address"}],"outputs":[],"stateMutability":"nonpayable"},{"type":"event","name":"BasicTokenSenderAdded","inputs":[{"name":"chainId","type":"uint256","indexed":true,"internalType":"uint256"},{"name":"basicTokenSender","type":"address","indexed":true,"internalType":"address"}],"anonymous":false},{"type":"event","name":"LendingPoolCreated","inputs":[{"name":"collateralToken","type":"address","indexed":true,"internalType":"address"},{"name":"borrowToken","type":"address","indexed":true,"internalType":"address"},{"name":"lendingPool","type":"address","indexed":false,"internalType":"address"},{"name":"ltv","type":"uint256","indexed":false,"internalType":"uint256"}],"anonymous":false},{"type":"event","name":"TokenDataStreamAdded","inputs":[{"name":"token","type":"address","indexed":true,"internalType":"address"},{"name":"dataStream","type":"address","indexed":true,"internalType":"address"}],"anonymous":false}],"bytecode":{"object":"0x6080346100d157601f61071538819003918201601f19168301916001600160401b038311848410176100d5578084926080946040528339810103126100d157610047816100e9565b90610054602082016100e9565b61006c6060610065604085016100e9565b93016100e9565b5f80546001600160a01b031990811633179091556001805482166001600160a01b039687161790556002805482169386169390931790925560038054831693851693909317909255600480549091169190921617905560405161061790816100fe8239f35b5f80fd5b634e487b7160e01b5f52604160045260245ffd5b51906001600160a01b03821682036100d15756fe6080806040526004361015610012575f80fd5b5f3560e01c9081631d43335a146104e4575080634083f248146104b257806342e681d81461048a57806363b0e66a14610462578063802de844146102525780638bcc41661461020f5780638ce74426146101e75780638da5cb5b146101c0578063ac4afa3814610168578063e18487ca146100e9578063e4020804146100c15763f525cb68146100a0575f80fd5b346100bd575f3660031901126100bd576020600854604051908152f35b5f80fd5b346100bd575f3660031901126100bd576001546040516001600160a01b039091168152602090f35b346100bd5760403660031901126100bd57610102610523565b61010a610539565b9061011361057f565b6001600160a01b039081165f81815260066020526040812080546001600160a01b03191694909316938417909255907fc5f200bc64f9d16d888ec9eaec566ef2155fab997cb7210a15722b06e32a3c709080a3005b346100bd5760203660031901126100bd576004356007548110156100bd5761019160609161054f565b5080546001820154600290920154604080516001600160a01b0393841681529383166020850152911690820152f35b346100bd575f3660031901126100bd575f546040516001600160a01b039091168152602090f35b346100bd575f3660031901126100bd576003546040516001600160a01b039091168152602090f35b346100bd5760203660031901126100bd57610228610523565b61023061057f565b600480546001600160a01b0319166001600160a01b0392909216919091179055005b346100bd5760603660031901126100bd5761026b610523565b5f610274610539565b60025460405163d2e24b8760e01b81526001600160a01b0394851660048201819052928516602482018190526044803590830181905295919490939260209286926064928492165af1928315610457575f936103fd575b506040516060810181811067ffffffffffffffff8211176103e9576040528181526020810190838252604081019460018060a01b031694858152600754680100000000000000008110156103e957806001610329920160075561054f565b9390936103d657915183546001600160a01b03199081166001600160a01b0392831617855592516001850180548516918316919091179055905160029390930180549092169216919091179055600854935f1985146103c25760407f96002a27cd438afd06fa237c8247c8c03b0c94c7d214d44fc735abd710bcc8c09160016020970160085581519086825287820152a3604051908152f35b634e487b7160e01b5f52601160045260245ffd5b634e487b7160e01b5f525f60045260245ffd5b634e487b7160e01b5f52604160045260245ffd5b90925060203d602011610450575b601f8101601f1916820167ffffffffffffffff8111838210176103e9576020918391604052810103126100bd57516001600160a01b03811681036100bd5791846102cb565b503d61040b565b6040513d5f823e3d90fd5b346100bd575f3660031901126100bd576004546040516001600160a01b039091168152602090f35b346100bd575f3660031901126100bd576002546040516001600160a01b039091168152602090f35b346100bd5760203660031901126100bd576004355f526005602052602060018060a01b0360405f205416604051908152f35b346100bd5760203660031901126100bd576020906001600160a01b03610508610523565b165f9081526006835260409020546001600160a01b03168152f35b600435906001600160a01b03821682036100bd57565b602435906001600160a01b03821682036100bd57565b60075481101561056b5760075f52600360205f20910201905f90565b634e487b7160e01b5f52603260045260245ffd5b5f546001600160a01b0316330361059257565b60405162461bcd60e51b815260206004820152602160248201527f4f6e6c79206f776e65722063616e2063616c6c20746869732066756e6374696f6044820152603760f91b6064820152608490fdfea2646970667358221220613e53164cefab20e36111d25893826f071f451beaeef500ef017a81b7c5152c64736f6c634300081c0033","linkReferences":{}},"methodIdentifiers":{"addTokenDataStream(address,address)":"e18487ca","basicTokenSender(uint256)":"4083f248","createLendingPool(address,address,uint256)":"802de844","helper()":"63b0e66a","isHealthy()":"e4020804","lendingPoolDeployer()":"42e681d8","owner()":"8da5cb5b","poolCount()":"f525cb68","pools(uint256)":"ac4afa38","protocol()":"8ce74426","tokenDataStream(address)":"1d43335a","updateHelper(address)":"8bcc4166"},"id":37}