{"abi":[{"type":"constructor","inputs":[{"name":"_helperTestnet","type":"address","internalType":"address"}],"stateMutability":"nonpayable"},{"type":"function","name":"acceptOwnership","inputs":[],"outputs":[],"stateMutability":"nonpayable"},{"type":"function","name":"addBridgeTokenSender","inputs":[{"name":"_bridgeTokenSender","type":"address","internalType":"address"}],"outputs":[],"stateMutability":"nonpayable"},{"type":"function","name":"allowance","inputs":[{"name":"owner","type":"address","internalType":"address"},{"name":"spender","type":"address","internalType":"address"}],"outputs":[{"name":"","type":"uint256","internalType":"uint256"}],"stateMutability":"view"},{"type":"function","name":"approve","inputs":[{"name":"spender","type":"address","internalType":"address"},{"name":"amount","type":"uint256","internalType":"uint256"}],"outputs":[{"name":"","type":"bool","internalType":"bool"}],"stateMutability":"nonpayable"},{"type":"function","name":"balanceOf","inputs":[{"name":"account","type":"address","internalType":"address"}],"outputs":[{"name":"","type":"uint256","internalType":"uint256"}],"stateMutability":"view"},{"type":"function","name":"bridgeTokenSenders","inputs":[{"name":"","type":"uint256","internalType":"uint256"},{"name":"","type":"uint256","internalType":"uint256"}],"outputs":[{"name":"","type":"address","internalType":"address"}],"stateMutability":"view"},{"type":"function","name":"burn","inputs":[{"name":"amount","type":"uint256","internalType":"uint256"}],"outputs":[],"stateMutability":"nonpayable"},{"type":"function","name":"burn","inputs":[{"name":"account","type":"address","internalType":"address"},{"name":"amount","type":"uint256","internalType":"uint256"}],"outputs":[],"stateMutability":"nonpayable"},{"type":"function","name":"burnFrom","inputs":[{"name":"account","type":"address","internalType":"address"},{"name":"amount","type":"uint256","internalType":"uint256"}],"outputs":[],"stateMutability":"nonpayable"},{"type":"function","name":"burnMock","inputs":[{"name":"amount","type":"uint256","internalType":"uint256"}],"outputs":[],"stateMutability":"nonpayable"},{"type":"function","name":"decimals","inputs":[],"outputs":[{"name":"","type":"uint8","internalType":"uint8"}],"stateMutability":"view"},{"type":"function","name":"decreaseAllowance","inputs":[{"name":"spender","type":"address","internalType":"address"},{"name":"subtractedValue","type":"uint256","internalType":"uint256"}],"outputs":[{"name":"","type":"bool","internalType":"bool"}],"stateMutability":"nonpayable"},{"type":"function","name":"decreaseApproval","inputs":[{"name":"spender","type":"address","internalType":"address"},{"name":"subtractedValue","type":"uint256","internalType":"uint256"}],"outputs":[{"name":"success","type":"bool","internalType":"bool"}],"stateMutability":"nonpayable"},{"type":"function","name":"getBridgeTokenSendersLength","inputs":[{"name":"_chainId","type":"uint256","internalType":"uint256"}],"outputs":[{"name":"","type":"uint256","internalType":"uint256"}],"stateMutability":"view"},{"type":"function","name":"getBurners","inputs":[],"outputs":[{"name":"","type":"address[]","internalType":"address[]"}],"stateMutability":"view"},{"type":"function","name":"getCCIPAdmin","inputs":[],"outputs":[{"name":"","type":"address","internalType":"address"}],"stateMutability":"view"},{"type":"function","name":"getMinters","inputs":[],"outputs":[{"name":"","type":"address[]","internalType":"address[]"}],"stateMutability":"view"},{"type":"function","name":"grantBurnRole","inputs":[{"name":"burner","type":"address","internalType":"address"}],"outputs":[],"stateMutability":"nonpayable"},{"type":"function","name":"grantMintAndBurnRoles","inputs":[{"name":"burnAndMinter","type":"address","internalType":"address"}],"outputs":[],"stateMutability":"nonpayable"},{"type":"function","name":"grantMintRole","inputs":[{"name":"minter","type":"address","internalType":"address"}],"outputs":[],"stateMutability":"nonpayable"},{"type":"function","name":"helperTestnet","inputs":[],"outputs":[{"name":"","type":"address","internalType":"address"}],"stateMutability":"view"},{"type":"function","name":"increaseAllowance","inputs":[{"name":"spender","type":"address","internalType":"address"},{"name":"addedValue","type":"uint256","internalType":"uint256"}],"outputs":[{"name":"","type":"bool","internalType":"bool"}],"stateMutability":"nonpayable"},{"type":"function","name":"increaseApproval","inputs":[{"name":"spender","type":"address","internalType":"address"},{"name":"addedValue","type":"uint256","internalType":"uint256"}],"outputs":[],"stateMutability":"nonpayable"},{"type":"function","name":"isBurner","inputs":[{"name":"burner","type":"address","internalType":"address"}],"outputs":[{"name":"","type":"bool","internalType":"bool"}],"stateMutability":"view"},{"type":"function","name":"isMinter","inputs":[{"name":"minter","type":"address","internalType":"address"}],"outputs":[{"name":"","type":"bool","internalType":"bool"}],"stateMutability":"view"},{"type":"function","name":"maxSupply","inputs":[],"outputs":[{"name":"","type":"uint256","internalType":"uint256"}],"stateMutability":"view"},{"type":"function","name":"mint","inputs":[{"name":"account","type":"address","internalType":"address"},{"name":"amount","type":"uint256","internalType":"uint256"}],"outputs":[],"stateMutability":"nonpayable"},{"type":"function","name":"mintMock","inputs":[{"name":"to","type":"address","internalType":"address"},{"name":"amount","type":"uint256","internalType":"uint256"}],"outputs":[],"stateMutability":"nonpayable"},{"type":"function","name":"name","inputs":[],"outputs":[{"name":"","type":"string","internalType":"string"}],"stateMutability":"view"},{"type":"function","name":"owner","inputs":[],"outputs":[{"name":"","type":"address","internalType":"address"}],"stateMutability":"view"},{"type":"function","name":"revokeBurnRole","inputs":[{"name":"burner","type":"address","internalType":"address"}],"outputs":[],"stateMutability":"nonpayable"},{"type":"function","name":"revokeMintRole","inputs":[{"name":"minter","type":"address","internalType":"address"}],"outputs":[],"stateMutability":"nonpayable"},{"type":"function","name":"supportsInterface","inputs":[{"name":"interfaceId","type":"bytes4","internalType":"bytes4"}],"outputs":[{"name":"","type":"bool","internalType":"bool"}],"stateMutability":"pure"},{"type":"function","name":"symbol","inputs":[],"outputs":[{"name":"","type":"string","internalType":"string"}],"stateMutability":"view"},{"type":"function","name":"totalSupply","inputs":[],"outputs":[{"name":"","type":"uint256","internalType":"uint256"}],"stateMutability":"view"},{"type":"function","name":"transfer","inputs":[{"name":"to","type":"address","internalType":"address"},{"name":"amount","type":"uint256","internalType":"uint256"}],"outputs":[{"name":"","type":"bool","internalType":"bool"}],"stateMutability":"nonpayable"},{"type":"function","name":"transferAndCall","inputs":[{"name":"to","type":"address","internalType":"address"},{"name":"amount","type":"uint256","internalType":"uint256"},{"name":"data","type":"bytes","internalType":"bytes"}],"outputs":[{"name":"success","type":"bool","internalType":"bool"}],"stateMutability":"nonpayable"},{"type":"function","name":"transferFrom","inputs":[{"name":"from","type":"address","internalType":"address"},{"name":"to","type":"address","internalType":"address"},{"name":"amount","type":"uint256","internalType":"uint256"}],"outputs":[{"name":"","type":"bool","internalType":"bool"}],"stateMutability":"nonpayable"},{"type":"function","name":"transferOwnership","inputs":[{"name":"to","type":"address","internalType":"address"}],"outputs":[],"stateMutability":"nonpayable"},{"type":"event","name":"Approval","inputs":[{"name":"owner","type":"address","indexed":true,"internalType":"address"},{"name":"spender","type":"address","indexed":true,"internalType":"address"},{"name":"value","type":"uint256","indexed":false,"internalType":"uint256"}],"anonymous":false},{"type":"event","name":"BridgeTokenSenderAdded","inputs":[{"name":"bridgeTokenSender","type":"address","indexed":true,"internalType":"address"},{"name":"chainId","type":"uint256","indexed":true,"internalType":"uint256"}],"anonymous":false},{"type":"event","name":"BurnAccessGranted","inputs":[{"name":"burner","type":"address","indexed":true,"internalType":"address"}],"anonymous":false},{"type":"event","name":"BurnAccessRevoked","inputs":[{"name":"burner","type":"address","indexed":true,"internalType":"address"}],"anonymous":false},{"type":"event","name":"MintAccessGranted","inputs":[{"name":"minter","type":"address","indexed":true,"internalType":"address"}],"anonymous":false},{"type":"event","name":"MintAccessRevoked","inputs":[{"name":"minter","type":"address","indexed":true,"internalType":"address"}],"anonymous":false},{"type":"event","name":"OwnershipTransferRequested","inputs":[{"name":"from","type":"address","indexed":true,"internalType":"address"},{"name":"to","type":"address","indexed":true,"internalType":"address"}],"anonymous":false},{"type":"event","name":"OwnershipTransferred","inputs":[{"name":"from","type":"address","indexed":true,"internalType":"address"},{"name":"to","type":"address","indexed":true,"internalType":"address"}],"anonymous":false},{"type":"event","name":"Transfer","inputs":[{"name":"from","type":"address","indexed":true,"internalType":"address"},{"name":"to","type":"address","indexed":true,"internalType":"address"},{"name":"value","type":"uint256","indexed":false,"internalType":"uint256"},{"name":"data","type":"bytes","indexed":false,"internalType":"bytes"}],"anonymous":false},{"type":"event","name":"Transfer","inputs":[{"name":"from","type":"address","indexed":true,"internalType":"address"},{"name":"to","type":"address","indexed":true,"internalType":"address"},{"name":"value","type":"uint256","indexed":false,"internalType":"uint256"}],"anonymous":false},{"type":"error","name":"InvalidChainId","inputs":[]},{"type":"error","name":"MaxSupplyExceeded","inputs":[{"name":"supplyAfterMint","type":"uint256","internalType":"uint256"}]},{"type":"error","name":"SenderNotBurner","inputs":[{"name":"sender","type":"address","internalType":"address"}]},{"type":"error","name":"SenderNotMinter","inputs":[{"name":"sender","type":"address","internalType":"address"}]}],"bytecode":{"object":"0x60c0604052346103b957611ed06020813803918261001c816103bd565b9384928339810103126103b957516001600160a01b038116908190036103b95761004660406103bd565b90600a8252692aa9a2102a32ba3432b960b11b602083015261006860406103bd565b60048152631554d11560e21b602082015282519091906001600160401b0381116102ca57600354600181811c911680156103af575b60208210146102ac57601f811161034c575b506020601f82116001146102e957819293945f926102de575b50508160011b915f199060031b1c1916176003555b81516001600160401b0381116102ca57600454600181811c911680156102c0575b60208210146102ac57601f8111610249575b50602092601f82116001146101e857928192935f926101dd575b50508160011b915f199060031b1c1916176004555b331561019857600580546001600160a01b0319908116331790915560066080525f60a052600b8054909116919091179055604051611aed90816103e3823960805181610dff015260a0518181816103810152610bd70152f35b60405162461bcd60e51b815260206004820152601860248201527f43616e6e6f7420736574206f776e657220746f207a65726f00000000000000006044820152606490fd5b015190505f8061012a565b601f1982169360045f52805f20915f5b8681106102315750836001959610610219575b505050811b0160045561013f565b01515f1960f88460031b161c191690555f808061020b565b919260206001819286850151815501940192016101f8565b60045f527f8a35acfbc15ff81a39ae7d344fd709f28e8600b4aa8c65c6b64bfe7fe36bd19b601f830160051c810191602084106102a2575b601f0160051c01905b8181106102975750610110565b5f815560010161028a565b9091508190610281565b634e487b7160e01b5f52602260045260245ffd5b90607f16906100fe565b634e487b7160e01b5f52604160045260245ffd5b015190505f806100c8565b601f1982169060035f52805f20915f5b8181106103345750958360019596971061031c575b505050811b016003556100dd565b01515f1960f88460031b161c191690555f808061030e565b9192602060018192868b0151815501940192016102f9565b60035f527fc2575a0e9e593c00f959f8c92f12db2869c3395a3b0502d05e2516446f71f85b601f830160051c810191602084106103a5575b601f0160051c01905b81811061039a57506100af565b5f815560010161038d565b9091508190610384565b90607f169061009d565b5f80fd5b6040519190601f01601f191682016001600160401b038111838210176102ca5760405256fe6080806040526004361015610012575f80fd5b5f905f3560e01c90816301ffc9a71461123d5750806306fdde0314611149578063095ea7b31461103457806318160ddd1461101757806323b872dd14610e745780632919515114610e4d5780632ca4655614610e23578063313ce56714610de65780633950935114610dc85780634000aea014610c5557806340c10f1914610b8d57806342966c6814610b425780634334614a14610b095780634f5632f814610aa657806354aff43914610a7d578063561eedea14610a2a578063661884631461068d5780636b32810b146109b557806370a082311461097d57806379ba5097146108ce57806379cc6790146106b357806386fe8b431461084d5780638da5cb5b146108245780638fd6a6ac1461082457806395d89b41146107135780639dc29fac146106b3578063a0e341ae14610692578063a457c2d71461068d578063a9059cbb14610665578063aa271e1a14610622578063beded625146104de578063c2e3273d1461047b578063c630948d14610407578063c64d0ebc146103a4578063d5abeb0114610369578063d73dd6231461033f578063dd62ed3e146102ec578063f2fde38b146102305763f81094f3146101cb575f80fd5b3461022d57602036600319011261022d576101e46112e4565b6101ec611707565b6001600160a01b03166101fe81611927565b610206575080f35b7fed998b960f6340d045f620c119730f7aa7995e7425c2401d3a5b64ff998a59e98280a280f35b80fd5b503461022d57602036600319011261022d5761024a6112e4565b610252611707565b6001600160a01b03163381146102a757600680546001600160a01b031916821790556005546001600160a01b03167fed8889f560326eb138920d842192f0eb3dd22b4f139c87a2c57538e05bae12788380a380f35b60405162461bcd60e51b815260206004820152601760248201527f43616e6e6f74207472616e7366657220746f2073656c660000000000000000006044820152606490fd5b503461022d57604036600319011261022d5760406103086112e4565b916103116112fa565b9260018060a01b031681526001602052209060018060a01b03165f52602052602060405f2054604051908152f35b503461022d57604036600319011261022d5761036561035c6112e4565b602435906114af565b5080f35b503461022d578060031936011261022d5760206040517f00000000000000000000000000000000000000000000000000000000000000008152f35b503461022d57602036600319011261022d576103be6112e4565b6103c6611707565b6001600160a01b03166103d881611a27565b6103e0575080f35b7f92308bb7573b2a3d17ddb868b39d8ebec433f3194421abc22d084f89658c9bad8280a280f35b503461022d57602036600319011261022d576104216112e4565b610429611707565b6001600160a01b031661043b816119d2565b610451575b610448611707565b6103d881611a27565b807fe46fef8bbff1389d9010703cf8ebb363fb3daf5bf56edc27080b67bc8d9251ea8380a2610440565b503461022d57602036600319011261022d576104956112e4565b61049d611707565b6001600160a01b03166104af816119d2565b6104b7575080f35b7fe46fef8bbff1389d9010703cf8ebb363fb3daf5bf56edc27080b67bc8d9251ea8280a280f35b503461022d57602036600319011261022d576104f86112e4565b610500611707565b604051634d4502c960e11b81526001600160a01b039190911690602081600481855afa80156106175783906105d0575b63ffffffff9150169081156105c157818352600c60205260408320805490600160401b8210156105ad579061056a91600182018155611332565b81546001600160a01b0360039290921b91821b19169083901b1790557f45fbfe56ba8499a8f3b6fbbde722bcab156999617793db830b0b10d892dda8358380a380f35b634e487b7160e01b85526041600452602485fd5b633d23e4d160e11b8352600483fd5b506020813d60201161060f575b816105ea60209383611310565b8101031261060b575163ffffffff8116810361060b5763ffffffff90610530565b8280fd5b3d91506105dd565b6040513d85823e3d90fd5b503461022d57602036600319011261022d57602061065b6001600160a01b036106496112e4565b165f52600860205260405f2054151590565b6040519015158152f35b503461022d57604036600319011261022d57602061065b6106846112e4565b6024359061152d565b61135b565b503461022d57602036600319011261022d576106b060043533611759565b80f35b503461022d57604036600319011261022d576106cd6112e4565b602435906106e6335f52600a60205260405f2054151590565b1561070057906106b0916106fb82338361159b565b611759565b63c820b10b60e01b835233600452602483fd5b503461022d578060031936011261022d576040519080600454908160011c9160018116801561081a575b602084108114610806578386529081156107df5750600114610782575b61077e8461076a81860382611310565b6040519182916020835260208301906112c0565b0390f35b600481527f8a35acfbc15ff81a39ae7d344fd709f28e8600b4aa8c65c6b64bfe7fe36bd19b939250905b8082106107c55750909150810160200161076a8261075a565b9192600181602092548385880101520191019092916107ac565b60ff191660208087019190915292151560051b8501909201925061076a915083905061075a565b634e487b7160e01b83526022600452602483fd5b92607f169261073d565b503461022d578060031936011261022d576005546040516001600160a01b039091168152602090f35b503461022d578060031936011261022d5760405180916020600954928381520191600982527f6e1540171b6c0c960b71a7020d9f60077f6af931a8bbf590da0223dacf75c7af915b8181106108b85761077e856108ac81870382611310565b6040519182918261144c565b8254845260209093019260019283019201610895565b503461022d578060031936011261022d576006546001600160a01b038116330361093f5760058054336001600160a01b03198083168217909355929091166006556001600160a01b03167f8be0079c531659141344cd1fd0a4f28419497f9722a3daafe3b4186f6b6457e08380a380f35b60405162461bcd60e51b815260206004820152601660248201527526bab9ba10313290383937b837b9b2b21037bbb732b960511b6044820152606490fd5b503461022d57602036600319011261022d576020906040906001600160a01b036109a56112e4565b1681528083522054604051908152f35b503461022d578060031936011261022d5760405180916020600754928381520191600782527fa66cc928b5edb82af9bd49922954155ab7b0942694bea4ce44661d9a8736c688915b818110610a145761077e856108ac81870382611310565b82548452602090930192600192830192016109fd565b503461022d57604036600319011261022d57602435906004358152600c6020526040812090815483101561022d576020610a648484611332565b905460405160039290921b1c6001600160a01b03168152f35b503461022d578060031936011261022d57600b546040516001600160a01b039091168152602090f35b503461022d57602036600319011261022d57610ac06112e4565b610ac8611707565b6001600160a01b0316610ada8161184c565b610ae2575080f35b7f0a675452746933cefe3d74182e78db7afe57ba60eaa4234b5d85e9aa41b0610c8280a280f35b503461022d57602036600319011261022d57602061065b6001600160a01b03610b306112e4565b165f52600a60205260405f2054151590565b503461022d57602036600319011261022d57610b69335f52600a60205260405f2054151590565b15610b7a576106b060043533611759565b63c820b10b60e01b815233600452602490fd5b503461022d57604036600319011261022d57610ba76112e4565b60243590610bc0335f52600860205260405f2054151590565b15610c42576001600160a01b038116301461060b577f00000000000000000000000000000000000000000000000000000000000000008015159081610c2d575b50610c0f57906106b091611678565b602483610c1e8460025461148e565b63cbbf111360e01b8252600452fd5b9050610c3b8360025461148e565b115f610c00565b63e2c8c9d560e01b835233600452602483fd5b34610db0576060366003190112610db057610c6e6112e4565b60243560443567ffffffffffffffff8111610db05736602382011215610db057806004013567ffffffffffffffff8111610db45760405191610cba601f8301601f191660200184611310565b8183523660248383010111610db057815f926024602093018386013783010152610ce4828461152d565b5060018060a01b0383169283604051848152604060208201527fe19260aff97b920c7df27010903aeb9c8d2be5d310a2c67824cf3f15396e4c16339180610d2e60408201886112c0565b0390a33b610d42575b602060405160018152f35b823b15610db057610d7f925f9283604051809681958294635260769b60e11b845233600485015260248401526060604484015260648301906112c0565b03925af18015610da557610d95575b8080610d37565b5f610d9f91611310565b5f610d8e565b6040513d5f823e3d90fd5b5f80fd5b634e487b7160e01b5f52604160045260245ffd5b34610db0576040366003190112610db057602061065b61035c6112e4565b34610db0575f366003190112610db057602060405160ff7f0000000000000000000000000000000000000000000000000000000000000000168152f35b34610db0576020366003190112610db0576004355f52600c602052602060405f2054604051908152f35b34610db0576040366003190112610db057610e72610e696112e4565b60243590611678565b005b34610db0576060366003190112610db057610e8d6112e4565b610e956112fa565b60443590610ea482338561159b565b6001600160a01b031691308314610db0576001600160a01b0316908115610fc4578215610f7357815f525f60205260405f2054818110610f1f57815f516020611a785f395f51905f5292602092855f525f84520360405f2055845f525f825260405f20818154019055604051908152a3602060405160018152f35b60405162461bcd60e51b815260206004820152602660248201527f45524332303a207472616e7366657220616d6f756e7420657863656564732062604482015265616c616e636560d01b6064820152608490fd5b60405162461bcd60e51b815260206004820152602360248201527f45524332303a207472616e7366657220746f20746865207a65726f206164647260448201526265737360e81b6064820152608490fd5b60405162461bcd60e51b815260206004820152602560248201527f45524332303a207472616e736665722066726f6d20746865207a65726f206164604482015264647265737360d81b6064820152608490fd5b34610db0575f366003190112610db0576020600254604051908152f35b34610db0576040366003190112610db05761104d6112e4565b6001600160a01b0316602435308214610db05733156110f85781156110a857335f52600160205260405f20825f526020528060405f20556040519081525f516020611a985f395f51905f5260203392a3602060405160018152f35b60405162461bcd60e51b815260206004820152602260248201527f45524332303a20617070726f766520746f20746865207a65726f206164647265604482015261737360f01b6064820152608490fd5b60405162461bcd60e51b8152602060048201526024808201527f45524332303a20617070726f76652066726f6d20746865207a65726f206164646044820152637265737360e01b6064820152608490fd5b34610db0575f366003190112610db0576040515f6003548060011c90600181168015611233575b60208310811461121f578285529081156111fb575060011461119d575b61077e8361076a81850382611310565b91905060035f527fc2575a0e9e593c00f959f8c92f12db2869c3395a3b0502d05e2516446f71f85b915f905b8082106111e15750909150810160200161076a61118d565b9192600181602092548385880101520191019092916111c9565b60ff191660208086019190915291151560051b8401909101915061076a905061118d565b634e487b7160e01b5f52602260045260245ffd5b91607f1691611170565b34610db0576020366003190112610db0576004359063ffffffff60e01b8216809203610db0576020916336372b0760e01b81149081156112af575b811561129e575b811561128d575b5015158152f35b6301ffc9a760e01b14905083611286565b63e6599b4d60e01b8114915061127f565b630200057560e51b81149150611278565b805180835260209291819084018484015e5f828201840152601f01601f1916010190565b600435906001600160a01b0382168203610db057565b602435906001600160a01b0382168203610db057565b90601f8019910116810190811067ffffffffffffffff821117610db457604052565b8054821015611347575f5260205f2001905f90565b634e487b7160e01b5f52603260045260245ffd5b34610db0576040366003190112610db0576113746112e4565b602435335f52600160205260405f2060018060a01b0383165f5260205260405f20548181106113f9576001600160a01b039092169103308214610db05733156110f85781156110a857335f52600160205260405f20825f526020528060405f20556040519081525f516020611a985f395f51905f5260203392a3602060405160018152f35b60405162461bcd60e51b815260206004820152602560248201527f45524332303a2064656372656173656420616c6c6f77616e63652062656c6f77604482015264207a65726f60d81b6064820152608490fd5b60206040818301928281528451809452019201905f5b81811061146f5750505090565b82516001600160a01b0316845260209384019390920191600101611462565b9190820180921161149b57565b634e487b7160e01b5f52601160045260245ffd5b906114d890335f52600160205260405f2060018060a01b0384165f5260205260405f205461148e565b6001600160a01b0390911690308214610db05733156110f85781156110a857335f52600160205260405f20825f526020528060405f20556040519081525f516020611a985f395f51905f5260203392a3600190565b6001600160a01b031690308214610db0573315610fc4578115610f7357335f525f60205260405f2054818110610f1f578190335f525f6020520360405f2055815f525f60205260405f208181540190556040519081525f516020611a785f395f51905f5260203392a3600190565b6001600160a01b039081165f81815260016020818152604080842095871684529490529290205492939092909181016115d5575b50505050565b818110611633576001600160a01b039093169203308314610db05781156110f85782156110a85760205f516020611a985f395f51905f5291835f526001825260405f20855f5282528060405f2055604051908152a35f8080806115cf565b60405162461bcd60e51b815260206004820152601d60248201527f45524332303a20696e73756666696369656e7420616c6c6f77616e63650000006044820152606490fd5b6001600160a01b03169081156116c2575f516020611a785f395f51905f526020826116a65f9460025461148e565b60025584845283825260408420818154019055604051908152a3565b60405162461bcd60e51b815260206004820152601f60248201527f45524332303a206d696e7420746f20746865207a65726f2061646472657373006044820152606490fd5b6005546001600160a01b0316330361171b57565b60405162461bcd60e51b815260206004820152601660248201527527b7363c9031b0b63630b1363290313c9037bbb732b960511b6044820152606490fd5b6001600160a01b031680156117fd57805f525f60205260405f2054918083106117ad576020815f516020611a785f395f51905f52925f958587528684520360408620558060025403600255604051908152a3565b60405162461bcd60e51b815260206004820152602260248201527f45524332303a206275726e20616d6f756e7420657863656564732062616c616e604482015261636560f01b6064820152608490fd5b60405162461bcd60e51b815260206004820152602160248201527f45524332303a206275726e2066726f6d20746865207a65726f206164647265736044820152607360f81b6064820152608490fd5b5f818152600a60205260409020548015611921575f19810181811161149b576009545f1981019190821161149b578082036118d3575b50505060095480156118bf575f190161189c816009611332565b8154905f199060031b1b191690556009555f52600a6020525f6040812055600190565b634e487b7160e01b5f52603160045260245ffd5b61190b6118e46118f5936009611332565b90549060031b1c9283926009611332565b819391549060031b91821b915f19901b19161790565b90555f52600a60205260405f20555f8080611882565b50505f90565b5f818152600860205260409020548015611921575f19810181811161149b576007545f1981019190821161149b5780820361199a575b50505060075480156118bf575f1901611977816007611332565b8154905f199060031b1b191690556007555f5260086020525f6040812055600190565b6119bc6119ab6118f5936007611332565b90549060031b1c9283926007611332565b90555f52600860205260405f20555f808061195d565b805f52600860205260405f2054155f14611a2257600754600160401b811015610db457611a0b6118f58260018594016007556007611332565b9055600754905f52600860205260405f2055600190565b505f90565b805f52600a60205260405f2054155f14611a2257600954600160401b811015610db457611a606118f58260018594016009556009611332565b9055600954905f52600a60205260405f205560019056feddf252ad1be2c89b69c2b068fc378daa952ba7f163c4a11628f55a4df523b3ef8c5be1e5ebec7d5bd14f71427d1e84f3dd0314c0f7b2291e5b200ac8c7c3b925a26469706673582212203716a7c6763106529c1f4154c6b898b55171078f4bbd40739569c987eb6ee64b64736f6c634300081c0033","linkReferences":{}},"methodIdentifiers":{"acceptOwnership()":"79ba5097","addBridgeTokenSender(address)":"beded625","allowance(address,address)":"dd62ed3e","approve(address,uint256)":"095ea7b3","balanceOf(address)":"70a08231","bridgeTokenSenders(uint256,uint256)":"561eedea","burn(address,uint256)":"9dc29fac","burn(uint256)":"42966c68","burnFrom(address,uint256)":"79cc6790","burnMock(uint256)":"a0e341ae","decimals()":"313ce567","decreaseAllowance(address,uint256)":"a457c2d7","decreaseApproval(address,uint256)":"66188463","getBridgeTokenSendersLength(uint256)":"2ca46556","getBurners()":"86fe8b43","getCCIPAdmin()":"8fd6a6ac","getMinters()":"6b32810b","grantBurnRole(address)":"c64d0ebc","grantMintAndBurnRoles(address)":"c630948d","grantMintRole(address)":"c2e3273d","helperTestnet()":"54aff439","increaseAllowance(address,uint256)":"39509351","increaseApproval(address,uint256)":"d73dd623","isBurner(address)":"4334614a","isMinter(address)":"aa271e1a","maxSupply()":"d5abeb01","mint(address,uint256)":"40c10f19","mintMock(address,uint256)":"29195151","name()":"06fdde03","owner()":"8da5cb5b","revokeBurnRole(address)":"4f5632f8","revokeMintRole(address)":"f81094f3","supportsInterface(bytes4)":"01ffc9a7","symbol()":"95d89b41","totalSupply()":"18160ddd","transfer(address,uint256)":"a9059cbb","transferAndCall(address,uint256,bytes)":"4000aea0","transferFrom(address,address,uint256)":"23b872dd","transferOwnership(address)":"f2fde38b"},"id":98}