{"abi":[{"type":"constructor","inputs":[{"name":"_collateral","type":"address","internalType":"address"},{"name":"_borrow","type":"address","internalType":"address"},{"name":"_lpAddress","type":"address","internalType":"address"},{"name":"_factory","type":"address","internalType":"address"}],"stateMutability":"nonpayable"},{"type":"function","name":"borrowAssets","inputs":[],"outputs":[{"name":"","type":"address","internalType":"address"}],"stateMutability":"view"},{"type":"function","name":"collateralAssets","inputs":[],"outputs":[{"name":"","type":"address","internalType":"address"}],"stateMutability":"view"},{"type":"function","name":"counter","inputs":[],"outputs":[{"name":"","type":"uint256","internalType":"uint256"}],"stateMutability":"view"},{"type":"function","name":"factory","inputs":[],"outputs":[{"name":"","type":"address","internalType":"address"}],"stateMutability":"view"},{"type":"function","name":"lpAddress","inputs":[],"outputs":[{"name":"","type":"address","internalType":"address"}],"stateMutability":"view"},{"type":"function","name":"owner","inputs":[],"outputs":[{"name":"","type":"address","internalType":"address"}],"stateMutability":"view"},{"type":"function","name":"repayWithSelectedToken","inputs":[{"name":"amount","type":"uint256","internalType":"uint256"},{"name":"_token","type":"address","internalType":"address"}],"outputs":[],"stateMutability":"nonpayable"},{"type":"function","name":"swapTokenByPosition","inputs":[{"name":"_tokenIn","type":"address","internalType":"address"},{"name":"_tokenOut","type":"address","internalType":"address"},{"name":"amountIn","type":"uint256","internalType":"uint256"}],"outputs":[{"name":"amountOut","type":"uint256","internalType":"uint256"}],"stateMutability":"nonpayable"},{"type":"function","name":"tokenCalculator","inputs":[{"name":"_tokenIn","type":"address","internalType":"address"},{"name":"_tokenOut","type":"address","internalType":"address"},{"name":"_amountIn","type":"uint256","internalType":"uint256"},{"name":"_tokenInPrice","type":"address","internalType":"address"},{"name":"_tokenOutPrice","type":"address","internalType":"address"}],"outputs":[{"name":"","type":"uint256","internalType":"uint256"}],"stateMutability":"view"},{"type":"function","name":"tokenLists","inputs":[{"name":"","type":"uint256","internalType":"uint256"}],"outputs":[{"name":"","type":"address","internalType":"address"}],"stateMutability":"view"},{"type":"function","name":"tokenListsId","inputs":[{"name":"","type":"address","internalType":"address"}],"outputs":[{"name":"","type":"uint256","internalType":"uint256"}],"stateMutability":"view"},{"type":"function","name":"tokenValue","inputs":[{"name":"token","type":"address","internalType":"address"}],"outputs":[{"name":"","type":"uint256","internalType":"uint256"}],"stateMutability":"view"},{"type":"function","name":"withdrawCollateral","inputs":[{"name":"amount","type":"uint256","internalType":"uint256"},{"name":"_user","type":"address","internalType":"address"}],"outputs":[],"stateMutability":"nonpayable"},{"type":"event","name":"Liquidate","inputs":[{"name":"user","type":"address","indexed":false,"internalType":"address"}],"anonymous":false},{"type":"event","name":"SwapToken","inputs":[{"name":"user","type":"address","indexed":false,"internalType":"address"},{"name":"token","type":"address","indexed":false,"internalType":"address"},{"name":"amount","type":"uint256","indexed":false,"internalType":"uint256"}],"anonymous":false},{"type":"event","name":"SwapTokenByPosition","inputs":[{"name":"user","type":"address","indexed":false,"internalType":"address"},{"name":"tokenIn","type":"address","indexed":false,"internalType":"address"},{"name":"tokenOut","type":"address","indexed":false,"internalType":"address"},{"name":"amountIn","type":"uint256","indexed":false,"internalType":"uint256"},{"name":"amountOut","type":"uint256","indexed":false,"internalType":"uint256"}],"anonymous":false},{"type":"event","name":"WithdrawCollateral","inputs":[{"name":"user","type":"address","indexed":true,"internalType":"address"},{"name":"amount","type":"uint256","indexed":false,"internalType":"uint256"}],"anonymous":false},{"type":"error","name":"InsufficientBalance","inputs":[]},{"type":"error","name":"NotForWithdraw","inputs":[]},{"type":"error","name":"ReentrancyGuardReentrantCall","inputs":[]},{"type":"error","name":"SafeERC20FailedOperation","inputs":[{"name":"token","type":"address","internalType":"address"}]},{"type":"error","name":"ZeroAmount","inputs":[]}],"bytecode":{"object":"0x60803461012d57601f610ecc38819003918201601f19168301916001600160401b038311848410176101315780849260809460405283398101031261012d5761004781610145565b61005360208301610145565b9161006c606061006560408401610145565b9201610145565b60015f81905580546001600160a01b03199081166001600160a01b03958616908117909255600280548216968616969096179095556004805486169385169390931790925560058054851693909116929092179091556003805490921633179091556006545f19811461011957600101806006555f52600760205260405f208160018060a01b0319825416179055600654905f52600860205260405f2055604051610d72908161015a8239f35b634e487b7160e01b5f52601160045260245ffd5b5f80fd5b634e487b7160e01b5f52604160045260245ffd5b51906001600160a01b038216820361012d5756fe60806040526004361015610011575f80fd5b5f3560e01c80630af504cc146106565780631cb928a914610624578063513f7d1e1461042257806361bc221a146104055780636525f1ac146103dd5780638da5cb5b146103b55780639b4dc8cc1461038d5780639d058e67146101c3578063c45a01551461019b578063c8eb93511461016c578063cc0d55bf14610144578063dd9103cb146100e45763f4191e68146100a8575f80fd5b346100e05760203660031901126100e0576001600160a01b036100c96106e6565b165f526008602052602060405f2054604051908152f35b5f80fd5b346100e05760a03660031901126100e0576100fd6106e6565b6101056106d0565b6064356001600160a01b03811681036100e057608435906001600160a01b03821682036100e05760209361013c9360443591610b16565b604051908152f35b346100e0575f3660031901126100e0576001546040516001600160a01b039091168152602090f35b346100e05760603660031901126100e057602061013c61018a6106e6565b6101926106d0565b60443591610810565b346100e0575f3660031901126100e0576005546040516001600160a01b039091168152602090f35b346100e05760403660031901126100e0576004356101df6106d0565b6004546001600160a01b0316903382900361037e576040516370a0823160e01b81523060048201526001600160a01b03821692602082602481875afa918215610330575f9261034a575b506002546001600160a01b031684811461033b57505060025461029c91602091869161025e916001600160a01b031686610810565b6004805460405163095ea7b360e01b81526001600160a01b0390911691810191909152602481019290925294909283919082905f9082906044820190565b03925af18015610330576102f9575b506002546004546102ca9185916001600160a01b039081169116610cad565b6102d483836107f5565b6102db575b005b6102f36102d99360018060a01b0360025416936107f5565b91610810565b6020813d602011610328575b81610312602093836106fc565b810103126100e0575180151581146102ab575f80fd5b3d9150610305565b6040513d5f823e3d90fd5b915091506102d9939250610cad565b9091506020813d602011610376575b81610366602093836106fc565b810103126100e057519085610229565b3d9150610359565b633e615ac360e11b5f5260045ffd5b346100e0575f3660031901126100e0576004546040516001600160a01b039091168152602090f35b346100e0575f3660031901126100e0576003546040516001600160a01b039091168152602090f35b346100e0575f3660031901126100e0576002546040516001600160a01b039091168152602090f35b346100e0575f3660031901126100e0576020600654604051908152f35b346100e05760203660031901126100e0576001600160a01b036104436106e6565b166040516370a0823160e01b8152306004820152602081602481855afa908115610330575f916105f2575b5060405163313ce56760e01b8152602081600481865afa908115610330575f916105c3575b50600554604051630ea199ad60e11b81526004810194909452602090849060249082906001600160a01b03165afa9283156103305760049360a0915f91610594575b50604051633fabe5a360e21b815294859182905f196001861b01165afa928315610330575f9361055e575b50670de0b6b3a7640000830292808404670de0b6b3a7640000149015171561054a5761054460ff61053d61013c946305f5e10060209704906107b6565b92166107e7565b906107c9565b634e487b7160e01b5f52601160045260245ffd5b61058191935060a03d60a01161058d575b61057981836106fc565b810190610781565b50505090509183610500565b503d61056f565b6105b6915060203d6020116105bc575b6105ae81836106fc565b81019061074b565b856104d5565b503d6105a4565b6105e5915060203d6020116105eb575b6105dd81836106fc565b810190610732565b83610493565b503d6105d3565b90506020813d60201161061c575b8161060d602093836106fc565b810103126100e057518261046e565b3d9150610600565b346100e05760203660031901126100e0576004355f526007602052602060018060a01b0360405f205416604051908152f35b346100e05760403660031901126100e0576004356106726106d0565b6004546001600160a01b0316330361037e576020816106bd847fa8e76b822fc682be77f3b1c822ea81f6bda5aed92ba82e6873bfd889f328d1d29460018060a01b0360015416610cad565b6040519384526001600160a01b031692a2005b602435906001600160a01b03821682036100e057565b600435906001600160a01b03821682036100e057565b90601f8019910116810190811067ffffffffffffffff82111761071e57604052565b634e487b7160e01b5f52604160045260245ffd5b908160209103126100e0575160ff811681036100e05790565b908160209103126100e057516001600160a01b03811681036100e05790565b519069ffffffffffffffffffff821682036100e057565b908160a09103126100e0576107958161076a565b916020820151916040810151916107b360806060840151930161076a565b90565b8181029291811591840414171561054a57565b81156107d3570490565b634e487b7160e01b5f52601260045260245ffd5b604d811161054a57600a0a90565b9190820391821161054a57565b5f19811461054a5760010190565b6001600160a01b0381165f818152600860205260408120549094919391929015610ad0575b6001600160a01b0382165f8181526008602052604090205490929015610a8a575b6040516370a0823160e01b8152306004820152602081602481895afa908115610330575f91610a58575b506004546001600160a01b0316330361037e578415610a49578411610a3a57600554604051630ea199ad60e11b815260048101879052906001600160a01b0316602082602481845afa918215610330575f92610a15575b50602060249160405192838092630ea199ad60e11b82528960048301525afa928315610330576109109487925f956109f4575b50610b16565b93833b156100e057604051635071a0d760e11b8152600481018490525f8160248183895af18015610330576109e1575b50813b156109d357604051632919515160e01b815230600482015260248101869052818160448183875af180156109d6576109be575b50509160a0917fc665f2f5768a61c064dd66125ac01f65d2f20d35ebb13a292211bf50619d753e9360405192338452602084015260408301526060820152836080820152a190565b6109c98280926106fc565b6109d35780610976565b80fd5b6040513d84823e3d90fd5b6109ed91505f906106fc565b5f5f610940565b610a0e91955060203d6020116105bc576105ae81836106fc565b935f61090a565b6024919250610a32602091823d84116105bc576105ae81836106fc565b9291506108d7565b631e9acf1760e31b5f5260045ffd5b631f2a200560e01b5f5260045ffd5b90506020813d602011610a82575b81610a73602093836106fc565b810103126100e057515f610880565b3d9150610a66565b610a95600654610802565b806006555f52600760205260405f20836bffffffffffffffffffffffff60a01b825416179055600654835f52600860205260405f2055610856565b610adb600654610802565b806006555f52600760205260405f20846bffffffffffffffffffffffff60a01b825416179055600654845f52600860205260405f2055610835565b60405163313ce56760e01b8152949193929190602090869060049082906001600160a01b03165afa938415610330576004955f95610c8b575b5060405163313ce56760e01b81529560209187919082906001600160a01b03165afa928315610330576004955f94610c67575b50604051633fabe5a360e21b81529560a09187919082906001600160a01b03165afa908115610330576004955f92610c40575b50604051633fabe5a360e21b81529560a09187919082906001600160a01b03165afa91821561033057610c076105449460ff9461053d946107b3995f92610c12575b50610c0787610c0d9394166107e7565b906107b6565b6107c9565b610c0d925087610c33610c079260a03d60a01161058d5761057981836106fc565b5050509050935050610bf7565b60a0919250610c5b90823d841161058d5761057981836106fc565b50505090509190610bb5565b60a0919450610c849060203d6020116105eb576105dd81836106fc565b9390610b82565b6020919550610ca690823d84116105eb576105dd81836106fc565b9490610b4f565b60405163a9059cbb60e01b60208083019182526001600160a01b0394909416602483015260448083019590955293815290925f91610cec6064826106fc565b519082855af115610330575f513d610d3357506001600160a01b0381163b155b610d135750565b635274afe760e01b5f9081526001600160a01b0391909116600452602490fd5b60011415610d0c56fea2646970667358221220ceee9908f305077949590fb06c783c1d66f6be02da1d35d1bc9ef7711cc5b70a64736f6c634300081c0033","linkReferences":{}},"methodIdentifiers":{"borrowAssets()":"6525f1ac","collateralAssets()":"cc0d55bf","counter()":"61bc221a","factory()":"c45a0155","lpAddress()":"9b4dc8cc","owner()":"8da5cb5b","repayWithSelectedToken(uint256,address)":"9d058e67","swapTokenByPosition(address,address,uint256)":"c8eb9351","tokenCalculator(address,address,uint256,address,address)":"dd9103cb","tokenLists(uint256)":"1cb928a9","tokenListsId(address)":"f4191e68","tokenValue(address)":"513f7d1e","withdrawCollateral(uint256,address)":"0af504cc"},"id":63}