{"abi":[{"type":"constructor","inputs":[{"name":"_mailbox","type":"address","internalType":"address"},{"name":"_token","type":"address","internalType":"address"}],"stateMutability":"nonpayable"},{"type":"function","name":"handle","inputs":[{"name":"_origin","type":"uint32","internalType":"uint32"},{"name":"_sender","type":"bytes32","internalType":"bytes32"},{"name":"_messageBody","type":"bytes","internalType":"bytes"}],"outputs":[],"stateMutability":"nonpayable"},{"type":"function","name":"mailbox","inputs":[],"outputs":[{"name":"","type":"address","internalType":"address"}],"stateMutability":"view"},{"type":"function","name":"token","inputs":[],"outputs":[{"name":"","type":"address","internalType":"address"}],"stateMutability":"view"},{"type":"event","name":"ReceivedMessage","inputs":[{"name":"origin","type":"uint32","indexed":false,"internalType":"uint32"},{"name":"sender","type":"bytes32","indexed":false,"internalType":"bytes32"},{"name":"message","type":"bytes","indexed":false,"internalType":"bytes"}],"anonymous":false},{"type":"error","name":"NotMailbox","inputs":[]}],"bytecode":{"object":"0x608034608557601f61030238819003918201601f19168301916001600160401b038311848410176089578084926040948552833981010312608557604b6020604583609d565b9201609d565b5f80546001600160a01b039384166001600160a01b0319918216179091556001805492909316911617905560405161025190816100b18239f35b5f80fd5b634e487b7160e01b5f52604160045260245ffd5b51906001600160a01b038216820360855756fe6080806040526004361015610012575f80fd5b5f905f3560e01c90816356d5d4751461009157508063d5438eae1461006a5763fc0c546a1461003f575f80fd5b346100675780600319360112610067576001546040516001600160a01b039091168152602090f35b80fd5b5034610067578060031936011261006757546040516001600160a01b039091168152602090f35b82346102085760603660031901126102085760043563ffffffff8116809103610208576044359067ffffffffffffffff821161020857366023830112156102085781600401359367ffffffffffffffff8511610208576024830192858101366024820111610208575f546001600160a01b0316330361020c57604090829003126102085783356001600160a01b0381169190829003610208576001546001600160a01b0316803b1561020857835f60449283839583976340c10f1960e01b86526004860152013560248401525af180156101fd576101cb575b50608090847fc9f92737086b645b21611169d04fa8cc1b05a453ea6a9befbf3930d619e23bec94956040519485938452602435602085015260606040850152816060850152848401378181018301869052601f01601f19168101030190a180f35b90925067ffffffffffffffff81116101e9576040525f91608061016a565b634e487b7160e01b5f52604160045260245ffd5b6040513d5f823e3d90fd5b5f80fd5b63079ddc6d60e31b5f5260045ffdfea26469706673582212209f062ccaf8e822c14e72eb4025e2162ec5f045fe71b68dca4ef53ad7c1ed95ed64736f6c634300081c0033","linkReferences":{}},"methodIdentifiers":{"handle(uint32,bytes32,bytes)":"56d5d475","mailbox()":"d5438eae","token()":"fc0c546a"},"id":82}