{"abi":[{"type":"constructor","inputs":[{"name":"newOwner","type":"address","internalType":"address"},{"name":"pendingOwner","type":"address","internalType":"address"}],"stateMutability":"nonpayable"},{"type":"function","name":"acceptOwnership","inputs":[],"outputs":[],"stateMutability":"nonpayable"},{"type":"function","name":"owner","inputs":[],"outputs":[{"name":"","type":"address","internalType":"address"}],"stateMutability":"view"},{"type":"function","name":"transferOwnership","inputs":[{"name":"to","type":"address","internalType":"address"}],"outputs":[],"stateMutability":"nonpayable"},{"type":"event","name":"OwnershipTransferRequested","inputs":[{"name":"from","type":"address","indexed":true,"internalType":"address"},{"name":"to","type":"address","indexed":true,"internalType":"address"}],"anonymous":false},{"type":"event","name":"OwnershipTransferred","inputs":[{"name":"from","type":"address","indexed":true,"internalType":"address"},{"name":"to","type":"address","indexed":true,"internalType":"address"}],"anonymous":false}],"bytecode":{"object":"0x60803461016257601f6103d238819003918201601f19168301916001600160401b0383118484101761016657808492604094855283398101031261016257610052602061004b8361017a565b920161017a565b6001600160a01b0390911690811561011d575f80546001600160a01b031916831790556001600160a01b03169081610094575b604051610243908161018f8239f35b3382146100d857600180546001600160a01b031916831790557fed8889f560326eb138920d842192f0eb3dd22b4f139c87a2c57538e05bae12785f80a35f80610085565b60405162461bcd60e51b815260206004820152601760248201527f43616e6e6f74207472616e7366657220746f2073656c660000000000000000006044820152606490fd5b60405162461bcd60e51b815260206004820152601860248201527f43616e6e6f7420736574206f776e657220746f207a65726f00000000000000006044820152606490fd5b5f80fd5b634e487b7160e01b5f52604160045260245ffd5b51906001600160a01b03821682036101625756fe6080806040526004361015610012575f80fd5b5f3560e01c90816379ba509714610163575080638da5cb5b1461013c5763f2fde38b1461003d575f80fd5b34610138576020366003190112610138576004356001600160a01b03811690819003610138575f546001600160a01b0316338190036100fa573382146100b557600180546001600160a01b031916831790557fed8889f560326eb138920d842192f0eb3dd22b4f139c87a2c57538e05bae12785f80a3005b60405162461bcd60e51b815260206004820152601760248201527f43616e6e6f74207472616e7366657220746f2073656c660000000000000000006044820152606490fd5b60405162461bcd60e51b815260206004820152601660248201527527b7363c9031b0b63630b1363290313c9037bbb732b960511b6044820152606490fd5b5f80fd5b34610138575f366003190112610138575f546040516001600160a01b039091168152602090f35b34610138575f36600319011261013857600154906001600160a01b03821633036101d257505f80546001600160a01b031980821633908117845593166001556001600160a01b0316907f8be0079c531659141344cd1fd0a4f28419497f9722a3daafe3b4186f6b6457e09080a3005b62461bcd60e51b815260206004820152601660248201527526bab9ba10313290383937b837b9b2b21037bbb732b960511b6044820152606490fdfea264697066735822122013f35a5f2ddb7b2d72f6bf0aa1142e34328ae3ef45f194f30af5cba2750fd05364736f6c634300081c0033","linkReferences":{}},"methodIdentifiers":{"acceptOwnership()":"79ba5097","owner()":"8da5cb5b","transferOwnership(address)":"f2fde38b"},"id":3}