{"abi":[{"type":"constructor","inputs":[{"name":"name","type":"string","internalType":"string"},{"name":"symbol","type":"string","internalType":"string"}],"stateMutability":"nonpayable"},{"type":"function","name":"allowance","inputs":[{"name":"owner","type":"address","internalType":"address"},{"name":"spender","type":"address","internalType":"address"}],"outputs":[{"name":"","type":"uint256","internalType":"uint256"}],"stateMutability":"view"},{"type":"function","name":"approve","inputs":[{"name":"spender","type":"address","internalType":"address"},{"name":"value","type":"uint256","internalType":"uint256"}],"outputs":[{"name":"","type":"bool","internalType":"bool"}],"stateMutability":"nonpayable"},{"type":"function","name":"balanceOf","inputs":[{"name":"account","type":"address","internalType":"address"}],"outputs":[{"name":"","type":"uint256","internalType":"uint256"}],"stateMutability":"view"},{"type":"function","name":"bridge","inputs":[],"outputs":[{"name":"","type":"address","internalType":"address"}],"stateMutability":"view"},{"type":"function","name":"decimals","inputs":[],"outputs":[{"name":"","type":"uint8","internalType":"uint8"}],"stateMutability":"view"},{"type":"function","name":"mint","inputs":[{"name":"to","type":"address","internalType":"address"},{"name":"amount","type":"uint256","internalType":"uint256"}],"outputs":[],"stateMutability":"nonpayable"},{"type":"function","name":"name","inputs":[],"outputs":[{"name":"","type":"string","internalType":"string"}],"stateMutability":"view"},{"type":"function","name":"symbol","inputs":[],"outputs":[{"name":"","type":"string","internalType":"string"}],"stateMutability":"view"},{"type":"function","name":"totalSupply","inputs":[],"outputs":[{"name":"","type":"uint256","internalType":"uint256"}],"stateMutability":"view"},{"type":"function","name":"transfer","inputs":[{"name":"to","type":"address","internalType":"address"},{"name":"value","type":"uint256","internalType":"uint256"}],"outputs":[{"name":"","type":"bool","internalType":"bool"}],"stateMutability":"nonpayable"},{"type":"function","name":"transferFrom","inputs":[{"name":"from","type":"address","internalType":"address"},{"name":"to","type":"address","internalType":"address"},{"name":"value","type":"uint256","internalType":"uint256"}],"outputs":[{"name":"","type":"bool","internalType":"bool"}],"stateMutability":"nonpayable"},{"type":"event","name":"Approval","inputs":[{"name":"owner","type":"address","indexed":true,"internalType":"address"},{"name":"spender","type":"address","indexed":true,"internalType":"address"},{"name":"value","type":"uint256","indexed":false,"internalType":"uint256"}],"anonymous":false},{"type":"event","name":"Transfer","inputs":[{"name":"from","type":"address","indexed":true,"internalType":"address"},{"name":"to","type":"address","indexed":true,"internalType":"address"},{"name":"value","type":"uint256","indexed":false,"internalType":"uint256"}],"anonymous":false},{"type":"error","name":"ERC20InsufficientAllowance","inputs":[{"name":"spender","type":"address","internalType":"address"},{"name":"allowance","type":"uint256","internalType":"uint256"},{"name":"needed","type":"uint256","internalType":"uint256"}]},{"type":"error","name":"ERC20InsufficientBalance","inputs":[{"name":"sender","type":"address","internalType":"address"},{"name":"balance","type":"uint256","internalType":"uint256"},{"name":"needed","type":"uint256","internalType":"uint256"}]},{"type":"error","name":"ERC20InvalidApprover","inputs":[{"name":"approver","type":"address","internalType":"address"}]},{"type":"error","name":"ERC20InvalidReceiver","inputs":[{"name":"receiver","type":"address","internalType":"address"}]},{"type":"error","name":"ERC20InvalidSender","inputs":[{"name":"sender","type":"address","internalType":"address"}]},{"type":"error","name":"ERC20InvalidSpender","inputs":[{"name":"spender","type":"address","internalType":"address"}]}],"bytecode":{"object":"0x60806040523461032257610a718038038061001981610326565b9283398101906040818303126103225780516001600160401b038111610322578261004591830161034b565b60208201519092906001600160401b03811161032257610065920161034b565b81516001600160401b03811161023557600354600181811c91168015610318575b602082101461021757601f81116102b5575b50602092601f821160011461025457928192935f92610249575b50508160011b915f199060031b1c1916176003555b80516001600160401b03811161023557600454600181811c9116801561022b575b602082101461021757601f81116101b4575b50602091601f8211600114610154579181925f92610149575b50508160011b915f199060031b1c1916176004555b600580546001600160a01b031916331790556040516106d4908161039d8239f35b015190505f80610113565b601f1982169260045f52805f20915f5b85811061019c57508360019510610184575b505050811b01600455610128565b01515f1960f88460031b161c191690555f8080610176565b91926020600181928685015181550194019201610164565b60045f527f8a35acfbc15ff81a39ae7d344fd709f28e8600b4aa8c65c6b64bfe7fe36bd19b601f830160051c8101916020841061020d575b601f0160051c01905b81811061020257506100fa565b5f81556001016101f5565b90915081906101ec565b634e487b7160e01b5f52602260045260245ffd5b90607f16906100e8565b634e487b7160e01b5f52604160045260245ffd5b015190505f806100b2565b601f1982169360035f52805f20915f5b86811061029d5750836001959610610285575b505050811b016003556100c7565b01515f1960f88460031b161c191690555f8080610277565b91926020600181928685015181550194019201610264565b60035f527fc2575a0e9e593c00f959f8c92f12db2869c3395a3b0502d05e2516446f71f85b601f830160051c8101916020841061030e575b601f0160051c01905b8181106103035750610098565b5f81556001016102f6565b90915081906102ed565b90607f1690610086565b5f80fd5b6040519190601f01601f191682016001600160401b0381118382101761023557604052565b81601f82011215610322578051906001600160401b0382116102355761037a601f8301601f1916602001610326565b928284526020838301011161032257815f9260208093018386015e830101529056fe6080806040526004361015610012575f80fd5b5f3560e01c90816306fdde03146104cf57508063095ea7b31461044d57806318160ddd1461043057806323b872dd14610351578063313ce5671461033657806340c10f191461029457806370a082311461025d57806395d89b4114610142578063a9059cbb14610111578063dd62ed3e146100c15763e78cea9214610095575f80fd5b346100bd575f3660031901126100bd576005546040516001600160a01b039091168152602090f35b5f80fd5b346100bd5760403660031901126100bd576100da6105c8565b6100e26105de565b6001600160a01b039182165f908152600160209081526040808320949093168252928352819020549051908152f35b346100bd5760403660031901126100bd5761013761012d6105c8565b60243590336105f4565b602060405160018152f35b346100bd575f3660031901126100bd576040515f6004548060011c90600181168015610253575b60208310811461023f5782855290811561022357506001146101ce575b50819003601f01601f191681019067ffffffffffffffff8211818310176101ba576101b68291826040528261059e565b0390f35b634e487b7160e01b5f52604160045260245ffd5b905060045f527f8a35acfbc15ff81a39ae7d344fd709f28e8600b4aa8c65c6b64bfe7fe36bd19b5f905b82821061020d57506020915082010182610186565b60018160209254838588010152019101906101f8565b90506020925060ff191682840152151560051b82010182610186565b634e487b7160e01b5f52602260045260245ffd5b91607f1691610169565b346100bd5760203660031901126100bd576001600160a01b0361027e6105c8565b165f525f602052602060405f2054604051908152f35b346100bd5760403660031901126100bd576102ad6105c8565b6001600160a01b03166024358115610323576002549080820180921161030f5760207fddf252ad1be2c89b69c2b068fc378daa952ba7f163c4a11628f55a4df523b3ef915f9360025584845283825260408420818154019055604051908152a3005b634e487b7160e01b5f52601160045260245ffd5b63ec442f0560e01b5f525f60045260245ffd5b346100bd575f3660031901126100bd57602060405160128152f35b346100bd5760603660031901126100bd5761036a6105c8565b6103726105de565b6001600160a01b0382165f818152600160209081526040808320338452909152902054909260443592915f1981106103b0575b5061013793506105f4565b8381106104155784156104025733156103ef57610137945f52600160205260405f2060018060a01b0333165f526020528360405f2091039055846103a5565b634a1406b160e11b5f525f60045260245ffd5b63e602df0560e01b5f525f60045260245ffd5b8390637dc7a0d960e11b5f523360045260245260445260645ffd5b346100bd575f3660031901126100bd576020600254604051908152f35b346100bd5760403660031901126100bd576104666105c8565b602435903315610402576001600160a01b03169081156103ef57335f52600160205260405f20825f526020528060405f20556040519081527f8c5be1e5ebec7d5bd14f71427d1e84f3dd0314c0f7b2291e5b200ac8c7c3b92560203392a3602060405160018152f35b346100bd575f3660031901126100bd575f6003548060011c90600181168015610594575b60208310811461023f57828552908115610223575060011461053f5750819003601f01601f191681019067ffffffffffffffff8211818310176101ba576101b68291826040528261059e565b905060035f527fc2575a0e9e593c00f959f8c92f12db2869c3395a3b0502d05e2516446f71f85b5f905b82821061057e57506020915082010182610186565b6001816020925483858801015201910190610569565b91607f16916104f3565b602060409281835280519182918282860152018484015e5f828201840152601f01601f1916010190565b600435906001600160a01b03821682036100bd57565b602435906001600160a01b03821682036100bd57565b6001600160a01b031690811561068b576001600160a01b031691821561032357815f525f60205260405f205481811061067257817fddf252ad1be2c89b69c2b068fc378daa952ba7f163c4a11628f55a4df523b3ef92602092855f525f84520360405f2055845f525f825260405f20818154019055604051908152a3565b8263391434e360e21b5f5260045260245260445260645ffd5b634b637e8f60e11b5f525f60045260245ffdfea26469706673582212209b7d16a3eaa26d03fbd92b0435884a9b0a2d4f667c2d3a4cbe8038697f3d1ab664736f6c634300081c0033","linkReferences":{}},"methodIdentifiers":{"allowance(address,address)":"dd62ed3e","approve(address,uint256)":"095ea7b3","balanceOf(address)":"70a08231","bridge()":"e78cea92","decimals()":"313ce567","mint(address,uint256)":"40c10f19","name()":"06fdde03","symbol()":"95d89b41","totalSupply()":"18160ddd","transfer(address,uint256)":"a9059cbb","transferFrom(address,address,uint256)":"23b872dd"},"id":68}