{"abi":[{"type":"constructor","inputs":[],"stateMutability":"nonpayable"},{"type":"function","name":"deployLendingPool","inputs":[{"name":"_collateralToken","type":"address","internalType":"address"},{"name":"_borrowToken","type":"address","internalType":"address"},{"name":"_ltv","type":"uint256","internalType":"uint256"}],"outputs":[{"name":"","type":"address","internalType":"address"}],"stateMutability":"nonpayable"},{"type":"function","name":"factory","inputs":[],"outputs":[{"name":"","type":"address","internalType":"address"}],"stateMutability":"view"},{"type":"function","name":"owner","inputs":[],"outputs":[{"name":"","type":"address","internalType":"address"}],"stateMutability":"view"},{"type":"function","name":"setFactory","inputs":[{"name":"_factory","type":"address","internalType":"address"}],"outputs":[],"stateMutability":"nonpayable"},{"type":"error","name":"OnlyFactoryCanCall","inputs":[]},{"type":"error","name":"OnlyOwnerCanCall","inputs":[]}],"bytecode":{"object":"0x60808060405234602757600180546001600160a01b0319163317905561281a908161002c8239f35b5f80fdfe60806040526004361015610011575f80fd5b5f3560e01c80635bb478081461016e5780638da5cb5b14610146578063c45a01551461011f5763d2e24b8714610045575f80fd5b3461011b57606036600319011261011b5761005e6101c9565b6024356001600160a01b038116919082900361011b575f546001600160a01b03163381900361010c5760405192612605918285019185831067ffffffffffffffff8411176100f85760809486946101e086396001600160a01b031683526020830152604082015260443560608201520301905ff080156100ed576040516001600160a01b039091168152602090f35b6040513d5f823e3d90fd5b634e487b7160e01b5f52604160045260245ffd5b63011a72f560e11b5f5260045ffd5b5f80fd5b3461011b575f36600319011261011b575f546040516001600160a01b039091168152602090f35b3461011b575f36600319011261011b576001546040516001600160a01b039091168152602090f35b3461011b57602036600319011261011b576101876101c9565b6001546001600160a01b031633036101ba575f80546001600160a01b0319166001600160a01b0392909216919091179055005b6308f51d4b60e31b5f5260045ffd5b600435906001600160a01b038216820361011b5756fe60803460b357601f61260538819003918201601f19168301916001600160401b0383118484101760b75780849260809460405283398101031260b35760428160cb565b90604d6020820160cb565b606060596040840160cb565b92015160015f55600880546001600160a01b03199081166001600160a01b039687161790915560098054821693861693909317909255600a80549092169390921692909217909155600c5560405161252690816100df8239f35b5f80fd5b634e487b7160e01b5f52604160045260245ffd5b51906001600160a01b038216820360b35756fe60806040526004361015610011575f80fd5b5f5f3560e01c80630a861f2a146111cf578063136cf1f7146111b25780631aad44c21461119557806323aaf0bd1461115d578063367febea1461109e5780633ea1025f14610fa7578063456dc17a14610f7f578063482e17c31461090d5780634fd422df146108d45780636112fe2e1461063a5780636fb49d731461061c57806394877fc4146105fe5780639ab89f48146105e5578063a2f6ce75146103c6578063a6afed95146103aa578063b2016bd414610381578063ba7bde5514610363578063c45a01551461033a578063c8eb935114610162578063f79c3800146101215763f9ec9f2814610101575f80fd5b3461011e578060031936011261011e576020600b54604051908152f35b80fd5b503461011e57602036600319011261011e576020906001600160a01b036101466112ab565b16815260078252604060018060a01b0391205416604051908152f35b503461011e57606036600319011261011e5761017c6112ab565b906101856112c1565b338252600760205260408220546044359391906001600160a01b03161561032d575b831561031e576008546001600160a01b0383811691168114159081610297575b506102885792602091610229946101dc6114cc565b33855260078452604080862054905163c8eb935160e01b81526001600160a01b03938416600482015291831660248301526044820193909352948592909116908290859082906064820190565b03925af190811561027c5790610245575b602090604051908152f35b506020813d602011610274575b8161025f60209383611322565b81010312610270576020905161023a565b5f80fd5b3d9150610252565b604051903d90823e3d90fd5b636f4c40dd60e01b8352600483fd5b90503384526007602052602060018060a01b0360408620541691602460405180948193631e8323cd60e31b835260048301525afa9081156103135784916102e1575b50155f6101c7565b90506020813d60201161030b575b816102fc60209383611322565b8101031261027057515f6102d9565b3d91506102ef565b6040513d86823e3d90fd5b631f2a200560e01b8352600483fd5b6103356113e5565b6101a7565b503461011e578060031936011261011e57600a546040516001600160a01b039091168152602090f35b503461011e578060031936011261011e576020600254604051908152f35b503461011e578060031936011261011e576008546040516001600160a01b039091168152602090f35b503461011e578060031936011261011e576103c36114cc565b80f35b503461011e57606036600319011261011e576004356103e36112c1565b90604435918215928315036105e157338452600760205260408420546001600160a01b0316156105d4575b610416611522565b81156105c5573384526006602052604084205482116105b65783906104396114cc565b610451610448600354856112d7565b600454906112ea565b93338352600660205260408320610469858254611308565b905561047784600454611308565b60045561048685600354611308565b6003556009546001600160a01b0383811691161490816105ae575b50156105075750506009547f0e9c67d40f53b774c8aabf55769548d5afb11c3712274cd1a5de2a872db94e7f92906104e7908290309033906001600160a01b031661158a565b604080513381526020810192909252810191909152606090a16001815580f35b338252600760205260408220546001600160a01b0316803b1561059f57604051639d058e6760e01b8152600481018690526001600160a01b0392909216602483015282908290604490829084905af180156105a35761058a575b50507f0e9c67d40f53b774c8aabf55769548d5afb11c3712274cd1a5de2a872db94e7f916104e7565b8161059491611322565b61059f57825f610561565b8280fd5b6040513d84823e3d90fd5b90505f6104a1565b634d13059360e11b8452600484fd5b631f2a200560e01b8452600484fd5b6105dc6113e5565b61040e565b8380fd5b503461011e578060031936011261011e576103c36113e5565b503461011e578060031936011261011e576020600154604051908152f35b503461011e578060031936011261011e576020600c54604051908152f35b503461011e57602036600319011261011e5733815260076020526040812054600435906001600160a01b0316156108c7575b610674611522565b80156108b8576008543383526007602090815260408085205490516370a0823160e01b81526001600160a01b0391821660048201529283916024918391165afa908115610827578391610886575b50811161087757600482916106d56114cc565b600a54604051633900820160e21b81529260209184919082906001600160a01b03165afa918215610827578392610837575b50338352600760205260408320546001600160a01b0316803b15610832576040516302bd413360e21b8152600481019290925233602483015283908290604490829084905af190811561082757839161080f575b505033825260066020526040822054610777575b506001905580f35b600954600a543380855260076020908152604080872054600c54600354600454958a52600690945291882054919693956001600160a01b039182169594821694821693911691843b1561080b5788966107e792604051998a988997889763173478c760e11b89526004890161136c565b03915afa80156105a3571561076f578161080091611322565b61011e57805f61076f565b8880fd5b8161081991611322565b61082457815f61075b565b50fd5b6040513d85823e3d90fd5b505050fd5b9091506020813d60201161086f575b8161085360209383611322565b8101031261086b5761086490611358565b905f610707565b5050fd5b3d9150610846565b633a23d82560e01b8252600482fd5b90506020813d6020116108b0575b816108a160209383611322565b8101031261027057515f6106c2565b3d9150610894565b631f2a200560e01b8252600482fd5b6108cf6113e5565b61066c565b503461011e57602036600319011261011e576020906040906001600160a01b036108fc6112ab565b168152600683522054604051908152f35b5060603660031901126102705760243560043560443561092b611522565b6109336114cc565b60045480610f63575081925b335f52600660205260405f20610956858254611315565b905561096484600454611315565b938460045561097584600354611315565b948560035566038d7ea4c68000850285810466038d7ea4c680001486151715610f4f57670de0b6b3a76400009004956109ae8787611308565b600a54604051634673a21360e11b81529391926001600160a01b0390911691602085600481865afa948515610ebf575f95610f13575b506001548211610f0457604051633900820160e21b8152602081600481875afa908115610ebf575f91610eca575b50600954335f90815260076020908152604080832054600c5460069093529220546001600160a01b0393841697909591948416939092169190833b15610270575f95610a76916040519889978896879663173478c760e11b88528d6004890161136c565b03915afa8015610ebf57610eaa575b50468514610e5e5750600a546040516331d8733560e11b815290602090829060049082906001600160a01b03165afa908115610e53578991610e19575b5060405163550325b560e01b81526004810186905291906001600160a01b0316606083602481845afa928315610de6578a93610df1575b5060606024916040519283809263550325b560e01b82524660048301525afa908115610de6578a91610db4575b5060018060a01b036009541660405193632b0f76f560e11b8552876004860152886024860152602085604481855afa948515610da9578c95610d5e575b5060405163a692979360e01b815263ffffffff9190911660048201526024810184905291602090839060449082906001600160a01b03165afa918215610d1f578b92610d2a575b5060405163095ea7b360e01b81526001600160a01b03851660048201526024810184905290602090829060449082908f905af18015610d1f57610ce0575b5060095460405163a334defb60e01b815260048101939093523360248401526001600160a01b039081166044840152919260209284926064928492165af18015610cd557610c93575b506009547f66dd7e4c61f4b443be99281efbece3ebc180e5557480604aea7608ff6f0ff1e29660a09695949392610c70926001600160a01b0316611540565b604051933385526020850152604084015260608301526080820152a16001815580f35b6020959493929195813d602011610ccd575b81610cb260209383611322565b81010312610cc95750929391929091610c70610c31565b8780fd5b3d9150610ca5565b6040513d8a823e3d90fd5b6020813d602011610d17575b81610cf960209383611322565b81010312610d1357518015158103610d1357506064610be8565b8a80fd5b3d9150610cec565b6040513d8d823e3d90fd5b9091506020813d602011610d56575b81610d4660209383611322565b810103126102705751905f610baa565b3d9150610d39565b9094506020813d602011610da1575b81610d7a60209383611322565b81010312610d9d5763ffffffff6044610d94602093611358565b96925050610b63565b8b80fd5b3d9150610d6d565b6040513d8e823e3d90fd5b610dd6915060603d606011610ddf575b610dce8183611322565b8101906113af565b5090505f610b26565b503d610dc4565b6040513d8c823e3d90fd5b6024919350610e0e606091823d8411610ddf57610dce8183611322565b915050939150610af9565b90506020813d602011610e4b575b81610e3460209383611322565b8101031261080b57610e4590611358565b5f610ac2565b3d9150610e27565b6040513d8b823e3d90fd5b9660a09695949392610e96610ea5937f66dd7e4c61f4b443be99281efbece3ebc180e5557480604aea7608ff6f0ff1e29a3390611540565b600180891b0360095416611540565b610c70565b610eb79199505f90611322565b5f975f610a85565b6040513d5f823e3d90fd5b90506020813d602011610efc575b81610ee560209383611322565b8101031261027057610ef690611358565b5f610a12565b3d9150610ed8565b63bb55fd2760e01b5f5260045ffd5b9094506020813d602011610f47575b81610f2f60209383611322565b8101031261027057610f4090611358565b935f6109e4565b3d9150610f22565b634e487b7160e01b5f52601160045260245ffd5b610f70610f7991846112d7565b600354906112ea565b9261093f565b34610270575f366003190112610270576009546040516001600160a01b039091168152602090f35b3461027057602036600319011261027057600435610fc3611522565b801561108f577fb84c7ef8bee9fe7d403a64ab2705017891a18609ce1910007c1e674b7685815e90610ff36114cc565b600154806110745750805b335f52600560205260405f20611015838254611315565b905561102382600254611315565b60025561103281600154611315565b600155600954611050908290309033906001600160a01b031661158a565b60408051338152602081019290925281019190915280606081015b0390a160015f55005b61108990611084600254846112d7565b6112ea565b90610ffe565b631f2a200560e01b5f5260045ffd5b3461027057602036600319011261027057335f90815260076020526040902054600435906001600160a01b031615611150575b6110d9611522565b801561108f5761106b7ffef800959f37aa70fe9073f24093b307ae5952f0e34d164a48f279f6e4bc447c9161110c6114cc565b600854335f818152600760205260409020546111389284926001600160a01b039283169290911661158a565b60408051338152602081019290925290918291820190565b6111586113e5565b6110d1565b34610270576020366003190112610270576001600160a01b0361117e6112ab565b165f526005602052602060405f2054604051908152f35b34610270575f366003190112610270576020600354604051908152f35b34610270575f366003190112610270576020600454604051908152f35b34610270576020366003190112610270576004356111eb611522565b801561108f57335f52600560205260405f2054811161129c5761120c6114cc565b61122461121b600154836112d7565b600254906112ea565b90335f52600560205260405f2061123c828254611308565b905561124a81600254611308565b60025561125982600154611308565b8060015560035411610f0457816110507fac927268ea9ae2e55027e6ab727fc2db8e3ea48c56c658223a1074567e4298c0933360018060a01b0360095416611540565b633999656760e01b5f5260045ffd5b600435906001600160a01b038216820361027057565b602435906001600160a01b038216820361027057565b81810292918115918404141715610f4f57565b81156112f4570490565b634e487b7160e01b5f52601260045260245ffd5b91908203918211610f4f57565b91908201809211610f4f57565b90601f8019910116810190811067ffffffffffffffff82111761134457604052565b634e487b7160e01b5f52604160045260245ffd5b51906001600160a01b038216820361027057565b6001600160a01b039182168152918116602083015290911660408201526060810191909152608081019190915260a081019190915260c081019190915260e00190565b90816060910312610270576113c381611358565b9160406113d260208401611358565b92015163ffffffff811681036102705790565b335f908152600760205260409020546001600160a01b03166114bd57600854600954600a54604051926001600160a01b0390811692610ecc9283860192908116911667ffffffffffffffff83118684101761134457608094869461162586398352602083015230604083015260608201520301905ff08015610ebf5760407fcc3763c1c0784da97ef19dc776e12897dc1cfba3c2cab71b208490e993ba56949160018060a01b0316335f526007602052815f20816bffffffffffffffffffffffff60a01b8254161790558151903382526020820152a1565b6303c11e6760e21b5f5260045ffd5b600354600a810290808204600a1481151715610f4f576301e133806115036115199360646114fc600b5442611308565b91046112d7565b049061151182600154611315565b600155611315565b60035542600b55565b60025f54146115315760025f55565b633ee5aeb560e01b5f5260045ffd5b60405163a9059cbb60e01b60208201526001600160a01b03909216602483015260448201929092526115889161158382606481015b03601f198101845283611322565b6115cc565b565b6040516323b872dd60e01b60208201526001600160a01b0392831660248201529290911660448301526064820192909252611588916115838260848101611575565b905f602091828151910182855af115610ebf575f513d61161b57506001600160a01b0381163b155b6115fb5750565b635274afe760e01b5f9081526001600160a01b0391909116600452602490fd5b600114156115f456fe60803461012d57601f610ecc38819003918201601f19168301916001600160401b038311848410176101315780849260809460405283398101031261012d5761004781610145565b61005360208301610145565b9161006c606061006560408401610145565b9201610145565b60015f81905580546001600160a01b03199081166001600160a01b03958616908117909255600280548216968616969096179095556004805486169385169390931790925560058054851693909116929092179091556003805490921633179091556006545f19811461011957600101806006555f52600760205260405f208160018060a01b0319825416179055600654905f52600860205260405f2055604051610d72908161015a8239f35b634e487b7160e01b5f52601160045260245ffd5b5f80fd5b634e487b7160e01b5f52604160045260245ffd5b51906001600160a01b038216820361012d5756fe60806040526004361015610011575f80fd5b5f3560e01c80630af504cc146106565780631cb928a914610624578063513f7d1e1461042257806361bc221a146104055780636525f1ac146103dd5780638da5cb5b146103b55780639b4dc8cc1461038d5780639d058e67146101c3578063c45a01551461019b578063c8eb93511461016c578063cc0d55bf14610144578063dd9103cb146100e45763f4191e68146100a8575f80fd5b346100e05760203660031901126100e0576001600160a01b036100c96106e6565b165f526008602052602060405f2054604051908152f35b5f80fd5b346100e05760a03660031901126100e0576100fd6106e6565b6101056106d0565b6064356001600160a01b03811681036100e057608435906001600160a01b03821682036100e05760209361013c9360443591610b16565b604051908152f35b346100e0575f3660031901126100e0576001546040516001600160a01b039091168152602090f35b346100e05760603660031901126100e057602061013c61018a6106e6565b6101926106d0565b60443591610810565b346100e0575f3660031901126100e0576005546040516001600160a01b039091168152602090f35b346100e05760403660031901126100e0576004356101df6106d0565b6004546001600160a01b0316903382900361037e576040516370a0823160e01b81523060048201526001600160a01b03821692602082602481875afa918215610330575f9261034a575b506002546001600160a01b031684811461033b57505060025461029c91602091869161025e916001600160a01b031686610810565b6004805460405163095ea7b360e01b81526001600160a01b0390911691810191909152602481019290925294909283919082905f9082906044820190565b03925af18015610330576102f9575b506002546004546102ca9185916001600160a01b039081169116610cad565b6102d483836107f5565b6102db575b005b6102f36102d99360018060a01b0360025416936107f5565b91610810565b6020813d602011610328575b81610312602093836106fc565b810103126100e0575180151581146102ab575f80fd5b3d9150610305565b6040513d5f823e3d90fd5b915091506102d9939250610cad565b9091506020813d602011610376575b81610366602093836106fc565b810103126100e057519085610229565b3d9150610359565b633e615ac360e11b5f5260045ffd5b346100e0575f3660031901126100e0576004546040516001600160a01b039091168152602090f35b346100e0575f3660031901126100e0576003546040516001600160a01b039091168152602090f35b346100e0575f3660031901126100e0576002546040516001600160a01b039091168152602090f35b346100e0575f3660031901126100e0576020600654604051908152f35b346100e05760203660031901126100e0576001600160a01b036104436106e6565b166040516370a0823160e01b8152306004820152602081602481855afa908115610330575f916105f2575b5060405163313ce56760e01b8152602081600481865afa908115610330575f916105c3575b50600554604051630ea199ad60e11b81526004810194909452602090849060249082906001600160a01b03165afa9283156103305760049360a0915f91610594575b50604051633fabe5a360e21b815294859182905f196001861b01165afa928315610330575f9361055e575b50670de0b6b3a7640000830292808404670de0b6b3a7640000149015171561054a5761054460ff61053d61013c946305f5e10060209704906107b6565b92166107e7565b906107c9565b634e487b7160e01b5f52601160045260245ffd5b61058191935060a03d60a01161058d575b61057981836106fc565b810190610781565b50505090509183610500565b503d61056f565b6105b6915060203d6020116105bc575b6105ae81836106fc565b81019061074b565b856104d5565b503d6105a4565b6105e5915060203d6020116105eb575b6105dd81836106fc565b810190610732565b83610493565b503d6105d3565b90506020813d60201161061c575b8161060d602093836106fc565b810103126100e057518261046e565b3d9150610600565b346100e05760203660031901126100e0576004355f526007602052602060018060a01b0360405f205416604051908152f35b346100e05760403660031901126100e0576004356106726106d0565b6004546001600160a01b0316330361037e576020816106bd847fa8e76b822fc682be77f3b1c822ea81f6bda5aed92ba82e6873bfd889f328d1d29460018060a01b0360015416610cad565b6040519384526001600160a01b031692a2005b602435906001600160a01b03821682036100e057565b600435906001600160a01b03821682036100e057565b90601f8019910116810190811067ffffffffffffffff82111761071e57604052565b634e487b7160e01b5f52604160045260245ffd5b908160209103126100e0575160ff811681036100e05790565b908160209103126100e057516001600160a01b03811681036100e05790565b519069ffffffffffffffffffff821682036100e057565b908160a09103126100e0576107958161076a565b916020820151916040810151916107b360806060840151930161076a565b90565b8181029291811591840414171561054a57565b81156107d3570490565b634e487b7160e01b5f52601260045260245ffd5b604d811161054a57600a0a90565b9190820391821161054a57565b5f19811461054a5760010190565b6001600160a01b0381165f818152600860205260408120549094919391929015610ad0575b6001600160a01b0382165f8181526008602052604090205490929015610a8a575b6040516370a0823160e01b8152306004820152602081602481895afa908115610330575f91610a58575b506004546001600160a01b0316330361037e578415610a49578411610a3a57600554604051630ea199ad60e11b815260048101879052906001600160a01b0316602082602481845afa918215610330575f92610a15575b50602060249160405192838092630ea199ad60e11b82528960048301525afa928315610330576109109487925f956109f4575b50610b16565b93833b156100e057604051635071a0d760e11b8152600481018490525f8160248183895af18015610330576109e1575b50813b156109d357604051632919515160e01b815230600482015260248101869052818160448183875af180156109d6576109be575b50509160a0917fc665f2f5768a61c064dd66125ac01f65d2f20d35ebb13a292211bf50619d753e9360405192338452602084015260408301526060820152836080820152a190565b6109c98280926106fc565b6109d35780610976565b80fd5b6040513d84823e3d90fd5b6109ed91505f906106fc565b5f5f610940565b610a0e91955060203d6020116105bc576105ae81836106fc565b935f61090a565b6024919250610a32602091823d84116105bc576105ae81836106fc565b9291506108d7565b631e9acf1760e31b5f5260045ffd5b631f2a200560e01b5f5260045ffd5b90506020813d602011610a82575b81610a73602093836106fc565b810103126100e057515f610880565b3d9150610a66565b610a95600654610802565b806006555f52600760205260405f20836bffffffffffffffffffffffff60a01b825416179055600654835f52600860205260405f2055610856565b610adb600654610802565b806006555f52600760205260405f20846bffffffffffffffffffffffff60a01b825416179055600654845f52600860205260405f2055610835565b60405163313ce56760e01b8152949193929190602090869060049082906001600160a01b03165afa938415610330576004955f95610c8b575b5060405163313ce56760e01b81529560209187919082906001600160a01b03165afa928315610330576004955f94610c67575b50604051633fabe5a360e21b81529560a09187919082906001600160a01b03165afa908115610330576004955f92610c40575b50604051633fabe5a360e21b81529560a09187919082906001600160a01b03165afa91821561033057610c076105449460ff9461053d946107b3995f92610c12575b50610c0787610c0d9394166107e7565b906107b6565b6107c9565b610c0d925087610c33610c079260a03d60a01161058d5761057981836106fc565b5050509050935050610bf7565b60a0919250610c5b90823d841161058d5761057981836106fc565b50505090509190610bb5565b60a0919450610c849060203d6020116105eb576105dd81836106fc565b9390610b82565b6020919550610ca690823d84116105eb576105dd81836106fc565b9490610b4f565b60405163a9059cbb60e01b60208083019182526001600160a01b0394909416602483015260448083019590955293815290925f91610cec6064826106fc565b519082855af115610330575f513d610d3357506001600160a01b0381163b155b610d135750565b635274afe760e01b5f9081526001600160a01b0391909116600452602490fd5b60011415610d0c56fea2646970667358221220e265c6a587c0603a9430f5960c4dffee77f7cc224365be04c1dac58350491c3864736f6c634300081c0033a26469706673582212202612cd39ab0c8e39e2b811f90b800ec388598938b50e39f8edcb428c9ae8f7e864736f6c634300081c0033a26469706673582212201852a50ab30be19ae1b74321dd5d7314bc8945818e3eeffbb69476c76fbab4d164736f6c634300081c0033","linkReferences":{}},"methodIdentifiers":{"deployLendingPool(address,address,uint256)":"d2e24b87","factory()":"c45a0155","owner()":"8da5cb5b","setFactory(address)":"5bb47808"},"id":73}