{"abi":[{"type":"constructor","inputs":[],"stateMutability":"nonpayable"},{"type":"function","name":"deployLendingPool","inputs":[{"name":"_collateralToken","type":"address","internalType":"address"},{"name":"_borrowToken","type":"address","internalType":"address"},{"name":"_ltv","type":"uint256","internalType":"uint256"}],"outputs":[{"name":"","type":"address","internalType":"address"}],"stateMutability":"nonpayable"},{"type":"function","name":"factory","inputs":[],"outputs":[{"name":"","type":"address","internalType":"address"}],"stateMutability":"view"},{"type":"function","name":"owner","inputs":[],"outputs":[{"name":"","type":"address","internalType":"address"}],"stateMutability":"view"},{"type":"function","name":"setFactory","inputs":[{"name":"_factory","type":"address","internalType":"address"}],"outputs":[],"stateMutability":"nonpayable"},{"type":"error","name":"OnlyFactoryCanCall","inputs":[]},{"type":"error","name":"OnlyOwnerCanCall","inputs":[]}],"bytecode":{"object":"0x60808060405234602757600180546001600160a01b03191633179055612769908161002c8239f35b5f80fdfe60806040526004361015610011575f80fd5b5f3560e01c80635bb478081461016e5780638da5cb5b14610146578063c45a01551461011f5763d2e24b8714610045575f80fd5b3461011b57606036600319011261011b5761005e6101c9565b6024356001600160a01b038116919082900361011b575f546001600160a01b03163381900361010c5760405192612554918285019185831067ffffffffffffffff8411176100f85760809486946101e086396001600160a01b031683526020830152604082015260443560608201520301905ff080156100ed576040516001600160a01b039091168152602090f35b6040513d5f823e3d90fd5b634e487b7160e01b5f52604160045260245ffd5b63011a72f560e11b5f5260045ffd5b5f80fd5b3461011b575f36600319011261011b575f546040516001600160a01b039091168152602090f35b3461011b575f36600319011261011b576001546040516001600160a01b039091168152602090f35b3461011b57602036600319011261011b576101876101c9565b6001546001600160a01b031633036101ba575f80546001600160a01b0319166001600160a01b0392909216919091179055005b6308f51d4b60e31b5f5260045ffd5b600435906001600160a01b038216820361011b5756fe60803460b357601f61255438819003918201601f19168301916001600160401b0383118484101760b75780849260809460405283398101031260b35760428160cb565b90604d6020820160cb565b606060596040840160cb565b92015160015f55600880546001600160a01b03199081166001600160a01b039687161790915560098054821693861693909317909255600a80549092169390921692909217909155600c5560405161247590816100df8239f35b5f80fd5b634e487b7160e01b5f52604160045260245ffd5b51906001600160a01b038216820360b35756fe60806040526004361015610011575f80fd5b5f5f3560e01c80630a861f2a14611146578063136cf1f7146111295780631aad44c21461110c57806323aaf0bd146110d4578063367febea146110395780633ea1025f14610f42578063456dc17a14610f1a578063482e17c3146108a85780634fd422df1461086f5780636112fe2e146105f75780636fb49d73146105d957806394877fc4146105bb5780639ab89f48146105a2578063a2f6ce75146103a4578063a6afed9514610388578063b2016bd41461035f578063ba7bde5514610341578063c45a015514610318578063c8eb935114610162578063f79c3800146101215763f9ec9f2814610101575f80fd5b3461011e578060031936011261011e576020600b54604051908152f35b80fd5b503461011e57602036600319011261011e576020906001600160a01b03610146611222565b16815260078252604060018060a01b0391205416604051908152f35b503461011e57606036600319011261011e5761017c611222565b90610185611238565b9160443592610192611501565b8315610309576008546001600160a01b0383811691168114159081610282575b506102735792602091610214946101c7611443565b33855260078452604080862054905163c8eb935160e01b81526001600160a01b03938416600482015291831660248301526044820193909352948592909116908290859082906064820190565b03925af19081156102675790610230575b602090604051908152f35b506020813d60201161025f575b8161024a60209383611299565b8101031261025b5760209051610225565b5f80fd5b3d915061023d565b604051903d90823e3d90fd5b636f4c40dd60e01b8352600483fd5b90503384526007602052602060018060a01b0360408620541691602460405180948193631e8323cd60e31b835260048301525afa9081156102fe5784916102cc575b50155f6101b2565b90506020813d6020116102f6575b816102e760209383611299565b8101031261025b57515f6102c4565b3d91506102da565b6040513d86823e3d90fd5b631f2a200560e01b8352600483fd5b503461011e578060031936011261011e57600a546040516001600160a01b039091168152602090f35b503461011e578060031936011261011e576020600254604051908152f35b503461011e578060031936011261011e576008546040516001600160a01b039091168152602090f35b503461011e578060031936011261011e576103a1611443565b80f35b503461011e57606036600319011261011e576004356103c1611238565b906044359182159283150361059e576103d8611501565b6103e0611499565b811561058f57338452600660205260408420548211610580578390610403611443565b61041b6104126003548561124e565b60045490611261565b9333835260066020526040832061043385825461127f565b90556104418460045461127f565b6004556104508560035461127f565b6003556009546001600160a01b038381169116149081610578575b50156104d15750506009547f0e9c67d40f53b774c8aabf55769548d5afb11c3712274cd1a5de2a872db94e7f92906104b1908290309033906001600160a01b0316611528565b604080513381526020810192909252810191909152606090a16001815580f35b338252600760205260408220546001600160a01b0316803b1561056957604051639d058e6760e01b8152600481018690526001600160a01b0392909216602483015282908290604490829084905af1801561056d57610554575b50507f0e9c67d40f53b774c8aabf55769548d5afb11c3712274cd1a5de2a872db94e7f916104b1565b8161055e91611299565b61056957825f61052b565b8280fd5b6040513d84823e3d90fd5b90505f61046b565b634d13059360e11b8452600484fd5b631f2a200560e01b8452600484fd5b8380fd5b503461011e578060031936011261011e576103a161135c565b503461011e578060031936011261011e576020600154604051908152f35b503461011e578060031936011261011e576020600c54604051908152f35b503461011e57602036600319011261011e57600435610614611501565b61061c611499565b8015610860576008543383526007602090815260408085205490516370a0823160e01b81526001600160a01b0391821660048201529283916024918391165afa9081156107cf57839161082e575b50811161081f576004829161067d611443565b600a54604051633900820160e21b81529260209184919082906001600160a01b03165afa9182156107cf5783926107df575b50338352600760205260408320546001600160a01b0316803b156107da576040516302bd413360e21b8152600481019290925233602483015283908290604490829084905af19081156107cf5783916107b7575b50503382526006602052604082205461071f575b506001905580f35b600954600a543380855260076020908152604080872054600c54600354600454958a52600690945291882054919693956001600160a01b039182169594821694821693911691843b156107b357889661078f92604051998a988997889763173478c760e11b8952600489016112e3565b03915afa801561056d571561071757816107a891611299565b61011e57805f610717565b8880fd5b816107c191611299565b6107cc57815f610703565b50fd5b6040513d85823e3d90fd5b505050fd5b9091506020813d602011610817575b816107fb60209383611299565b810103126108135761080c906112cf565b905f6106af565b5050fd5b3d91506107ee565b633a23d82560e01b8252600482fd5b90506020813d602011610858575b8161084960209383611299565b8101031261025b57515f61066a565b3d915061083c565b631f2a200560e01b8252600482fd5b503461011e57602036600319011261011e576020906040906001600160a01b03610897611222565b168152600683522054604051908152f35b50606036600319011261025b576024356004356044356108c6611499565b6108ce611443565b60045480610efe575081925b335f52600660205260405f206108f185825461128c565b90556108ff8460045461128c565b93846004556109108460035461128c565b948560035566038d7ea4c68000850285810466038d7ea4c680001486151715610eea57670de0b6b3a7640000900495610949878761127f565b600a54604051634673a21360e11b81529391926001600160a01b0390911691602085600481865afa948515610e5a575f95610eae575b506001548211610e9f57604051633900820160e21b8152602081600481875afa908115610e5a575f91610e65575b50600954335f90815260076020908152604080832054600c5460069093529220546001600160a01b0393841697909591948416939092169190833b1561025b575f95610a11916040519889978896879663173478c760e11b88528d600489016112e3565b03915afa8015610e5a57610e45575b50468514610df95750600a546040516331d8733560e11b815290602090829060049082906001600160a01b03165afa908115610dee578991610db4575b5060405163550325b560e01b81526004810186905291906001600160a01b0316606083602481845afa928315610d81578a93610d8c575b5060606024916040519283809263550325b560e01b82524660048301525afa908115610d81578a91610d4f575b5060018060a01b036009541660405193632b0f76f560e11b8552876004860152886024860152602085604481855afa948515610d44578c95610cf9575b5060405163a692979360e01b815263ffffffff9190911660048201526024810184905291602090839060449082906001600160a01b03165afa918215610cba578b92610cc5575b5060405163095ea7b360e01b81526001600160a01b03851660048201526024810184905290602090829060449082908f905af18015610cba57610c7b575b5060095460405163a334defb60e01b815260048101939093523360248401526001600160a01b039081166044840152919260209284926064928492165af18015610c7057610c2e575b506009547f66dd7e4c61f4b443be99281efbece3ebc180e5557480604aea7608ff6f0ff1e29660a09695949392610c0b926001600160a01b03166114b7565b604051933385526020850152604084015260608301526080820152a16001815580f35b6020959493929195813d602011610c68575b81610c4d60209383611299565b81010312610c645750929391929091610c0b610bcc565b8780fd5b3d9150610c40565b6040513d8a823e3d90fd5b6020813d602011610cb2575b81610c9460209383611299565b81010312610cae57518015158103610cae57506064610b83565b8a80fd5b3d9150610c87565b6040513d8d823e3d90fd5b9091506020813d602011610cf1575b81610ce160209383611299565b8101031261025b5751905f610b45565b3d9150610cd4565b9094506020813d602011610d3c575b81610d1560209383611299565b81010312610d385763ffffffff6044610d2f6020936112cf565b96925050610afe565b8b80fd5b3d9150610d08565b6040513d8e823e3d90fd5b610d71915060603d606011610d7a575b610d698183611299565b810190611326565b5090505f610ac1565b503d610d5f565b6040513d8c823e3d90fd5b6024919350610da9606091823d8411610d7a57610d698183611299565b915050939150610a94565b90506020813d602011610de6575b81610dcf60209383611299565b810103126107b357610de0906112cf565b5f610a5d565b3d9150610dc2565b6040513d8b823e3d90fd5b9660a09695949392610e31610e40937f66dd7e4c61f4b443be99281efbece3ebc180e5557480604aea7608ff6f0ff1e29a33906114b7565b600180891b03600954166114b7565b610c0b565b610e529199505f90611299565b5f975f610a20565b6040513d5f823e3d90fd5b90506020813d602011610e97575b81610e8060209383611299565b8101031261025b57610e91906112cf565b5f6109ad565b3d9150610e73565b63bb55fd2760e01b5f5260045ffd5b9094506020813d602011610ee2575b81610eca60209383611299565b8101031261025b57610edb906112cf565b935f61097f565b3d9150610ebd565b634e487b7160e01b5f52601160045260245ffd5b610f0b610f14918461124e565b60035490611261565b926108da565b3461025b575f36600319011261025b576009546040516001600160a01b039091168152602090f35b3461025b57602036600319011261025b57600435610f5e611499565b801561102a577fb84c7ef8bee9fe7d403a64ab2705017891a18609ce1910007c1e674b7685815e90610f8e611443565b6001548061100f5750805b335f52600560205260405f20610fb083825461128c565b9055610fbe8260025461128c565b600255610fcd8160015461128c565b600155600954610feb908290309033906001600160a01b0316611528565b60408051338152602081019290925281019190915280606081015b0390a160015f55005b6110249061101f6002548461124e565b611261565b90610f99565b631f2a200560e01b5f5260045ffd5b3461025b57602036600319011261025b57600435611055611501565b61105d611499565b801561102a576110067ffef800959f37aa70fe9073f24093b307ae5952f0e34d164a48f279f6e4bc447c91611090611443565b600854335f818152600760205260409020546110bc9284926001600160a01b0392831692909116611528565b60408051338152602081019290925290918291820190565b3461025b57602036600319011261025b576001600160a01b036110f5611222565b165f526005602052602060405f2054604051908152f35b3461025b575f36600319011261025b576020600354604051908152f35b3461025b575f36600319011261025b576020600454604051908152f35b3461025b57602036600319011261025b57600435611162611499565b801561102a57335f52600560205260405f2054811161121357611183611443565b61119b6111926001548361124e565b60025490611261565b90335f52600560205260405f206111b382825461127f565b90556111c18160025461127f565b6002556111d08260015461127f565b8060015560035411610e9f5781610feb7fac927268ea9ae2e55027e6ab727fc2db8e3ea48c56c658223a1074567e4298c0933360018060a01b03600954166114b7565b633999656760e01b5f5260045ffd5b600435906001600160a01b038216820361025b57565b602435906001600160a01b038216820361025b57565b81810292918115918404141715610eea57565b811561126b570490565b634e487b7160e01b5f52601260045260245ffd5b91908203918211610eea57565b91908201809211610eea57565b90601f8019910116810190811067ffffffffffffffff8211176112bb57604052565b634e487b7160e01b5f52604160045260245ffd5b51906001600160a01b038216820361025b57565b6001600160a01b039182168152918116602083015290911660408201526060810191909152608081019190915260a081019190915260c081019190915260e00190565b9081606091031261025b5761133a816112cf565b916040611349602084016112cf565b92015163ffffffff8116810361025b5790565b335f908152600760205260409020546001600160a01b031661143457600854600954600a54604051926001600160a01b0390811692610e7d9283860192908116911667ffffffffffffffff8311868410176112bb5760809486946115c386398352602083015230604083015260608201520301905ff08015610e5a5760407fcc3763c1c0784da97ef19dc776e12897dc1cfba3c2cab71b208490e993ba56949160018060a01b0316335f526007602052815f20816bffffffffffffffffffffffff60a01b8254161790558151903382526020820152a1565b6303c11e6760e21b5f5260045ffd5b600354600a810290808204600a1481151715610eea576301e1338061147a611490936064611473600b544261127f565b910461124e565b04906114888260015461128c565b60015561128c565b60035542600b55565b60025f54146114a85760025f55565b633ee5aeb560e01b5f5260045ffd5b60405163a9059cbb60e01b60208201526001600160a01b03909216602483015260448201929092526114ff916114fa82606481015b03601f198101845283611299565b61156a565b565b335f908152600760205260409020546001600160a01b03161561152057565b6114ff61135c565b6040516323b872dd60e01b60208201526001600160a01b03928316602482015292909116604483015260648201929092526114ff916114fa82608481016114ec565b905f602091828151910182855af115610e5a575f513d6115b957506001600160a01b0381163b155b6115995750565b635274afe760e01b5f9081526001600160a01b0391909116600452602490fd5b6001141561159256fe60803461012d57601f610e7d38819003918201601f19168301916001600160401b038311848410176101315780849260809460405283398101031261012d5761004781610145565b61005360208301610145565b9161006c606061006560408401610145565b9201610145565b60015f81905580546001600160a01b03199081166001600160a01b03958616908117909255600280548216968616969096179095556004805486169385169390931790925560058054851693909116929092179091556003805490921633179091556006545f19811461011957600101806006555f52600760205260405f208160018060a01b0319825416179055600654905f52600860205260405f2055604051610d23908161015a8239f35b634e487b7160e01b5f52601160045260245ffd5b5f80fd5b634e487b7160e01b5f52604160045260245ffd5b51906001600160a01b038216820361012d5756fe60806040526004361015610011575f80fd5b5f3560e01c80630af504cc146106565780631cb928a914610624578063513f7d1e1461042257806361bc221a146104055780636525f1ac146103dd5780638da5cb5b146103b55780639b4dc8cc1461038d5780639d058e67146101c3578063c45a01551461019b578063c8eb93511461016c578063cc0d55bf14610144578063dd9103cb146100e45763f4191e68146100a8575f80fd5b346100e05760203660031901126100e0576001600160a01b036100c96106e6565b165f526008602052602060405f2054604051908152f35b5f80fd5b346100e05760a03660031901126100e0576100fd6106e6565b6101056106d0565b6064356001600160a01b03811681036100e057608435906001600160a01b03821682036100e05760209361013c9360443591610a62565b604051908152f35b346100e0575f3660031901126100e0576001546040516001600160a01b039091168152602090f35b346100e05760603660031901126100e057602061013c61018a6106e6565b6101926106d0565b60443591610802565b346100e0575f3660031901126100e0576005546040516001600160a01b039091168152602090f35b346100e05760403660031901126100e0576004356101df6106d0565b6004546001600160a01b0316903382900361037e576040516370a0823160e01b81523060048201526001600160a01b03821692602082602481875afa918215610330575f9261034a575b506002546001600160a01b031684811461033b57505060025461029c91602091869161025e916001600160a01b031686610802565b6004805460405163095ea7b360e01b81526001600160a01b0390911691810191909152602481019290925294909283919082905f9082906044820190565b03925af18015610330576102f9575b506002546004546102ca9185916001600160a01b039081169116610bf9565b6102d483836107f5565b6102db575b005b6102f36102d99360018060a01b0360025416936107f5565b91610802565b6020813d602011610328575b81610312602093836106fc565b810103126100e0575180151581146102ab575f80fd5b3d9150610305565b6040513d5f823e3d90fd5b915091506102d9939250610bf9565b9091506020813d602011610376575b81610366602093836106fc565b810103126100e057519085610229565b3d9150610359565b633e615ac360e11b5f5260045ffd5b346100e0575f3660031901126100e0576004546040516001600160a01b039091168152602090f35b346100e0575f3660031901126100e0576003546040516001600160a01b039091168152602090f35b346100e0575f3660031901126100e0576002546040516001600160a01b039091168152602090f35b346100e0575f3660031901126100e0576020600654604051908152f35b346100e05760203660031901126100e0576001600160a01b036104436106e6565b166040516370a0823160e01b8152306004820152602081602481855afa908115610330575f916105f2575b5060405163313ce56760e01b8152602081600481865afa908115610330575f916105c3575b50600554604051630ea199ad60e11b81526004810194909452602090849060249082906001600160a01b03165afa9283156103305760049360a0915f91610594575b50604051633fabe5a360e21b815294859182905f196001861b01165afa928315610330575f9361055e575b50670de0b6b3a7640000830292808404670de0b6b3a7640000149015171561054a5761054460ff61053d61013c946305f5e10060209704906107b6565b92166107e7565b906107c9565b634e487b7160e01b5f52601160045260245ffd5b61058191935060a03d60a01161058d575b61057981836106fc565b810190610781565b50505090509183610500565b503d61056f565b6105b6915060203d6020116105bc575b6105ae81836106fc565b81019061074b565b856104d5565b503d6105a4565b6105e5915060203d6020116105eb575b6105dd81836106fc565b810190610732565b83610493565b503d6105d3565b90506020813d60201161061c575b8161060d602093836106fc565b810103126100e057518261046e565b3d9150610600565b346100e05760203660031901126100e0576004355f526007602052602060018060a01b0360405f205416604051908152f35b346100e05760403660031901126100e0576004356106726106d0565b6004546001600160a01b0316330361037e576020816106bd847fa8e76b822fc682be77f3b1c822ea81f6bda5aed92ba82e6873bfd889f328d1d29460018060a01b0360015416610bf9565b6040519384526001600160a01b031692a2005b602435906001600160a01b03821682036100e057565b600435906001600160a01b03821682036100e057565b90601f8019910116810190811067ffffffffffffffff82111761071e57604052565b634e487b7160e01b5f52604160045260245ffd5b908160209103126100e0575160ff811681036100e05790565b908160209103126100e057516001600160a01b03811681036100e05790565b519069ffffffffffffffffffff821682036100e057565b908160a09103126100e0576107958161076a565b916020820151916040810151916107b360806060840151930161076a565b90565b8181029291811591840414171561054a57565b81156107d3570490565b634e487b7160e01b5f52601260045260245ffd5b604d811161054a57600a0a90565b9190820391821161054a57565b90915f9261080f83610c88565b61081881610c88565b6040516370a0823160e01b81523060048201526001600160a01b0384169390602081602481885afa908115610330575f91610a30575b506004546001600160a01b0316330361037e578315610a21578311610a1257600554604051630ea199ad60e11b8152600481018690526001600160a01b039091169290602081602481875afa908115610330575f916109f3575b50604051630ea199ad60e11b81526001600160a01b0383166004820181905294602090829060249082905afa928315610330576108ee9487925f956109d2575b50610a62565b93833b156100e057604051635071a0d760e11b8152600481018490525f8160248183895af18015610330576109bf575b50813b156109b157604051632919515160e01b815230600482015260248101869052818160448183875af180156109b45761099c575b50509160a0917fc665f2f5768a61c064dd66125ac01f65d2f20d35ebb13a292211bf50619d753e9360405192338452602084015260408301526060820152836080820152a190565b6109a78280926106fc565b6109b15780610954565b80fd5b6040513d84823e3d90fd5b6109cb91505f906106fc565b5f5f61091e565b6109ec91955060203d6020116105bc576105ae81836106fc565b935f6108e8565b610a0c915060203d6020116105bc576105ae81836106fc565b5f6108a8565b631e9acf1760e31b5f5260045ffd5b631f2a200560e01b5f5260045ffd5b90506020813d602011610a5a575b81610a4b602093836106fc565b810103126100e057515f61084e565b3d9150610a3e565b60405163313ce56760e01b8152949193929190602090869060049082906001600160a01b03165afa938415610330576004955f95610bd7575b5060405163313ce56760e01b81529560209187919082906001600160a01b03165afa928315610330576004955f94610bb3575b50604051633fabe5a360e21b81529560a09187919082906001600160a01b03165afa908115610330576004955f92610b8c575b50604051633fabe5a360e21b81529560a09187919082906001600160a01b03165afa91821561033057610b536105449460ff9461053d946107b3995f92610b5e575b50610b5387610b599394166107e7565b906107b6565b6107c9565b610b59925087610b7f610b539260a03d60a01161058d5761057981836106fc565b5050509050935050610b43565b60a0919250610ba790823d841161058d5761057981836106fc565b50505090509190610b01565b60a0919450610bd09060203d6020116105eb576105dd81836106fc565b9390610ace565b6020919550610bf290823d84116105eb576105dd81836106fc565b9490610a9b565b60405163a9059cbb60e01b60208083019182526001600160a01b0394909416602483015260448083019590955293815290925f91610c386064826106fc565b519082855af115610330575f513d610c7f57506001600160a01b0381163b155b610c5f5750565b635274afe760e01b5f9081526001600160a01b0391909116600452602490fd5b60011415610c58565b6001600160a01b03165f8181526008602052604090205415610ca75750565b6006545f19811461054a57600101806006555f52600760205260405f20816bffffffffffffffffffffffff60a01b825416179055600654905f52600860205260405f205556fea26469706673582212201e38e136244e7d93cc9e14cfba20b94f365e304f6f7c9c26fa6758288ace717f64736f6c634300081c0033a2646970667358221220f25a360b750a873f03383df44f23aca877801518f7e0a6e03516ae77f182d72d64736f6c634300081c0033a2646970667358221220298882d2c2e0996eb5a243c0e390a96821f6a16c8a42d99f0b8f4feb2d7d2c0264736f6c634300081c0033","linkReferences":{}},"methodIdentifiers":{"deployLendingPool(address,address,uint256)":"d2e24b87","factory()":"c45a0155","owner()":"8da5cb5b","setFactory(address)":"5bb47808"},"id":41}