{"abi":[{"type":"constructor","inputs":[],"stateMutability":"nonpayable"},{"type":"function","name":"addChain","inputs":[{"name":"_mailbox","type":"address","internalType":"address"},{"name":"_gasMaster","type":"address","internalType":"address"},{"name":"_domainId","type":"uint32","internalType":"uint32"},{"name":"_chainId","type":"uint256","internalType":"uint256"}],"outputs":[],"stateMutability":"nonpayable"},{"type":"function","name":"addReceiverBridge","inputs":[{"name":"_chainId","type":"uint256","internalType":"uint256"},{"name":"_receiverBridge","type":"address","internalType":"address"}],"outputs":[],"stateMutability":"nonpayable"},{"type":"function","name":"chainId","inputs":[],"outputs":[{"name":"","type":"uint256","internalType":"uint256"}],"stateMutability":"view"},{"type":"function","name":"chains","inputs":[{"name":"","type":"uint256","internalType":"uint256"}],"outputs":[{"name":"mailbox","type":"address","internalType":"address"},{"name":"gasMaster","type":"address","internalType":"address"},{"name":"domainId","type":"uint32","internalType":"uint32"}],"stateMutability":"view"},{"type":"function","name":"owner","inputs":[],"outputs":[{"name":"","type":"address","internalType":"address"}],"stateMutability":"view"},{"type":"function","name":"receiverBridge","inputs":[{"name":"","type":"uint256","internalType":"uint256"}],"outputs":[{"name":"","type":"address","internalType":"address"}],"stateMutability":"view"},{"type":"function","name":"updateChain","inputs":[{"name":"_chainId","type":"uint256","internalType":"uint256"},{"name":"_mailbox","type":"address","internalType":"address"},{"name":"_gasMaster","type":"address","internalType":"address"},{"name":"_domainId","type":"uint32","internalType":"uint32"}],"outputs":[],"stateMutability":"nonpayable"},{"type":"error","name":"ChainAlreadyExists","inputs":[]},{"type":"error","name":"NotOwner","inputs":[]},{"type":"error","name":"TokenAlreadyExists","inputs":[]},{"type":"error","name":"TokenNotExists","inputs":[]}],"bytecode":{"object":"0x608060405234611c5957600280546001600160a01b0319163317905546600355610027611c5d565b7328f448885beaaf662f8a9a6c9af20fad17a5a1dc815273baae1b4e953190b05c757f69b2f6c46b9548fa4f6020808301918252612b74604084018181525f918252915291517f1a43797f87d82bb38ddebe4565dbeefa184b8f12e479fb57ab61b79b39810a7380546001600160a01b0319166001600160a01b0392831617905590517f1a43797f87d82bb38ddebe4565dbeefa184b8f12e479fb57ab61b79b39810a74805493516001600160c01b0319909416919092161760a09290921b63ffffffff60a01b169190911790556100fd611c5d565b5f5160206121175f395f51905f52815273867f2089d09903f208aecac84e599b90e5a4a82160208083019182526107f7604084018181525f918252915291517f34a8aeeed535f2c962ea64936b03fe62ce9e45982634cb03594915cc0041350780546001600160a01b0319166001600160a01b0392831617905590517f34a8aeeed535f2c962ea64936b03fe62ce9e45982634cb03594915cc00413508805493516001600160c01b0319909416919092161760a09290921b63ffffffff60a01b169190911790556101cc611c5d565b73ef9f292fcebc3848bf4bb92a96a04f9ecbb78e5981527344769b0f4a6f01339e131a691cc2eebbb519d297602080830191825261aef3604084018181525f918252915291517f2cebe866e5e5c5aa6d9ac68ee8f86d67e9fddd6096bd11f4c1b14b6577dc88e380546001600160a01b0319166001600160a01b0392831617905590517f2cebe866e5e5c5aa6d9ac68ee8f86d67e9fddd6096bd11f4c1b14b6577dc88e4805493516001600160c01b0319909416919092161760a09290921b63ffffffff60a01b169190911790556102a2611c5d565b73eece1088fd44e74eb7b0045a4798a4c97a8143dc815273df2706ad5966ac71c9016b4a4f93c9054e48f54b602080830191825262066eee604084018181525f918252915291517f066621a05927b604385ee46fd7d10ec678ba00697503032f09bed59d83722bd680546001600160a01b0319166001600160a01b0392831617905590517f066621a05927b604385ee46fd7d10ec678ba00697503032f09bed59d83722bd7805493516001600160c01b0319909416919092161760a09290921b63ffffffff60a01b16919091179055610379611c5d565b73743ff3d08e13af951e4b60017cf261bfc8457ae4815273677a021bdf36a7409d02a974cb6e19ee4c2f0632602080830191825262014a34604084018181525f918252915291517f533dd6bef96ee313c941b50d2e963b8f6457fb1fd623b2f4f3e4f590e82b1ca980546001600160a01b0319166001600160a01b0392831617905590517f533dd6bef96ee313c941b50d2e963b8f6457fb1fd623b2f4f3e4f590e82b1caa805493516001600160c01b0319909416919092161760a09290921b63ffffffff60a01b16919091179055610450611c5d565b73f9f6f5646f478d5ab4e20b0f910c92f1ccc9cc6d8152730dd20e410bdb95404f71c5a4e7fa67b892a5f94960208083019182526061604084018181525f918252915291517fd376c0dc9e6a0a44867c5e1fefd6ecef82bbd522b0a13a792fef5100445ee32380546001600160a01b0319166001600160a01b0392831617905590517fd376c0dc9e6a0a44867c5e1fefd6ecef82bbd522b0a13a792fef5100445ee324805493516001600160c01b0319909416919092161760a09290921b63ffffffff60a01b16919091179055610525611c5d565b735b6cff85442b851a8e6eabd2a4e4507b5135b3b08152736895d3916b94b386faa6ec9276756e16dae7480e602080830191825261a869604084018181525f918252915291517f87d59864ba1327a8e4317f20b859a33d394f374a576a795c55e739231748964280546001600160a01b0319166001600160a01b0392831617905590517f87d59864ba1327a8e4317f20b859a33d394f374a576a795c55e7392317489643805493516001600160c01b0319909416919092161760a09290921b63ffffffff60a01b169190911790556105fb611c5d565b7346f7c5d896bbec89be1b19e4485e59b4be49e9cc8152735cbf4e70448ed46c2616b04e9ebc72d29ff0cfa96020808301918252614268604084018181525f918252915291517fcb2801531bfd0857045854a8e8a1549cfad6aa973786285ee2aec3b5361f3f0880546001600160a01b0319166001600160a01b0392831617905590517fcb2801531bfd0857045854a8e8a1549cfad6aa973786285ee2aec3b5361f3f09805493516001600160c01b0319909416919092161760a09290921b63ffffffff60a01b169190911790556106d1611c5d565b736966b0e55883d49bfb24539356a2f8a673e0203981527328b02b97a850872c4d33c3e024fab6499ad96564602080830191825262aa37dc604084018181525f918252915291515f5160206121f75f395f51905f5280546001600160a01b0319166001600160a01b0392831617905590515f5160206121775f395f51905f52805493516001600160c01b0319909416919092161760a09290921b63ffffffff60a01b16919091179055610782611c5d565b7354148470292c24345fb828b003461a94444145178152736c13643b3927c57db92c790e4e3e7ee81e13f78c602080830191825262013882604084018181525f918252915291515f5160206122375f395f51905f5280546001600160a01b0319166001600160a01b0392831617905590515f5160206120775f395f51905f52805493516001600160c01b0319909416919092161760a09290921b63ffffffff60a01b16919091179055610833611c5d565b733c5154a193d6e2955650f9305c8d80c18c814a6881527386fb9f1c124fb20ff130c41a79a432f770f67afd60208083019182526208274f604084018181525f918252915291515f5160206121575f395f51905f5280546001600160a01b0319166001600160a01b0392831617905590515f5160206121d75f395f51905f52805493516001600160c01b0319909416919092161760a09290921b63ffffffff60a01b169190911790556108e4611c5d565b73ffaef09b3cd11d9b20d1a19becca54eec28847668152736f2756380fd49228ae25aa7f2817993cb74ecc56602080830191825262aa36a7604084018181525f918252915291515f5160206122775f395f51905f5280546001600160a01b0319166001600160a01b0392831617905590515f5160206121375f395f51905f52805493516001600160c01b0319909416919092161760a09290921b63ffffffff60a01b16919091179055610995611c5d565b5f5160206121175f395f51905f52815273a3ab7e6ce24e6293bd5320a53329ef2f4de73fca6020808301918252610515604084018181525f918252915291515f5160206120975f395f51905f5280546001600160a01b0319166001600160a01b0392831617905590515f5160206120d75f395f51905f52805493516001600160c01b0319909416919092161760a09290921b63ffffffff60a01b16919091179055610a3e611c5d565b5f5160206121175f395f51905f52815273a2cf52064c921c11adcd83588cbea08cc3bff5d86020808301918252630201188a604084018181525f918252915291515f5160206122175f395f51905f5280546001600160a01b0319166001600160a01b0392831617905590515f5160206120f75f395f51905f52805493516001600160c01b0319909416919092161760a09290921b63ffffffff60a01b16919091179055610ae9611c5d565b5f5160206121175f395f51905f52815273d356c996277efb7f75ee8bd61b31cc781a12f54f6020808301918252620de9fb604084018181525f918252915291515f5160206121b75f395f51905f5280546001600160a01b0319166001600160a01b0392831617905590515f5160206121975f395f51905f52805493516001600160c01b0319909416919092161760a09290921b63ffffffff60a01b16919091179055610b93611c5d565b5f5160206122575f395f51905f52815273b261c52241e133f957630aeefed48a82963ac33e6020808301918252610397604084018181525f918252915291515f5160206122975f395f51905f5280546001600160a01b0319166001600160a01b0392831617905590515f5160206120b75f395f51905f52805493516001600160c01b0319909416919092161760a09290921b63ffffffff60a01b16919091179055610c3c611c5d565b73f78dece5cf97e1bd61c202a5ba1af33b87454878815273638a831b4d11be6a72acb97d1ae79da05ae9b1d360208083019182526118c6604084018181525f918252915291517fa48165cf5925c4d2343344993655217e5d1102e606447aa33381a847ef0f5a6880546001600160a01b0319166001600160a01b0392831617905590517fa48165cf5925c4d2343344993655217e5d1102e606447aa33381a847ef0f5a69805493516001600160c01b0319909416919092161760a09290921b63ffffffff60a01b16919091179055610d12611c5d565b5f5160206122575f395f51905f52815273b261c52241e133f957630aeefed48a82963ac33e6020808301918252610397604084018181525f918252915291515f5160206122975f395f51905f5280546001600160a01b0319166001600160a01b0392831617905590515f5160206120b75f395f51905f52805493516001600160c01b0319909416919092161760a09290921b63ffffffff60a01b16919091179055610dbb611c5d565b5f5160206122575f395f51905f528152738584590ad637c61c7cdf72eff3381ee1c3d1bc8e602080830191825261279f604084018181525f918252915291517f10394e4c2e32639e7995c740a29513bbff77c204f584a363ab08adf938b138d280546001600160a01b0319166001600160a01b0392831617905590517f10394e4c2e32639e7995c740a29513bbff77c204f584a363ab08adf938b138d3805493516001600160c01b0319909416919092161760a09290921b63ffffffff60a01b16919091179055610e8a611c5d565b5f5160206122575f395f51905f52815273fb55597f07417b08195ba674f4dd58aec9b89fbb602080830191825261010b604084018181525f918252915291517f795d08265d56fd5a903ee2668b92e14f81f12539bf47a8274c5e46a61f29ddf480546001600160a01b0319166001600160a01b0392831617905590517f795d08265d56fd5a903ee2668b92e14f81f12539bf47a8274c5e46a61f29ddf5805493516001600160c01b0319909416919092161760a09290921b63ffffffff60a01b16919091179055610f59611c5d565b5f5160206121175f395f51905f52815273d356c996277efb7f75ee8bd61b31cc781a12f54f6020808301918252620de9fb604084018181525f918252915291515f5160206121b75f395f51905f5280546001600160a01b0319166001600160a01b0392831617905590515f5160206121975f395f51905f52805493516001600160c01b0319909416919092161760a09290921b63ffffffff60a01b16919091179055611003611c5d565b736966b0e55883d49bfb24539356a2f8a673e0203981527328b02b97a850872c4d33c3e024fab6499ad96564602080830191825262aa37dc604084018181525f918252915291515f5160206121f75f395f51905f5280546001600160a01b0319166001600160a01b0392831617905590515f5160206121775f395f51905f52805493516001600160c01b0319909416919092161760a09290921b63ffffffff60a01b169190911790556110b4611c5d565b5f5160206121175f395f51905f52815273d5b70f7da85f98a5197e55114a38f3edcdcf020e602080830191825262018233604084018181525f918252915291517fd25f7f030dbd9d3b27cf53fae95c2f1671cbaaf11dbf0725dcfb293012d638b880546001600160a01b0319166001600160a01b0392831617905590517fd25f7f030dbd9d3b27cf53fae95c2f1671cbaaf11dbf0725dcfb293012d638b9805493516001600160c01b0319909416919092161760a09290921b63ffffffff60a01b16919091179055611184611c5d565b7354148470292c24345fb828b003461a94444145178152736c13643b3927c57db92c790e4e3e7ee81e13f78c602080830191825262013882604084018181525f918252915291515f5160206122375f395f51905f5280546001600160a01b0319166001600160a01b0392831617905590515f5160206120775f395f51905f52805493516001600160c01b0319909416919092161760a09290921b63ffffffff60a01b16919091179055611235611c5d565b730b9a4a46f50f91f353b8aa0f3ca80e35e253bdd8815273e65785c058559ba6d133d1ba1becac0cbc8ae248602080830191825262030d52604084018181525f918252915291517fedcfc170553bdbb0cb9358369b40f17fa78099bb850fbb4e3561934662b8014e80546001600160a01b0319166001600160a01b0392831617905590517fedcfc170553bdbb0cb9358369b40f17fa78099bb850fbb4e3561934662b8014f805493516001600160c01b0319909416919092161760a09290921b63ffffffff60a01b1691909117905561130c611c5d565b733c5154a193d6e2955650f9305c8d80c18c814a6881527386fb9f1c124fb20ff130c41a79a432f770f67afd60208083019182526208274f604084018181525f918252915291515f5160206121575f395f51905f5280546001600160a01b0319166001600160a01b0392831617905590515f5160206121d75f395f51905f52805493516001600160c01b0319909416919092161760a09290921b63ffffffff60a01b169190911790556113bd611c5d565b73ffaef09b3cd11d9b20d1a19becca54eec28847668152736f2756380fd49228ae25aa7f2817993cb74ecc56602080830191825262aa36a7604084018181525f918252915291515f5160206122775f395f51905f5280546001600160a01b0319166001600160a01b0392831617905590515f5160206121375f395f51905f52805493516001600160c01b0319909416919092161760a09290921b63ffffffff60a01b1691909117905561146e611c5d565b737d498740a4572f2b5c6b0a1ba9d1d9dbe207e89e815273919af376d02751bfcad9cbad6bad0c3089dae33f602080830191825261c488604084018181525f918252915291517f58eb1017d2f81d31e0163057022f98d7ccc904cc210d5200a42933412cc6b32480546001600160a01b0319166001600160a01b0392831617905590517f58eb1017d2f81d31e0163057022f98d7ccc904cc210d5200a42933412cc6b325805493516001600160c01b0319909416919092161760a09290921b63ffffffff60a01b16919091179055611544611c5d565b5f5160206121175f395f51905f52815273a2cf52064c921c11adcd83588cbea08cc3bff5d8602080830191825261079a604084018181525f918252915291517fc0bbc53e5b90bd12174d470dbe3a5277ad0cedaa1c76c91115adaff091bfcc6480546001600160a01b0319166001600160a01b0392831617905590517fc0bbc53e5b90bd12174d470dbe3a5277ad0cedaa1c76c91115adaff091bfcc65805493516001600160c01b0319909416919092161760a09290921b63ffffffff60a01b16919091179055611613611c5d565b5f5160206122575f395f51905f5281527339c85c84876479694a2470c0e8075e9d68049afc602080830191825261dede604084018181525f918252915291517fedd83b1a21aae6685c0dbb3f248508b0e9f34b9e98c0d2531378c249026e882380546001600160a01b0319166001600160a01b0392831617905590517fedd83b1a21aae6685c0dbb3f248508b0e9f34b9e98c0d2531378c249026e8824805493516001600160c01b0319909416919092161760a09290921b63ffffffff60a01b169190911790556116e2611c5d565b5f5160206121175f395f51905f52815273a3ab7e6ce24e6293bd5320a53329ef2f4de73fca602080830191825261faa5604084018181525f918252915291517ff84b613fad1eb2870c7bed32bcb5fe816e583f4cd87174ae69f81ddcb62f6dc680546001600160a01b0319166001600160a01b0392831617905590517ff84b613fad1eb2870c7bed32bcb5fe816e583f4cd87174ae69f81ddcb62f6dc7805493516001600160c01b0319909416919092161760a09290921b63ffffffff60a01b169190911790556117b1611c5d565b5f5160206121175f395f51905f52815273a2cf52064c921c11adcd83588cbea08cc3bff5d86020808301918252630201188a604084018181525f918252915291515f5160206122175f395f51905f5280546001600160a01b0319166001600160a01b0392831617905590515f5160206120f75f395f51905f52805493516001600160c01b0319909416919092161760a09290921b63ffffffff60a01b1691909117905561185c611c5d565b5f5160206122575f395f51905f52815273b589407cf6bea5cd81ad0946b9f1467933ede74c60208083019182526103b1604084018181525f918252915291517f39edc75e3218c26f99c7ca2c944b7cfabac874f2278a2832bb537bf048180c5d80546001600160a01b0319166001600160a01b0392831617905590517f39edc75e3218c26f99c7ca2c944b7cfabac874f2278a2832bb537bf048180c5e805493516001600160c01b0319909416919092161760a09290921b63ffffffff60a01b1691909117905561192b611c5d565b736966b0e55883d49bfb24539356a2f8a673e02039815273ec7eb4196bd601dea7585a744fbfb4cf112784506020808301918252620182a9604084018181525f918252915291517ffa3193b1f4ea2728b2f882e1441e988884eb7c05ceb7931144349bf53975b03480546001600160a01b0319166001600160a01b0392831617905590517ffa3193b1f4ea2728b2f882e1441e988884eb7c05ceb7931144349bf53975b035805493516001600160c01b0319909416919092161760a09290921b63ffffffff60a01b16919091179055611a02611c5d565b5f5160206121175f395f51905f52815273a3ab7e6ce24e6293bd5320a53329ef2f4de73fca6020808301918252610515604084018181525f918252915291515f5160206120975f395f51905f5280546001600160a01b0319166001600160a01b0392831617905590515f5160206120d75f395f51905f52805493516001600160c01b0319909416919092161760a09290921b63ffffffff60a01b16919091179055611aab611c5d565b5f5160206122575f395f51905f528152738584590ad637c61c7cdf72eff3381ee1c3d1bc8e6020808301918252612518604084018181525f918252915291517f568f3b2f208bf0ad5c0d66672845ca737d66338ba7028998b7007cc50e1cec8b80546001600160a01b0319166001600160a01b0392831617905590517f568f3b2f208bf0ad5c0d66672845ca737d66338ba7028998b7007cc50e1cec8c805493516001600160c01b0319909416919092161760a09290921b63ffffffff60a01b16919091179055611b7a611c5d565b73dfaa17bf52afc5a12d06964555faafdadd53ff5e815273c4c34aff9f5de4d9623349ce8eac8589ce796fd760208083019182526201f47b60408085018281525f9283529190925292517f965bd928c17d2fcd48babbac485a8e9d5767091c76476b42a703afaf4f2b9ff980546001600160a01b0319166001600160a01b0392831617905591517f965bd928c17d2fcd48babbac485a8e9d5767091c76476b42a703afaf4f2b9ffa805494516001600160c01b0319909516919093161760a09390931b63ffffffff60a01b16929092179055516103e69081611c918239f35b5f80fd5b60405190606082016001600160401b03811183821017611c7c57604052565b634e487b7160e01b5f52604160045260245ffdfe6080806040526004361015610012575f80fd5b5f3560e01c9081634e4293451461031557508063550325b5146102c357806389a967ad146101f85780638da5cb5b146101d05780639a8a0592146101b3578063e97ad16e146100bd5763f247d65d14610069575f80fd5b346100b95760403660031901126100b957610082610343565b61008a61038d565b6004355f90815260016020526040902080546001600160a01b0319166001600160a01b03909216919091179055005b5f80fd5b346100b95760803660031901126100b9576004356001600160a01b038116908190036100b9576100eb610343565b906044359063ffffffff82168092036100b9576064359061010a61038d565b5f828152602081905260409020546001600160a01b03166101a457600191610130610359565b91825260a083811b849003958616602080850191825260408086019788525f94855290849052909220925183546001600160a01b0319169616959095178255519101805492516001600160c01b03199093166001600160a01b0392909216919091179190921b63ffffffff60a01b16179055005b6329409fff60e01b5f5260045ffd5b346100b9575f3660031901126100b9576020600354604051908152f35b346100b9575f3660031901126100b9576002546040516001600160a01b039091168152602090f35b346100b95760803660031901126100b957610211610343565b6044356001600160a01b03811691908290036100b9576064359063ffffffff82168092036100b95760019061024461038d565b61024c610359565b60a083811b8490039283168252602080830196875260408084019687526004355f908152918290529020915182546001600160a01b0319169316929092178155935193909101805492516001600160c01b03199093166001600160a01b03949094169390931791901b63ffffffff60a01b16179055005b346100b95760203660031901126100b9576004355f525f602052606060405f2063ffffffff6001808060a01b0383541692015460405192835260018060a01b038116602084015260a01c166040820152f35b346100b95760203660031901126100b9576020906004355f526001825260018060a01b0360405f2054168152f35b602435906001600160a01b03821682036100b957565b604051906060820182811067ffffffffffffffff82111761037957604052565b634e487b7160e01b5f52604160045260245ffd5b6002546001600160a01b031633036103a157565b6330cd747160e01b5f5260045ffdfea2646970667358221220e1e629bf22e93aea1e6c20f0650168eb599710c7f1f5150eb09e5fc169a45a0c64736f6c634300081c00337b42bb6a3f859455ef809d50a48e7d5fd175ec59145c934e2d28389b12ba388f1d658d2c51175451415aae474040218bf7112369f028b10170f64ad87e4d1eaf71b840a66d6184ddf7cf4e4ee2f5c2b00151c91f0a5f0eb44d317a80c70f3fe31d658d2c51175451415aae474040218bf7112369f028b10170f64ad87e4d1eb0c4f5c20869467177bb3ec578cd0d5e78db0ee65aa1ecf69a43a65546d008efd3000000000000000000000000ddcfecf17586d08a5740b7d91735fcce3dfe3eedf0e94d3b55389b66f693bf6a4ae0eec46a1e61342c9efeaa96ba6ada1d555ca32c94f28956cd809f003d97d547fe525a1e260016b76c8405490ce4a6e5383c73e6c24325ceff3dbca3f8ca0376fd02e125a0b76ea472615a480da835294d6c72f0cfc389f37bc043c3c001991a99b4e624296025504048b8331d08883bfcd7fef0cfc389f37bc043c3c001991a99b4e624296025504048b8331d08883bfcd7fd2c94f28956cd809f003d97d547fe525a1e260016b76c8405490ce4a6e5383c74e6c24325ceff3dbca3f8ca0376fd02e125a0b76ea472615a480da835294d6c71c4f5c20869467177bb3ec578cd0d5e78db0ee65aa1ecf69a43a65546d008efd27b42bb6a3f859455ef809d50a48e7d5fd175ec59145c934e2d28389b12ba388e000000000000000000000000589c201a07c26b4725a4a829d772f24423da480bf0e94d3b55389b66f693bf6a4ae0eec46a1e61342c9efeaa96ba6ada1d555ca271b840a66d6184ddf7cf4e4ee2f5c2b00151c91f0a5f0eb44d317a80c70f3fe2","linkReferences":{}},"methodIdentifiers":{"addChain(address,address,uint32,uint256)":"e97ad16e","addReceiverBridge(uint256,address)":"f247d65d","chainId()":"9a8a0592","chains(uint256)":"550325b5","owner()":"8da5cb5b","receiverBridge(uint256)":"4e429345","updateChain(uint256,address,address,uint32)":"89a967ad"},"id":33}