{"abi":[{"type":"constructor","inputs":[{"name":"name","type":"string","internalType":"string"},{"name":"symbol","type":"string","internalType":"string"}],"stateMutability":"nonpayable"},{"type":"function","name":"allowance","inputs":[{"name":"owner","type":"address","internalType":"address"},{"name":"spender","type":"address","internalType":"address"}],"outputs":[{"name":"","type":"uint256","internalType":"uint256"}],"stateMutability":"view"},{"type":"function","name":"approve","inputs":[{"name":"spender","type":"address","internalType":"address"},{"name":"amount","type":"uint256","internalType":"uint256"}],"outputs":[{"name":"","type":"bool","internalType":"bool"}],"stateMutability":"nonpayable"},{"type":"function","name":"balanceOf","inputs":[{"name":"account","type":"address","internalType":"address"}],"outputs":[{"name":"","type":"uint256","internalType":"uint256"}],"stateMutability":"view"},{"type":"function","name":"decimals","inputs":[],"outputs":[{"name":"","type":"uint8","internalType":"uint8"}],"stateMutability":"view"},{"type":"function","name":"decreaseAllowance","inputs":[{"name":"spender","type":"address","internalType":"address"},{"name":"subtractedValue","type":"uint256","internalType":"uint256"}],"outputs":[{"name":"","type":"bool","internalType":"bool"}],"stateMutability":"nonpayable"},{"type":"function","name":"increaseAllowance","inputs":[{"name":"spender","type":"address","internalType":"address"},{"name":"addedValue","type":"uint256","internalType":"uint256"}],"outputs":[{"name":"","type":"bool","internalType":"bool"}],"stateMutability":"nonpayable"},{"type":"function","name":"name","inputs":[],"outputs":[{"name":"","type":"string","internalType":"string"}],"stateMutability":"view"},{"type":"function","name":"symbol","inputs":[],"outputs":[{"name":"","type":"string","internalType":"string"}],"stateMutability":"view"},{"type":"function","name":"totalSupply","inputs":[],"outputs":[{"name":"","type":"uint256","internalType":"uint256"}],"stateMutability":"view"},{"type":"function","name":"transfer","inputs":[{"name":"to","type":"address","internalType":"address"},{"name":"amount","type":"uint256","internalType":"uint256"}],"outputs":[{"name":"","type":"bool","internalType":"bool"}],"stateMutability":"nonpayable"},{"type":"function","name":"transferAndCall","inputs":[{"name":"to","type":"address","internalType":"address"},{"name":"amount","type":"uint256","internalType":"uint256"},{"name":"data","type":"bytes","internalType":"bytes"}],"outputs":[{"name":"success","type":"bool","internalType":"bool"}],"stateMutability":"nonpayable"},{"type":"function","name":"transferFrom","inputs":[{"name":"from","type":"address","internalType":"address"},{"name":"to","type":"address","internalType":"address"},{"name":"amount","type":"uint256","internalType":"uint256"}],"outputs":[{"name":"","type":"bool","internalType":"bool"}],"stateMutability":"nonpayable"},{"type":"event","name":"Approval","inputs":[{"name":"owner","type":"address","indexed":true,"internalType":"address"},{"name":"spender","type":"address","indexed":true,"internalType":"address"},{"name":"value","type":"uint256","indexed":false,"internalType":"uint256"}],"anonymous":false},{"type":"event","name":"Transfer","inputs":[{"name":"from","type":"address","indexed":true,"internalType":"address"},{"name":"to","type":"address","indexed":true,"internalType":"address"},{"name":"value","type":"uint256","indexed":false,"internalType":"uint256"},{"name":"data","type":"bytes","indexed":false,"internalType":"bytes"}],"anonymous":false},{"type":"event","name":"Transfer","inputs":[{"name":"from","type":"address","indexed":true,"internalType":"address"},{"name":"to","type":"address","indexed":true,"internalType":"address"},{"name":"value","type":"uint256","indexed":false,"internalType":"uint256"}],"anonymous":false}],"bytecode":{"object":"0x60806040523461031057610da28038038061001981610314565b9283398101906040818303126103105780516001600160401b0381116103105782610045918301610339565b60208201519092906001600160401b038111610310576100659201610339565b81516001600160401b03811161022357600354600181811c91168015610306575b602082101461020557601f81116102a3575b50602092601f821160011461024257928192935f92610237575b50508160011b915f199060031b1c1916176003555b80516001600160401b03811161022357600454600181811c91168015610219575b602082101461020557601f81116101a2575b50602091601f8211600114610142579181925f92610137575b50508160011b915f199060031b1c1916176004555b604051610a17908161038b8239f35b015190505f80610113565b601f1982169260045f52805f20915f5b85811061018a57508360019510610172575b505050811b01600455610128565b01515f1960f88460031b161c191690555f8080610164565b91926020600181928685015181550194019201610152565b60045f527f8a35acfbc15ff81a39ae7d344fd709f28e8600b4aa8c65c6b64bfe7fe36bd19b601f830160051c810191602084106101fb575b601f0160051c01905b8181106101f057506100fa565b5f81556001016101e3565b90915081906101da565b634e487b7160e01b5f52602260045260245ffd5b90607f16906100e8565b634e487b7160e01b5f52604160045260245ffd5b015190505f806100b2565b601f1982169360035f52805f20915f5b86811061028b5750836001959610610273575b505050811b016003556100c7565b01515f1960f88460031b161c191690555f8080610265565b91926020600181928685015181550194019201610252565b60035f527fc2575a0e9e593c00f959f8c92f12db2869c3395a3b0502d05e2516446f71f85b601f830160051c810191602084106102fc575b601f0160051c01905b8181106102f15750610098565b5f81556001016102e4565b90915081906102db565b90607f1690610086565b5f80fd5b6040519190601f01601f191682016001600160401b0381118382101761022357604052565b81601f82011215610310578051906001600160401b03821161022357610368601f8301601f1916602001610314565b928284526020838301011161031057815f9260208093018386015e830101529056fe6080806040526004361015610012575f80fd5b5f905f3560e01c90816306fdde031461060457508063095ea7b3146105de57806318160ddd146105c157806323b872dd14610504578063313ce567146104e957806339509351146104875780634000aea01461031557806370a08231146102dd57806395d89b41146101cc578063a457c2d714610129578063a9059cbb146100f75763dd62ed3e146100a2575f80fd5b346100f45760403660031901126100f45760406100bd610719565b916100c661072f565b9260018060a01b031681526001602052209060018060a01b03165f52602052602060405f2054604051908152f35b80fd5b50346100f45760403660031901126100f45761011e610114610719565b602435903361086b565b602060405160018152f35b50346100f45760403660031901126100f457610143610719565b60406024359233815260016020522060018060a01b0382165f5260205260405f2054918083106101795761011e92039033610767565b60405162461bcd60e51b815260206004820152602560248201527f45524332303a2064656372656173656420616c6c6f77616e63652062656c6f77604482015264207a65726f60d81b6064820152608490fd5b50346100f457806003193601126100f4576040519080600454908160011c916001811680156102d3575b6020841081146102bf57838652908115610298575060011461023b575b6102378461022381860382610745565b6040519182916020835260208301906106f5565b0390f35b600481527f8a35acfbc15ff81a39ae7d344fd709f28e8600b4aa8c65c6b64bfe7fe36bd19b939250905b80821061027e5750909150810160200161022382610213565b919260018160209254838588010152019101909291610265565b60ff191660208087019190915292151560051b850190920192506102239150839050610213565b634e487b7160e01b83526022600452602483fd5b92607f16926101f6565b50346100f45760203660031901126100f4576020906040906001600160a01b03610305610719565b1681528083522054604051908152f35b3461046f57606036600319011261046f5761032e610719565b60243560443567ffffffffffffffff811161046f573660238201121561046f57806004013567ffffffffffffffff8111610473576040519161037a601f8301601f191660200184610745565b818352366024838301011161046f57815f9260246020930183860137830101526103a582843361086b565b60018060a01b0383169283604051848152604060208201527fe19260aff97b920c7df27010903aeb9c8d2be5d310a2c67824cf3f15396e4c163391806103ee60408201886106f5565b0390a33b61040157602060405160018152f35b823b1561046f5761043e925f9283604051809681958294635260769b60e11b845233600485015260248401526060604484015260648301906106f5565b03925af1801561046457610454575b808061011e565b5f61045e91610745565b5f61044d565b6040513d5f823e3d90fd5b5f80fd5b634e487b7160e01b5f52604160045260245ffd5b3461046f57604036600319011261046f576104a0610719565b335f52600160205260405f2060018060a01b0382165f5260205260405f205460243581018091116104d55761011e9133610767565b634e487b7160e01b5f52601160045260245ffd5b3461046f575f36600319011261046f57602060405160128152f35b3461046f57606036600319011261046f5761051d610719565b61052561072f565b6001600160a01b0382165f908152600160208181526040808420338552909152909120549260443592918401610560575b61011e935061086b565b82841061057c576105778361011e95033383610767565b610556565b60405162461bcd60e51b815260206004820152601d60248201527f45524332303a20696e73756666696369656e7420616c6c6f77616e63650000006044820152606490fd5b3461046f575f36600319011261046f576020600254604051908152f35b3461046f57604036600319011261046f5761011e6105fa610719565b6024359033610767565b3461046f575f36600319011261046f575f6003548060011c906001811680156106eb575b6020831081146106d7578285529081156106b35750600114610655575b6102378361022381850382610745565b91905060035f527fc2575a0e9e593c00f959f8c92f12db2869c3395a3b0502d05e2516446f71f85b915f905b80821061069957509091508101602001610223610645565b919260018160209254838588010152019101909291610681565b60ff191660208086019190915291151560051b840190910191506102239050610645565b634e487b7160e01b5f52602260045260245ffd5b91607f1691610628565b805180835260209291819084018484015e5f828201840152601f01601f1916010190565b600435906001600160a01b038216820361046f57565b602435906001600160a01b038216820361046f57565b90601f8019910116810190811067ffffffffffffffff82111761047357604052565b6001600160a01b031690811561081a576001600160a01b03169182156107ca5760207f8c5be1e5ebec7d5bd14f71427d1e84f3dd0314c0f7b2291e5b200ac8c7c3b92591835f526001825260405f20855f5282528060405f2055604051908152a3565b60405162461bcd60e51b815260206004820152602260248201527f45524332303a20617070726f766520746f20746865207a65726f206164647265604482015261737360f01b6064820152608490fd5b60405162461bcd60e51b8152602060048201526024808201527f45524332303a20617070726f76652066726f6d20746865207a65726f206164646044820152637265737360e01b6064820152608490fd5b6001600160a01b031690811561098e576001600160a01b031691821561093d57815f525f60205260405f20548181106108e957817fddf252ad1be2c89b69c2b068fc378daa952ba7f163c4a11628f55a4df523b3ef92602092855f525f84520360405f2055845f525f825260405f20818154019055604051908152a3565b60405162461bcd60e51b815260206004820152602660248201527f45524332303a207472616e7366657220616d6f756e7420657863656564732062604482015265616c616e636560d01b6064820152608490fd5b60405162461bcd60e51b815260206004820152602360248201527f45524332303a207472616e7366657220746f20746865207a65726f206164647260448201526265737360e81b6064820152608490fd5b60405162461bcd60e51b815260206004820152602560248201527f45524332303a207472616e736665722066726f6d20746865207a65726f206164604482015264647265737360d81b6064820152608490fdfea2646970667358221220fe22174d271a116dc6a498bd83c475bc536e087178294a6fcd1836c87e4df71b64736f6c634300081c0033","linkReferences":{}},"methodIdentifiers":{"allowance(address,address)":"dd62ed3e","approve(address,uint256)":"095ea7b3","balanceOf(address)":"70a08231","decimals()":"313ce567","decreaseAllowance(address,uint256)":"a457c2d7","increaseAllowance(address,uint256)":"39509351","name()":"06fdde03","symbol()":"95d89b41","totalSupply()":"18160ddd","transfer(address,uint256)":"a9059cbb","transferAndCall(address,uint256,bytes)":"4000aea0","transferFrom(address,address,uint256)":"23b872dd"},"id":9}