{"abi":[{"type":"constructor","inputs":[{"name":"_helperTestnet","type":"address","internalType":"address"},{"name":"_token","type":"address","internalType":"address"}],"stateMutability":"nonpayable"},{"type":"function","name":"handle","inputs":[{"name":"_origin","type":"uint32","internalType":"uint32"},{"name":"_sender","type":"bytes32","internalType":"bytes32"},{"name":"_messageBody","type":"bytes","internalType":"bytes"}],"outputs":[],"stateMutability":"nonpayable"},{"type":"function","name":"helperTestnet","inputs":[],"outputs":[{"name":"","type":"address","internalType":"address"}],"stateMutability":"view"},{"type":"function","name":"mailbox","inputs":[],"outputs":[{"name":"","type":"address","internalType":"address"}],"stateMutability":"view"},{"type":"function","name":"token","inputs":[],"outputs":[{"name":"","type":"address","internalType":"address"}],"stateMutability":"view"},{"type":"event","name":"ReceivedMessage","inputs":[{"name":"origin","type":"uint32","indexed":false,"internalType":"uint32"},{"name":"sender","type":"bytes32","indexed":false,"internalType":"bytes32"},{"name":"message","type":"bytes","indexed":false,"internalType":"bytes"}],"anonymous":false},{"type":"error","name":"MailboxNotSet","inputs":[]},{"type":"error","name":"NotMailbox","inputs":[]}],"bytecode":{"object":"0x6080806040523461012f57604081610416803803809161001f8285610146565b83398101031261012f5760246060610042602061003b8561017d565b940161017d565b600280546001600160a01b0319166001600160a01b03909516948517905560405163550325b560e01b815246600482015290939092839182905afa90811561013b575f916100df575b506001600160a01b031680156100d05760018060a01b03195f5416175f5560018060a01b031660018060a01b0319600154161760015560405161028490816101928239f35b63300f1fb360e11b5f5260045ffd5b90506060813d606011610133575b816100fa60609383610146565b8101031261012f57604061010d8261017d565b9161011a6020820161017d565b50015163ffffffff81160361012f575f61008b565b5f80fd5b3d91506100ed565b6040513d5f823e3d90fd5b601f909101601f19168101906001600160401b0382119082101761016957604052565b634e487b7160e01b5f52604160045260245ffd5b51906001600160a01b038216820361012f5756fe6080806040526004361015610012575f80fd5b5f905f3560e01c90816354aff4391461022b5750806356d5d4751461009c578063d5438eae146100755763fc0c546a1461004a575f80fd5b346100725780600319360112610072576001546040516001600160a01b039091168152602090f35b80fd5b5034610072578060031936011261007257546040516001600160a01b039091168152602090f35b5034610218576060366003190112610218576004359063ffffffff82168092036102185760443567ffffffffffffffff811161021857366023820112156102185780600401359267ffffffffffffffff8411610218576024820191848101366024820111610218575f546001600160a01b0316330361021c57604090829003126102185782356001600160a01b03811690819003610218576001546001600160a01b031691823b156102185760445f928382956040519687958694632919515160e01b86526004860152013560248401525af1801561020d576101db575b50608090847fc9f92737086b645b21611169d04fa8cc1b05a453ea6a9befbf3930d619e23bec94956040519485938452602435602085015260606040850152816060850152848401378181018301869052601f01601f19168101030190a180f35b90925067ffffffffffffffff81116101f9576040525f91608061017a565b634e487b7160e01b5f52604160045260245ffd5b6040513d5f823e3d90fd5b5f80fd5b63079ddc6d60e31b5f5260045ffd5b34610218575f366003190112610218576002546001600160a01b03168152602090f3fea2646970667358221220606823aa2d2468b48582434949136f2bfa4c18f9ad1ecd2a69edb2f555491e5664736f6c634300081c0033","linkReferences":{}},"methodIdentifiers":{"handle(uint32,bytes32,bytes)":"56d5d475","helperTestnet()":"54aff439","mailbox()":"d5438eae","token()":"fc0c546a"},"id":75}