{"abi":[{"type":"constructor","inputs":[{"name":"_helperTestnet","type":"address","internalType":"address"}],"stateMutability":"nonpayable"},{"type":"function","name":"addBridgeTokenSender","inputs":[{"name":"_bridgeTokenSender","type":"address","internalType":"address"}],"outputs":[],"stateMutability":"nonpayable"},{"type":"function","name":"allowance","inputs":[{"name":"owner","type":"address","internalType":"address"},{"name":"spender","type":"address","internalType":"address"}],"outputs":[{"name":"","type":"uint256","internalType":"uint256"}],"stateMutability":"view"},{"type":"function","name":"approve","inputs":[{"name":"spender","type":"address","internalType":"address"},{"name":"value","type":"uint256","internalType":"uint256"}],"outputs":[{"name":"","type":"bool","internalType":"bool"}],"stateMutability":"nonpayable"},{"type":"function","name":"balanceOf","inputs":[{"name":"account","type":"address","internalType":"address"}],"outputs":[{"name":"","type":"uint256","internalType":"uint256"}],"stateMutability":"view"},{"type":"function","name":"bridgeTokenSenders","inputs":[{"name":"","type":"uint256","internalType":"uint256"},{"name":"","type":"uint256","internalType":"uint256"}],"outputs":[{"name":"","type":"address","internalType":"address"}],"stateMutability":"view"},{"type":"function","name":"burn","inputs":[{"name":"amount","type":"uint256","internalType":"uint256"}],"outputs":[],"stateMutability":"nonpayable"},{"type":"function","name":"burnMock","inputs":[{"name":"amount","type":"uint256","internalType":"uint256"}],"outputs":[],"stateMutability":"nonpayable"},{"type":"function","name":"decimals","inputs":[],"outputs":[{"name":"","type":"uint8","internalType":"uint8"}],"stateMutability":"pure"},{"type":"function","name":"getBridgeTokenSendersLength","inputs":[{"name":"_chainId","type":"uint256","internalType":"uint256"}],"outputs":[{"name":"","type":"uint256","internalType":"uint256"}],"stateMutability":"view"},{"type":"function","name":"helperTestnet","inputs":[],"outputs":[{"name":"","type":"address","internalType":"address"}],"stateMutability":"view"},{"type":"function","name":"mint","inputs":[{"name":"to","type":"address","internalType":"address"},{"name":"amount","type":"uint256","internalType":"uint256"}],"outputs":[],"stateMutability":"nonpayable"},{"type":"function","name":"mintMock","inputs":[{"name":"to","type":"address","internalType":"address"},{"name":"amount","type":"uint256","internalType":"uint256"}],"outputs":[],"stateMutability":"nonpayable"},{"type":"function","name":"name","inputs":[],"outputs":[{"name":"","type":"string","internalType":"string"}],"stateMutability":"view"},{"type":"function","name":"owner","inputs":[],"outputs":[{"name":"","type":"address","internalType":"address"}],"stateMutability":"view"},{"type":"function","name":"symbol","inputs":[],"outputs":[{"name":"","type":"string","internalType":"string"}],"stateMutability":"view"},{"type":"function","name":"totalSupply","inputs":[],"outputs":[{"name":"","type":"uint256","internalType":"uint256"}],"stateMutability":"view"},{"type":"function","name":"transfer","inputs":[{"name":"to","type":"address","internalType":"address"},{"name":"value","type":"uint256","internalType":"uint256"}],"outputs":[{"name":"","type":"bool","internalType":"bool"}],"stateMutability":"nonpayable"},{"type":"function","name":"transferFrom","inputs":[{"name":"from","type":"address","internalType":"address"},{"name":"to","type":"address","internalType":"address"},{"name":"value","type":"uint256","internalType":"uint256"}],"outputs":[{"name":"","type":"bool","internalType":"bool"}],"stateMutability":"nonpayable"},{"type":"event","name":"Approval","inputs":[{"name":"owner","type":"address","indexed":true,"internalType":"address"},{"name":"spender","type":"address","indexed":true,"internalType":"address"},{"name":"value","type":"uint256","indexed":false,"internalType":"uint256"}],"anonymous":false},{"type":"event","name":"BridgeTokenSenderAdded","inputs":[{"name":"bridgeTokenSender","type":"address","indexed":true,"internalType":"address"},{"name":"chainId","type":"uint256","indexed":true,"internalType":"uint256"}],"anonymous":false},{"type":"event","name":"Transfer","inputs":[{"name":"from","type":"address","indexed":true,"internalType":"address"},{"name":"to","type":"address","indexed":true,"internalType":"address"},{"name":"value","type":"uint256","indexed":false,"internalType":"uint256"}],"anonymous":false},{"type":"error","name":"ERC20InsufficientAllowance","inputs":[{"name":"spender","type":"address","internalType":"address"},{"name":"allowance","type":"uint256","internalType":"uint256"},{"name":"needed","type":"uint256","internalType":"uint256"}]},{"type":"error","name":"ERC20InsufficientBalance","inputs":[{"name":"sender","type":"address","internalType":"address"},{"name":"balance","type":"uint256","internalType":"uint256"},{"name":"needed","type":"uint256","internalType":"uint256"}]},{"type":"error","name":"ERC20InvalidApprover","inputs":[{"name":"approver","type":"address","internalType":"address"}]},{"type":"error","name":"ERC20InvalidReceiver","inputs":[{"name":"receiver","type":"address","internalType":"address"}]},{"type":"error","name":"ERC20InvalidSender","inputs":[{"name":"sender","type":"address","internalType":"address"}]},{"type":"error","name":"ERC20InvalidSpender","inputs":[{"name":"spender","type":"address","internalType":"address"}]},{"type":"error","name":"InvalidChainId","inputs":[]},{"type":"error","name":"NotOwner","inputs":[]}],"bytecode":{"object":"0x60806040523461035057610d4b6020813803918261001c81610354565b93849283398101031261035057516001600160a01b03811690819003610350576100466040610354565b90600f82526e2bb930b83832b2102134ba31b7b4b760891b602083015261006d6040610354565b60048152635742544360e01b602082015282519091906001600160401b03811161026157600354600181811c91168015610346575b602082101461024357601f81116102e3575b506020601f821160011461028057819293945f92610275575b50508160011b915f199060031b1c1916176003555b81516001600160401b03811161026157600454600181811c91168015610257575b602082101461024357601f81116101e0575b50602092601f821160011461017f57928192935f92610174575b50508160011b915f199060031b1c1916176004555b600680546001600160a01b031990811692909217905560058054909116331790556040516109d1908161037a8239f35b015190505f8061012f565b601f1982169360045f52805f20915f5b8681106101c857508360019596106101b0575b505050811b01600455610144565b01515f1960f88460031b161c191690555f80806101a2565b9192602060018192868501518155019401920161018f565b60045f527f8a35acfbc15ff81a39ae7d344fd709f28e8600b4aa8c65c6b64bfe7fe36bd19b601f830160051c81019160208410610239575b601f0160051c01905b81811061022e5750610115565b5f8155600101610221565b9091508190610218565b634e487b7160e01b5f52602260045260245ffd5b90607f1690610103565b634e487b7160e01b5f52604160045260245ffd5b015190505f806100cd565b601f1982169060035f52805f20915f5b8181106102cb575095836001959697106102b3575b505050811b016003556100e2565b01515f1960f88460031b161c191690555f80806102a5565b9192602060018192868b015181550194019201610290565b60035f527fc2575a0e9e593c00f959f8c92f12db2869c3395a3b0502d05e2516446f71f85b601f830160051c8101916020841061033c575b601f0160051c01905b81811061033157506100b4565b5f8155600101610324565b909150819061031b565b90607f16906100a2565b5f80fd5b6040519190601f01601f191682016001600160401b038111838210176102615760405256fe6080806040526004361015610012575f80fd5b5f3560e01c90816306fdde031461066957508063095ea7b3146105e757806318160ddd146105ca57806323b872dd146104eb57806329195151146104a15780632ca46556146104c1578063313ce567146104a657806340c10f19146104a157806342966c68146102c157806354aff43914610479578063561eedea1461042957806370a08231146103f25780638da5cb5b146103ca57806395d89b41146102c6578063a0e341ae146102c1578063a9059cbb14610290578063beded625146101365763dd62ed3e146100e2575f80fd5b34610132576040366003190112610132576100fb61074b565b610103610761565b6001600160a01b039182165f908152600160209081526040808320949093168252928352819020549051908152f35b5f80fd5b346101325760203660031901126101325761014f61074b565b6005546001600160a01b0316330361028157604051634d4502c960e11b81526001600160a01b039190911690602081600481855afa8015610276575f90610233575b63ffffffff91501690811561022457815f52600760205260405f20805468010000000000000000811015610210576101ce916001820181556108b9565b81546001600160a01b0360039290921b91821b19169083901b1790557f45fbfe56ba8499a8f3b6fbbde722bcab156999617793db830b0b10d892dda8355f80a3005b634e487b7160e01b5f52604160045260245ffd5b633d23e4d160e11b5f5260045ffd5b506020813d60201161026e575b8161024d602093836108e2565b81010312610132575163ffffffff811681036101325763ffffffff90610191565b3d9150610240565b6040513d5f823e3d90fd5b6330cd747160e01b5f5260045ffd5b34610132576040366003190112610132576102b66102ac61074b565b6024359033610904565b602060405160018152f35b610819565b34610132575f366003190112610132576040515f6004548060011c906001811680156103c0575b6020831081146103ac57828552908115610388575060011461032a575b6103268361031a818503826108e2565b60405191829182610721565b0390f35b91905060045f527f8a35acfbc15ff81a39ae7d344fd709f28e8600b4aa8c65c6b64bfe7fe36bd19b915f905b80821061036e5750909150810160200161031a61030a565b919260018160209254838588010152019101909291610356565b60ff191660208086019190915291151560051b8401909101915061031a905061030a565b634e487b7160e01b5f52602260045260245ffd5b91607f16916102ed565b34610132575f366003190112610132576005546040516001600160a01b039091168152602090f35b34610132576020366003190112610132576001600160a01b0361041361074b565b165f525f602052602060405f2054604051908152f35b34610132576040366003190112610132576024356004355f52600760205260405f20805482101561013257602091610460916108b9565b905460405160039290921b1c6001600160a01b03168152f35b34610132575f366003190112610132576006546040516001600160a01b039091168152602090f35b610777565b34610132575f36600319011261013257602060405160088152f35b34610132576020366003190112610132576004355f526007602052602060405f2054604051908152f35b346101325760603660031901126101325761050461074b565b61050c610761565b6001600160a01b0382165f818152600160209081526040808320338452909152902054909260443592915f19811061054a575b506102b69350610904565b8381106105af57841561059c573315610589576102b6945f52600160205260405f2060018060a01b0333165f526020528360405f20910390558461053f565b634a1406b160e11b5f525f60045260245ffd5b63e602df0560e01b5f525f60045260245ffd5b8390637dc7a0d960e11b5f523360045260245260445260645ffd5b34610132575f366003190112610132576020600254604051908152f35b346101325760403660031901126101325761060061074b565b60243590331561059c576001600160a01b031690811561058957335f52600160205260405f20825f526020528060405f20556040519081527f8c5be1e5ebec7d5bd14f71427d1e84f3dd0314c0f7b2291e5b200ac8c7c3b92560203392a3602060405160018152f35b34610132575f366003190112610132575f6003548060011c90600181168015610717575b6020831081146103ac5782855290811561038857506001146106b9576103268361031a818503826108e2565b91905060035f527fc2575a0e9e593c00f959f8c92f12db2869c3395a3b0502d05e2516446f71f85b915f905b8082106106fd5750909150810160200161031a61030a565b9192600181602092548385880101520191019092916106e5565b91607f169161068d565b602060409281835280519182918282860152018484015e5f828201840152601f01601f1916010190565b600435906001600160a01b038216820361013257565b602435906001600160a01b038216820361013257565b346101325760403660031901126101325761079061074b565b6001600160a01b0316602435811561080657600254908082018092116107f25760207fddf252ad1be2c89b69c2b068fc378daa952ba7f163c4a11628f55a4df523b3ef915f9360025584845283825260408420818154019055604051908152a3005b634e487b7160e01b5f52601160045260245ffd5b63ec442f0560e01b5f525f60045260245ffd5b346101325760203660031901126101325760043533156108a657335f525f60205260405f205481811061088d5790805f923384528360205203604083205580600254036002556040519081527fddf252ad1be2c89b69c2b068fc378daa952ba7f163c4a11628f55a4df523b3ef60203392a3005b63391434e360e21b5f523360045260245260445260645ffd5b634b637e8f60e11b5f525f60045260245ffd5b80548210156108ce575f5260205f2001905f90565b634e487b7160e01b5f52603260045260245ffd5b90601f8019910116810190811067ffffffffffffffff82111761021057604052565b6001600160a01b03169081156108a6576001600160a01b031691821561080657815f525f60205260405f205481811061098257817fddf252ad1be2c89b69c2b068fc378daa952ba7f163c4a11628f55a4df523b3ef92602092855f525f84520360405f2055845f525f825260405f20818154019055604051908152a3565b8263391434e360e21b5f5260045260245260445260645ffdfea26469706673582212204794c9c2510aea84280c1945ebf257b404b93e6a55494a10ab552c429860ea8864736f6c634300081c0033","linkReferences":{}},"methodIdentifiers":{"addBridgeTokenSender(address)":"beded625","allowance(address,address)":"dd62ed3e","approve(address,uint256)":"095ea7b3","balanceOf(address)":"70a08231","bridgeTokenSenders(uint256,uint256)":"561eedea","burn(uint256)":"42966c68","burnMock(uint256)":"a0e341ae","decimals()":"313ce567","getBridgeTokenSendersLength(uint256)":"2ca46556","helperTestnet()":"54aff439","mint(address,uint256)":"40c10f19","mintMock(address,uint256)":"29195151","name()":"06fdde03","owner()":"8da5cb5b","symbol()":"95d89b41","totalSupply()":"18160ddd","transfer(address,uint256)":"a9059cbb","transferFrom(address,address,uint256)":"23b872dd"},"id":67}