{"abi":[{"type":"constructor","inputs":[{"name":"name","type":"string","internalType":"string"},{"name":"symbol","type":"string","internalType":"string"},{"name":"decimals_","type":"uint8","internalType":"uint8"},{"name":"maxSupply_","type":"uint256","internalType":"uint256"}],"stateMutability":"nonpayable"},{"type":"function","name":"acceptOwnership","inputs":[],"outputs":[],"stateMutability":"nonpayable"},{"type":"function","name":"allowance","inputs":[{"name":"owner","type":"address","internalType":"address"},{"name":"spender","type":"address","internalType":"address"}],"outputs":[{"name":"","type":"uint256","internalType":"uint256"}],"stateMutability":"view"},{"type":"function","name":"approve","inputs":[{"name":"spender","type":"address","internalType":"address"},{"name":"amount","type":"uint256","internalType":"uint256"}],"outputs":[{"name":"","type":"bool","internalType":"bool"}],"stateMutability":"nonpayable"},{"type":"function","name":"balanceOf","inputs":[{"name":"account","type":"address","internalType":"address"}],"outputs":[{"name":"","type":"uint256","internalType":"uint256"}],"stateMutability":"view"},{"type":"function","name":"burn","inputs":[{"name":"amount","type":"uint256","internalType":"uint256"}],"outputs":[],"stateMutability":"nonpayable"},{"type":"function","name":"burn","inputs":[{"name":"account","type":"address","internalType":"address"},{"name":"amount","type":"uint256","internalType":"uint256"}],"outputs":[],"stateMutability":"nonpayable"},{"type":"function","name":"burnFrom","inputs":[{"name":"account","type":"address","internalType":"address"},{"name":"amount","type":"uint256","internalType":"uint256"}],"outputs":[],"stateMutability":"nonpayable"},{"type":"function","name":"decimals","inputs":[],"outputs":[{"name":"","type":"uint8","internalType":"uint8"}],"stateMutability":"view"},{"type":"function","name":"decreaseAllowance","inputs":[{"name":"spender","type":"address","internalType":"address"},{"name":"subtractedValue","type":"uint256","internalType":"uint256"}],"outputs":[{"name":"","type":"bool","internalType":"bool"}],"stateMutability":"nonpayable"},{"type":"function","name":"decreaseApproval","inputs":[{"name":"spender","type":"address","internalType":"address"},{"name":"subtractedValue","type":"uint256","internalType":"uint256"}],"outputs":[{"name":"success","type":"bool","internalType":"bool"}],"stateMutability":"nonpayable"},{"type":"function","name":"getBurners","inputs":[],"outputs":[{"name":"","type":"address[]","internalType":"address[]"}],"stateMutability":"view"},{"type":"function","name":"getMinters","inputs":[],"outputs":[{"name":"","type":"address[]","internalType":"address[]"}],"stateMutability":"view"},{"type":"function","name":"grantBurnRole","inputs":[{"name":"burner","type":"address","internalType":"address"}],"outputs":[],"stateMutability":"nonpayable"},{"type":"function","name":"grantMintAndBurnRoles","inputs":[{"name":"burnAndMinter","type":"address","internalType":"address"}],"outputs":[],"stateMutability":"nonpayable"},{"type":"function","name":"grantMintRole","inputs":[{"name":"minter","type":"address","internalType":"address"}],"outputs":[],"stateMutability":"nonpayable"},{"type":"function","name":"increaseAllowance","inputs":[{"name":"spender","type":"address","internalType":"address"},{"name":"addedValue","type":"uint256","internalType":"uint256"}],"outputs":[{"name":"","type":"bool","internalType":"bool"}],"stateMutability":"nonpayable"},{"type":"function","name":"increaseApproval","inputs":[{"name":"spender","type":"address","internalType":"address"},{"name":"addedValue","type":"uint256","internalType":"uint256"}],"outputs":[],"stateMutability":"nonpayable"},{"type":"function","name":"isBurner","inputs":[{"name":"burner","type":"address","internalType":"address"}],"outputs":[{"name":"","type":"bool","internalType":"bool"}],"stateMutability":"view"},{"type":"function","name":"isMinter","inputs":[{"name":"minter","type":"address","internalType":"address"}],"outputs":[{"name":"","type":"bool","internalType":"bool"}],"stateMutability":"view"},{"type":"function","name":"maxSupply","inputs":[],"outputs":[{"name":"","type":"uint256","internalType":"uint256"}],"stateMutability":"view"},{"type":"function","name":"mint","inputs":[{"name":"account","type":"address","internalType":"address"},{"name":"amount","type":"uint256","internalType":"uint256"}],"outputs":[],"stateMutability":"nonpayable"},{"type":"function","name":"name","inputs":[],"outputs":[{"name":"","type":"string","internalType":"string"}],"stateMutability":"view"},{"type":"function","name":"owner","inputs":[],"outputs":[{"name":"","type":"address","internalType":"address"}],"stateMutability":"view"},{"type":"function","name":"revokeBurnRole","inputs":[{"name":"burner","type":"address","internalType":"address"}],"outputs":[],"stateMutability":"nonpayable"},{"type":"function","name":"revokeMintRole","inputs":[{"name":"minter","type":"address","internalType":"address"}],"outputs":[],"stateMutability":"nonpayable"},{"type":"function","name":"supportsInterface","inputs":[{"name":"interfaceId","type":"bytes4","internalType":"bytes4"}],"outputs":[{"name":"","type":"bool","internalType":"bool"}],"stateMutability":"pure"},{"type":"function","name":"symbol","inputs":[],"outputs":[{"name":"","type":"string","internalType":"string"}],"stateMutability":"view"},{"type":"function","name":"totalSupply","inputs":[],"outputs":[{"name":"","type":"uint256","internalType":"uint256"}],"stateMutability":"view"},{"type":"function","name":"transfer","inputs":[{"name":"to","type":"address","internalType":"address"},{"name":"amount","type":"uint256","internalType":"uint256"}],"outputs":[{"name":"","type":"bool","internalType":"bool"}],"stateMutability":"nonpayable"},{"type":"function","name":"transferAndCall","inputs":[{"name":"to","type":"address","internalType":"address"},{"name":"amount","type":"uint256","internalType":"uint256"},{"name":"data","type":"bytes","internalType":"bytes"}],"outputs":[{"name":"success","type":"bool","internalType":"bool"}],"stateMutability":"nonpayable"},{"type":"function","name":"transferFrom","inputs":[{"name":"from","type":"address","internalType":"address"},{"name":"to","type":"address","internalType":"address"},{"name":"amount","type":"uint256","internalType":"uint256"}],"outputs":[{"name":"","type":"bool","internalType":"bool"}],"stateMutability":"nonpayable"},{"type":"function","name":"transferOwnership","inputs":[{"name":"to","type":"address","internalType":"address"}],"outputs":[],"stateMutability":"nonpayable"},{"type":"event","name":"Approval","inputs":[{"name":"owner","type":"address","indexed":true,"internalType":"address"},{"name":"spender","type":"address","indexed":true,"internalType":"address"},{"name":"value","type":"uint256","indexed":false,"internalType":"uint256"}],"anonymous":false},{"type":"event","name":"BurnAccessGranted","inputs":[{"name":"burner","type":"address","indexed":true,"internalType":"address"}],"anonymous":false},{"type":"event","name":"BurnAccessRevoked","inputs":[{"name":"burner","type":"address","indexed":true,"internalType":"address"}],"anonymous":false},{"type":"event","name":"MintAccessGranted","inputs":[{"name":"minter","type":"address","indexed":true,"internalType":"address"}],"anonymous":false},{"type":"event","name":"MintAccessRevoked","inputs":[{"name":"minter","type":"address","indexed":true,"internalType":"address"}],"anonymous":false},{"type":"event","name":"OwnershipTransferRequested","inputs":[{"name":"from","type":"address","indexed":true,"internalType":"address"},{"name":"to","type":"address","indexed":true,"internalType":"address"}],"anonymous":false},{"type":"event","name":"OwnershipTransferred","inputs":[{"name":"from","type":"address","indexed":true,"internalType":"address"},{"name":"to","type":"address","indexed":true,"internalType":"address"}],"anonymous":false},{"type":"event","name":"Transfer","inputs":[{"name":"from","type":"address","indexed":true,"internalType":"address"},{"name":"to","type":"address","indexed":true,"internalType":"address"},{"name":"value","type":"uint256","indexed":false,"internalType":"uint256"},{"name":"data","type":"bytes","indexed":false,"internalType":"bytes"}],"anonymous":false},{"type":"event","name":"Transfer","inputs":[{"name":"from","type":"address","indexed":true,"internalType":"address"},{"name":"to","type":"address","indexed":true,"internalType":"address"},{"name":"value","type":"uint256","indexed":false,"internalType":"uint256"}],"anonymous":false},{"type":"error","name":"MaxSupplyExceeded","inputs":[{"name":"supplyAfterMint","type":"uint256","internalType":"uint256"}]},{"type":"error","name":"SenderNotBurner","inputs":[{"name":"sender","type":"address","internalType":"address"}]},{"type":"error","name":"SenderNotMinter","inputs":[{"name":"sender","type":"address","internalType":"address"}]}],"bytecode":{"object":"0x60c0604052346103ab57611c8980380380610019816103af565b9283398101906080818303126103ab5780516001600160401b0381116103ab57826100459183016103d4565b602082015190926001600160401b0382116103ab576100659183016103d4565b9060408101519060ff821682036103ab576060015183519091906001600160401b0381116102bc57600354600181811c911680156103a1575b602082101461029e57601f811161033e575b50602094601f82116001146102db579481929394955f926102d0575b50508160011b915f199060031b1c1916176003555b82516001600160401b0381116102bc57600454600181811c911680156102b2575b602082101461029e57601f811161023b575b506020601f82116001146101d857819293945f926101cd575b50508160011b915f199060031b1c1916176004555b331561018857600580546001600160a01b0319163317905560805260a0526040516118639081610426823960805181610c55015260a05181818161033401526109ad0152f35b60405162461bcd60e51b815260206004820152601860248201527f43616e6e6f7420736574206f776e657220746f207a65726f00000000000000006044820152606490fd5b015190505f8061012d565b601f1982169060045f52805f20915f5b8181106102235750958360019596971061020b575b505050811b01600455610142565b01515f1960f88460031b161c191690555f80806101fd565b9192602060018192868b0151815501940192016101e8565b60045f527f8a35acfbc15ff81a39ae7d344fd709f28e8600b4aa8c65c6b64bfe7fe36bd19b601f830160051c81019160208410610294575b601f0160051c01905b8181106102895750610114565b5f815560010161027c565b9091508190610273565b634e487b7160e01b5f52602260045260245ffd5b90607f1690610102565b634e487b7160e01b5f52604160045260245ffd5b015190505f806100cc565b601f1982169560035f52805f20915f5b8881106103265750836001959697981061030e575b505050811b016003556100e1565b01515f1960f88460031b161c191690555f8080610300565b919260206001819286850151815501940192016102eb565b60035f527fc2575a0e9e593c00f959f8c92f12db2869c3395a3b0502d05e2516446f71f85b601f830160051c81019160208410610397575b601f0160051c01905b81811061038c57506100b0565b5f815560010161037f565b9091508190610376565b90607f169061009e565b5f80fd5b6040519190601f01601f191682016001600160401b038111838210176102bc57604052565b81601f820112156103ab578051906001600160401b0382116102bc57610403601f8301601f19166020016103af565b92828452602083830101116103ab57815f9260208093018386015e830101529056fe6080806040526004361015610012575f80fd5b5f905f3560e01c90816301ffc9a7146110425750806306fdde0314610f4e578063095ea7b314610e3957806318160ddd14610e1c57806323b872dd14610c79578063313ce56714610c3c5780633950935114610c1e5780634000aea014610aab57806340c10f191461096257806342966c68146109175780634334614a146108de5780634f5632f81461087b57806366188463146104fc5780636b32810b1461080657806370a08231146107ce57806379ba50971461071f57806379cc67901461050157806386fe8b431461069e5780638da5cb5b1461067557806395d89b41146105645780639dc29fac14610501578063a457c2d7146104fc578063a9059cbb146104d4578063aa271e1a14610491578063c2e3273d1461042e578063c630948d146103ba578063c64d0ebc14610357578063d5abeb011461031c578063d73dd623146102f2578063dd62ed3e1461029f578063f2fde38b146101e35763f81094f31461017e575f80fd5b346101e05760203660031901126101e0576101976110e9565b61019f611454565b6001600160a01b03166101b18161169d565b6101b9575080f35b7fed998b960f6340d045f620c119730f7aa7995e7425c2401d3a5b64ff998a59e98280a280f35b80fd5b50346101e05760203660031901126101e0576101fd6110e9565b610205611454565b6001600160a01b031633811461025a57600680546001600160a01b031916821790556005546001600160a01b03167fed8889f560326eb138920d842192f0eb3dd22b4f139c87a2c57538e05bae12788380a380f35b60405162461bcd60e51b815260206004820152601760248201527f43616e6e6f74207472616e7366657220746f2073656c660000000000000000006044820152606490fd5b50346101e05760403660031901126101e05760406102bb6110e9565b916102c46110ff565b9260018060a01b031681526001602052209060018060a01b03165f52602052602060405f2054604051908152f35b50346101e05760403660031901126101e05761031861030f6110e9565b6024359061128b565b5080f35b50346101e057806003193601126101e05760206040517f00000000000000000000000000000000000000000000000000000000000000008152f35b50346101e05760203660031901126101e0576103716110e9565b610379611454565b6001600160a01b031661038b8161179d565b610393575080f35b7f92308bb7573b2a3d17ddb868b39d8ebec433f3194421abc22d084f89658c9bad8280a280f35b50346101e05760203660031901126101e0576103d46110e9565b6103dc611454565b6001600160a01b03166103ee81611748565b610404575b6103fb611454565b61038b8161179d565b807fe46fef8bbff1389d9010703cf8ebb363fb3daf5bf56edc27080b67bc8d9251ea8380a26103f3565b50346101e05760203660031901126101e0576104486110e9565b610450611454565b6001600160a01b031661046281611748565b61046a575080f35b7fe46fef8bbff1389d9010703cf8ebb363fb3daf5bf56edc27080b67bc8d9251ea8280a280f35b50346101e05760203660031901126101e05760206104ca6001600160a01b036104b86110e9565b165f52600860205260405f2054151590565b6040519015158152f35b50346101e05760403660031901126101e05760206104ca6104f36110e9565b60243590611309565b611137565b50346101e05760403660031901126101e05761051b6110e9565b60243590610534335f52600a60205260405f2054151590565b15610551579061054e91610549823383611377565b6114a6565b80f35b63c820b10b60e01b835233600452602483fd5b50346101e057806003193601126101e0576040519080600454908160011c9160018116801561066b575b6020841081146106575783865290811561063057506001146105d3575b6105cf846105bb81860382611115565b6040519182916020835260208301906110c5565b0390f35b600481527f8a35acfbc15ff81a39ae7d344fd709f28e8600b4aa8c65c6b64bfe7fe36bd19b939250905b808210610616575090915081016020016105bb826105ab565b9192600181602092548385880101520191019092916105fd565b60ff191660208087019190915292151560051b850190920192506105bb91508390506105ab565b634e487b7160e01b83526022600452602483fd5b92607f169261058e565b50346101e057806003193601126101e0576005546040516001600160a01b039091168152602090f35b50346101e057806003193601126101e05760405180916020600954928381520191600982527f6e1540171b6c0c960b71a7020d9f60077f6af931a8bbf590da0223dacf75c7af915b818110610709576105cf856106fd81870382611115565b60405191829182611228565b82548452602090930192600192830192016106e6565b50346101e057806003193601126101e0576006546001600160a01b03811633036107905760058054336001600160a01b03198083168217909355929091166006556001600160a01b03167f8be0079c531659141344cd1fd0a4f28419497f9722a3daafe3b4186f6b6457e08380a380f35b60405162461bcd60e51b815260206004820152601660248201527526bab9ba10313290383937b837b9b2b21037bbb732b960511b6044820152606490fd5b50346101e05760203660031901126101e0576020906040906001600160a01b036107f66110e9565b1681528083522054604051908152f35b50346101e057806003193601126101e05760405180916020600754928381520191600782527fa66cc928b5edb82af9bd49922954155ab7b0942694bea4ce44661d9a8736c688915b818110610865576105cf856106fd81870382611115565b825484526020909301926001928301920161084e565b50346101e05760203660031901126101e0576108956110e9565b61089d611454565b6001600160a01b03166108af816115c2565b6108b7575080f35b7f0a675452746933cefe3d74182e78db7afe57ba60eaa4234b5d85e9aa41b0610c8280a280f35b50346101e05760203660031901126101e05760206104ca6001600160a01b036109056110e9565b165f52600a60205260405f2054151590565b50346101e05760203660031901126101e05761093e335f52600a60205260405f2054151590565b1561094f5761054e600435336114a6565b63c820b10b60e01b815233600452602490fd5b50346101e05760403660031901126101e05761097c6110e9565b60243590610995335f52600860205260405f2054151590565b15610a98576001600160a01b031690308214610a94577f00000000000000000000000000000000000000000000000000000000000000008015159081610a7f575b50610a61578115610a1c575f5160206117ee5f395f51905f526020826109ff869460025461126a565b60025584845283825260408420818154019055604051908152a380f35b60405162461bcd60e51b815260206004820152601f60248201527f45524332303a206d696e7420746f20746865207a65726f2061646472657373006044820152606490fd5b82610a7060249260025461126a565b63cbbf111360e01b8252600452fd5b9050610a8d8260025461126a565b115f6109d6565b8280fd5b63e2c8c9d560e01b835233600452602483fd5b34610c06576060366003190112610c0657610ac46110e9565b60243560443567ffffffffffffffff8111610c065736602382011215610c0657806004013567ffffffffffffffff8111610c0a5760405191610b10601f8301601f191660200184611115565b8183523660248383010111610c0657815f926024602093018386013783010152610b3a8284611309565b5060018060a01b0383169283604051848152604060208201527fe19260aff97b920c7df27010903aeb9c8d2be5d310a2c67824cf3f15396e4c16339180610b8460408201886110c5565b0390a33b610b98575b602060405160018152f35b823b15610c0657610bd5925f9283604051809681958294635260769b60e11b845233600485015260248401526060604484015260648301906110c5565b03925af18015610bfb57610beb575b8080610b8d565b5f610bf591611115565b5f610be4565b6040513d5f823e3d90fd5b5f80fd5b634e487b7160e01b5f52604160045260245ffd5b34610c06576040366003190112610c065760206104ca61030f6110e9565b34610c06575f366003190112610c0657602060405160ff7f0000000000000000000000000000000000000000000000000000000000000000168152f35b34610c06576060366003190112610c0657610c926110e9565b610c9a6110ff565b60443590610ca9823385611377565b6001600160a01b031691308314610c06576001600160a01b0316908115610dc9578215610d7857815f525f60205260405f2054818110610d2457815f5160206117ee5f395f51905f5292602092855f525f84520360405f2055845f525f825260405f20818154019055604051908152a3602060405160018152f35b60405162461bcd60e51b815260206004820152602660248201527f45524332303a207472616e7366657220616d6f756e7420657863656564732062604482015265616c616e636560d01b6064820152608490fd5b60405162461bcd60e51b815260206004820152602360248201527f45524332303a207472616e7366657220746f20746865207a65726f206164647260448201526265737360e81b6064820152608490fd5b60405162461bcd60e51b815260206004820152602560248201527f45524332303a207472616e736665722066726f6d20746865207a65726f206164604482015264647265737360d81b6064820152608490fd5b34610c06575f366003190112610c06576020600254604051908152f35b34610c06576040366003190112610c0657610e526110e9565b6001600160a01b0316602435308214610c06573315610efd578115610ead57335f52600160205260405f20825f526020528060405f20556040519081525f51602061180e5f395f51905f5260203392a3602060405160018152f35b60405162461bcd60e51b815260206004820152602260248201527f45524332303a20617070726f766520746f20746865207a65726f206164647265604482015261737360f01b6064820152608490fd5b60405162461bcd60e51b8152602060048201526024808201527f45524332303a20617070726f76652066726f6d20746865207a65726f206164646044820152637265737360e01b6064820152608490fd5b34610c06575f366003190112610c06576040515f6003548060011c90600181168015611038575b602083108114611024578285529081156110005750600114610fa2575b6105cf836105bb81850382611115565b91905060035f527fc2575a0e9e593c00f959f8c92f12db2869c3395a3b0502d05e2516446f71f85b915f905b808210610fe6575090915081016020016105bb610f92565b919260018160209254838588010152019101909291610fce565b60ff191660208086019190915291151560051b840190910191506105bb9050610f92565b634e487b7160e01b5f52602260045260245ffd5b91607f1691610f75565b34610c06576020366003190112610c06576004359063ffffffff60e01b8216809203610c06576020916336372b0760e01b81149081156110b4575b81156110a3575b8115611092575b5015158152f35b6301ffc9a760e01b1490508361108b565b63e6599b4d60e01b81149150611084565b630200057560e51b8114915061107d565b805180835260209291819084018484015e5f828201840152601f01601f1916010190565b600435906001600160a01b0382168203610c0657565b602435906001600160a01b0382168203610c0657565b90601f8019910116810190811067ffffffffffffffff821117610c0a57604052565b34610c06576040366003190112610c06576111506110e9565b602435335f52600160205260405f2060018060a01b0383165f5260205260405f20548181106111d5576001600160a01b039092169103308214610c06573315610efd578115610ead57335f52600160205260405f20825f526020528060405f20556040519081525f51602061180e5f395f51905f5260203392a3602060405160018152f35b60405162461bcd60e51b815260206004820152602560248201527f45524332303a2064656372656173656420616c6c6f77616e63652062656c6f77604482015264207a65726f60d81b6064820152608490fd5b60206040818301928281528451809452019201905f5b81811061124b5750505090565b82516001600160a01b031684526020938401939092019160010161123e565b9190820180921161127757565b634e487b7160e01b5f52601160045260245ffd5b906112b490335f52600160205260405f2060018060a01b0384165f5260205260405f205461126a565b6001600160a01b0390911690308214610c06573315610efd578115610ead57335f52600160205260405f20825f526020528060405f20556040519081525f51602061180e5f395f51905f5260203392a3600190565b6001600160a01b031690308214610c06573315610dc9578115610d7857335f525f60205260405f2054818110610d24578190335f525f6020520360405f2055815f525f60205260405f208181540190556040519081525f5160206117ee5f395f51905f5260203392a3600190565b6001600160a01b039081165f81815260016020818152604080842095871684529490529290205492939092909181016113b1575b50505050565b81811061140f576001600160a01b039093169203308314610c06578115610efd578215610ead5760205f51602061180e5f395f51905f5291835f526001825260405f20855f5282528060405f2055604051908152a35f8080806113ab565b60405162461bcd60e51b815260206004820152601d60248201527f45524332303a20696e73756666696369656e7420616c6c6f77616e63650000006044820152606490fd5b6005546001600160a01b0316330361146857565b60405162461bcd60e51b815260206004820152601660248201527527b7363c9031b0b63630b1363290313c9037bbb732b960511b6044820152606490fd5b6001600160a01b0316801561154a57805f525f60205260405f2054918083106114fa576020815f5160206117ee5f395f51905f52925f958587528684520360408620558060025403600255604051908152a3565b60405162461bcd60e51b815260206004820152602260248201527f45524332303a206275726e20616d6f756e7420657863656564732062616c616e604482015261636560f01b6064820152608490fd5b60405162461bcd60e51b815260206004820152602160248201527f45524332303a206275726e2066726f6d20746865207a65726f206164647265736044820152607360f81b6064820152608490fd5b80548210156115ae575f5260205f2001905f90565b634e487b7160e01b5f52603260045260245ffd5b5f818152600a60205260409020548015611697575f198101818111611277576009545f1981019190821161127757808203611649575b5050506009548015611635575f1901611612816009611599565b8154905f199060031b1b191690556009555f52600a6020525f6040812055600190565b634e487b7160e01b5f52603160045260245ffd5b61168161165a61166b936009611599565b90549060031b1c9283926009611599565b819391549060031b91821b915f19901b19161790565b90555f52600a60205260405f20555f80806115f8565b50505f90565b5f818152600860205260409020548015611697575f198101818111611277576007545f1981019190821161127757808203611710575b5050506007548015611635575f19016116ed816007611599565b8154905f199060031b1b191690556007555f5260086020525f6040812055600190565b61173261172161166b936007611599565b90549060031b1c9283926007611599565b90555f52600860205260405f20555f80806116d3565b805f52600860205260405f2054155f1461179857600754600160401b811015610c0a5761178161166b8260018594016007556007611599565b9055600754905f52600860205260405f2055600190565b505f90565b805f52600a60205260405f2054155f1461179857600954600160401b811015610c0a576117d661166b8260018594016009556009611599565b9055600954905f52600a60205260405f205560019056feddf252ad1be2c89b69c2b068fc378daa952ba7f163c4a11628f55a4df523b3ef8c5be1e5ebec7d5bd14f71427d1e84f3dd0314c0f7b2291e5b200ac8c7c3b925a26469706673582212209c3b8074a2b72a03156bc693b74c87ed75a01dc99ee83f8a43b5426f5928f9fa64736f6c634300081c0033","linkReferences":{}},"methodIdentifiers":{"acceptOwnership()":"79ba5097","allowance(address,address)":"dd62ed3e","approve(address,uint256)":"095ea7b3","balanceOf(address)":"70a08231","burn(address,uint256)":"9dc29fac","burn(uint256)":"42966c68","burnFrom(address,uint256)":"79cc6790","decimals()":"313ce567","decreaseAllowance(address,uint256)":"a457c2d7","decreaseApproval(address,uint256)":"66188463","getBurners()":"86fe8b43","getMinters()":"6b32810b","grantBurnRole(address)":"c64d0ebc","grantMintAndBurnRoles(address)":"c630948d","grantMintRole(address)":"c2e3273d","increaseAllowance(address,uint256)":"39509351","increaseApproval(address,uint256)":"d73dd623","isBurner(address)":"4334614a","isMinter(address)":"aa271e1a","maxSupply()":"d5abeb01","mint(address,uint256)":"40c10f19","name()":"06fdde03","owner()":"8da5cb5b","revokeBurnRole(address)":"4f5632f8","revokeMintRole(address)":"f81094f3","supportsInterface(bytes4)":"01ffc9a7","symbol()":"95d89b41","totalSupply()":"18160ddd","transfer(address,uint256)":"a9059cbb","transferAndCall(address,uint256,bytes)":"4000aea0","transferFrom(address,address,uint256)":"23b872dd","transferOwnership(address)":"f2fde38b"},"id":8}