{"abi":[{"type":"constructor","inputs":[{"name":"_mailbox","type":"address","internalType":"address"},{"name":"_token","type":"address","internalType":"address"},{"name":"_destinationDomain","type":"uint32","internalType":"uint32"},{"name":"_receiverBridge","type":"address","internalType":"address"},{"name":"_interchainGasPaymaster","type":"address","internalType":"address"}],"stateMutability":"nonpayable"},{"type":"function","name":"bridge","inputs":[{"name":"amount","type":"uint256","internalType":"uint256"},{"name":"recipient","type":"address","internalType":"address"}],"outputs":[{"name":"","type":"bytes32","internalType":"bytes32"}],"stateMutability":"payable"},{"type":"function","name":"destinationDomain","inputs":[],"outputs":[{"name":"","type":"uint32","internalType":"uint32"}],"stateMutability":"view"},{"type":"function","name":"interchainGasPaymaster","inputs":[],"outputs":[{"name":"","type":"address","internalType":"address"}],"stateMutability":"view"},{"type":"function","name":"mailbox","inputs":[],"outputs":[{"name":"","type":"address","internalType":"address"}],"stateMutability":"view"},{"type":"function","name":"receiverBridge","inputs":[],"outputs":[{"name":"","type":"address","internalType":"address"}],"stateMutability":"view"},{"type":"function","name":"token","inputs":[],"outputs":[{"name":"","type":"address","internalType":"address"}],"stateMutability":"view"}],"bytecode":{"object":"0x6080346100f557601f6104ec38819003918201601f19168301916001600160401b038311848410176100f95780849260a0946040528339810103126100f5576100478161010d565b906100546020820161010d565b604082015163ffffffff811681036100f55761007e60806100776060860161010d565b940161010d565b5f80546001600160a01b03199081166001600160a01b0397881617909155600180546001600160c01b0319169487169490941760a09390931b63ffffffff60a01b1692909217909255600280548216938516939093179092556003805490921692169190911790556040516103ca90816101228239f35b5f80fd5b634e487b7160e01b5f52604160045260245ffd5b51906001600160a01b03821682036100f55756fe6080806040526004361015610012575f80fd5b5f3560e01c9081632858c55a1461033b5750806339bb4ad9146103135780635abf0d39146102eb5780639394d2e8146100b1578063d5438eae1461008a5763fc0c546a1461005e575f80fd5b34610086575f366003190112610086576001546040516001600160a01b039091168152602090f35b5f80fd5b34610086575f366003190112610086575f546040516001600160a01b039091168152602090f35b6040366003190112610086576024356001600160a01b0381169060043590829003610086576001546040516323b872dd60e01b81523360048201523060248201526044810183905290602090829060649082905f906001600160a01b03165af190811561023b575f916102b0575b501561027957604051602081019283528160408201526040815261014460608261035e565b60018060a01b036003541691602063ffffffff60015460a01c169160446040518096819363a692979360e01b835286600484015260248301525afa801561023b575f90610246575b6020935060018060a01b036002541690608460018060a01b035f5416936040519788968795869363fa31de0160e01b855260048501526024840152606060448401525180918160648501528484015e5f828201840152601f01601f191681010301925af1801561023b575f90610208575b602090604051908152f35b506020813d602011610233575b816102226020938361035e565b8101031261008657602090516101fd565b3d9150610215565b6040513d5f823e3d90fd5b506020833d602011610271575b816102606020938361035e565b81010312610086576020925161018c565b3d9150610253565b60405162461bcd60e51b815260206004820152600f60248201526e151c985b9cd9995c8819985a5b1959608a1b6044820152606490fd5b90506020813d6020116102e3575b816102cb6020938361035e565b8101031261008657518015158103610086578361011f565b3d91506102be565b34610086575f366003190112610086576002546040516001600160a01b039091168152602090f35b34610086575f366003190112610086576003546040516001600160a01b039091168152602090f35b34610086575f3660031901126100865760209063ffffffff60015460a01c168152f35b90601f8019910116810190811067ffffffffffffffff82111761038057604052565b634e487b7160e01b5f52604160045260245ffdfea2646970667358221220bbd1c2484f15b9c2cc2e412b04ccfb0aaf9da18ee5876f32d58910b9ab99e02964736f6c634300081c0033","linkReferences":{}},"methodIdentifiers":{"bridge(uint256,address)":"9394d2e8","destinationDomain()":"2858c55a","interchainGasPaymaster()":"39bb4ad9","mailbox()":"d5438eae","receiverBridge()":"5abf0d39","token()":"fc0c546a"},"id":84}