{"abi":[{"type":"function","name":"EVM_EXTRA_ARGS_V1_TAG","inputs":[],"outputs":[{"name":"","type":"bytes4","internalType":"bytes4"}],"stateMutability":"view"},{"type":"function","name":"GENERIC_EXTRA_ARGS_V2_TAG","inputs":[],"outputs":[{"name":"","type":"bytes4","internalType":"bytes4"}],"stateMutability":"view"},{"type":"function","name":"SVM_ACCOUNT_BYTE_SIZE","inputs":[],"outputs":[{"name":"","type":"uint256","internalType":"uint256"}],"stateMutability":"view"},{"type":"function","name":"SVM_EXTRA_ARGS_MAX_ACCOUNTS","inputs":[],"outputs":[{"name":"","type":"uint256","internalType":"uint256"}],"stateMutability":"view"},{"type":"function","name":"SVM_EXTRA_ARGS_V1_TAG","inputs":[],"outputs":[{"name":"","type":"bytes4","internalType":"bytes4"}],"stateMutability":"view"},{"type":"function","name":"SVM_MESSAGING_ACCOUNTS_OVERHEAD","inputs":[],"outputs":[{"name":"","type":"uint256","internalType":"uint256"}],"stateMutability":"view"},{"type":"function","name":"SVM_TOKEN_TRANSFER_DATA_OVERHEAD","inputs":[],"outputs":[{"name":"","type":"uint256","internalType":"uint256"}],"stateMutability":"view"}],"bytecode":{"object":"0x60808060405234601957610150908161001e823930815050f35b5f80fdfe6080806040526004361015610012575f80fd5b5f3560e01c9081631ac428f814610106575080633ab8c0d0146100e95780635dd8ee3e146100d357806371953f60146100be5780637498e355146100a15780639713cbbd1461008a5763a5dd87d814610069575f80fd5b5f36600319011261008657604051630f9d9d5d60e11b8152602090f35b5f80fd5b5f36600319011261008657602060405161012c8152f35b5f36600319011261008657604051630181dcf160e41b8152602090f35b5f366003190112610086576020604051818152f35b5f36600319011261008657602060405160028152f35b5f366003190112610086576040516397a657c960e01b8152602090f35b5f3660031901126100865780604060209252f3fea2646970667358221220cb4b1ea8430820208fc613b571b3a6aa014a69b5fd5f37f9878f1e0668290dfb64736f6c634300081c0033","linkReferences":{}},"methodIdentifiers":{"EVM_EXTRA_ARGS_V1_TAG()":"3ab8c0d0","GENERIC_EXTRA_ARGS_V2_TAG()":"7498e355","SVM_ACCOUNT_BYTE_SIZE()":"71953f60","SVM_EXTRA_ARGS_MAX_ACCOUNTS()":"1ac428f8","SVM_EXTRA_ARGS_V1_TAG()":"a5dd87d8","SVM_MESSAGING_ACCOUNTS_OVERHEAD()":"5dd8ee3e","SVM_TOKEN_TRANSFER_DATA_OVERHEAD()":"9713cbbd"},"id":0}