{"abi":[{"type":"constructor","inputs":[{"name":"_helperTestnet","type":"address","internalType":"address"},{"name":"_token","type":"address","internalType":"address"}],"stateMutability":"nonpayable"},{"type":"function","name":"bridge","inputs":[{"name":"_amount","type":"uint256","internalType":"uint256"},{"name":"_recipient","type":"address","internalType":"address"},{"name":"_chainId","type":"uint256","internalType":"uint256"}],"outputs":[{"name":"","type":"bytes32","internalType":"bytes32"}],"stateMutability":"payable"},{"type":"function","name":"helperTestnet","inputs":[],"outputs":[{"name":"","type":"address","internalType":"address"}],"stateMutability":"view"},{"type":"function","name":"interchainGasPaymaster","inputs":[],"outputs":[{"name":"","type":"address","internalType":"address"}],"stateMutability":"view"},{"type":"function","name":"mailbox","inputs":[],"outputs":[{"name":"","type":"address","internalType":"address"}],"stateMutability":"view"},{"type":"function","name":"token","inputs":[],"outputs":[{"name":"","type":"address","internalType":"address"}],"stateMutability":"view"},{"type":"event","name":"ReceivedMessage","inputs":[{"name":"origin","type":"uint32","indexed":false,"internalType":"uint32"},{"name":"sender","type":"bytes32","indexed":false,"internalType":"bytes32"},{"name":"message","type":"bytes","indexed":false,"internalType":"bytes"}],"anonymous":false},{"type":"error","name":"InterchainGasPaymasterNotSet","inputs":[]},{"type":"error","name":"MailboxNotSet","inputs":[]},{"type":"error","name":"NotMailbox","inputs":[]},{"type":"error","name":"ReceiverBridgeNotSet","inputs":[]},{"type":"error","name":"SameChain","inputs":[]},{"type":"error","name":"TransferFailed","inputs":[]}],"bytecode":{"object":"0x608080604052346101625760408161066f803803809161001f8285610179565b8339810103126101625760246060610042602061003b856101b0565b94016101b0565b5f80546001600160a01b0319166001600160a01b03909516948517905560405163550325b560e01b815246600482015290939092839182905afa90811561016e575f905f92610112575b506001600160a01b0316908115610103576001600160a01b03169081156100f45760018060a01b0319600154161760015560018060a01b0319600254161760025560018060a01b031660018060a01b031960035416176003556040516104aa90816101c58239f35b634fdc5b9760e01b5f5260045ffd5b63300f1fb360e11b5f5260045ffd5b9150506060813d606011610166575b8161012e60609383610179565b810103126101625761013f816101b0565b604061014d602084016101b0565b92015163ffffffff811603610162575f61008c565b5f80fd5b3d9150610121565b6040513d5f823e3d90fd5b601f909101601f19168101906001600160401b0382119082101761019c57604052565b634e487b7160e01b5f52604160045260245ffd5b51906001600160a01b03821682036101625756fe6080806040526004361015610012575f80fd5b5f3560e01c9081632f820a5f146100f65750806339bb4ad9146100ce57806354aff439146100a7578063d5438eae1461007f5763fc0c546a14610053575f80fd5b3461007b575f36600319011261007b576003546040516001600160a01b039091168152602090f35b5f80fd5b3461007b575f36600319011261007b576001546040516001600160a01b039091168152602090f35b3461007b575f36600319011261007b575f546040516001600160a01b039091168152602090f35b3461007b575f36600319011261007b576002546040516001600160a01b039091168152602090f35b606036600319011261007b576024356001600160a01b03811691906004359083900361007b5760443580461461041b575f5463550325b560e01b8452600484018290526001600160a01b031690606084602481855afa9384156102ed575f946103be575b50602090602460405180948193634e42934560e01b835260048301525afa9081156102ed575f91610384575b506001600160a01b0316908115610375576003546040516323b872dd60e01b81523360048201523060248201526044810183905290602090829060649082905f906001600160a01b03165af19081156102ed575f9161033a575b501561032b5760405191602083019485528160408401526040835261020660608461042a565b602063ffffffff604460018060a01b036002541696604051978893849263a692979360e01b8452169687600484015260248301525afa80156102ed575f906102f8575b60209450608460018060a01b0360015416936040519788968795869363fa31de0160e01b855260048501526024840152606060448401525180918160648501528484015e5f828201840152601f01601f191681010301925af180156102ed575f906102ba575b602090604051908152f35b506020813d6020116102e5575b816102d46020938361042a565b8101031261007b57602090516102af565b3d91506102c7565b6040513d5f823e3d90fd5b506020843d602011610323575b816103126020938361042a565b8101031261007b5760209351610249565b3d9150610305565b6312171d8360e31b5f5260045ffd5b90506020813d60201161036d575b816103556020938361042a565b8101031261007b5751801515810361007b57856101e0565b3d9150610348565b63068b03a360e31b5f5260045ffd5b90506020813d6020116103b6575b8161039f6020938361042a565b8101031261007b576103b090610460565b84610186565b3d9150610392565b9093506060813d606011610413575b816103da6060938361042a565b8101031261007b57806103ee604092610460565b506103fb60208201610460565b50015163ffffffff8116810361007b5792602061015a565b3d91506103cd565b6306a0ae9360e11b5f5260045ffd5b90601f8019910116810190811067ffffffffffffffff82111761044c57604052565b634e487b7160e01b5f52604160045260245ffd5b51906001600160a01b038216820361007b5756fea26469706673582212204e5f736d4b5d55ff5c95819666abf53a248eaa39a2e5e8eb1a0fe334b380898d64736f6c634300081c0033","linkReferences":{}},"methodIdentifiers":{"bridge(uint256,address,uint256)":"2f820a5f","helperTestnet()":"54aff439","interchainGasPaymaster()":"39bb4ad9","mailbox()":"d5438eae","token()":"fc0c546a"},"id":54}